{
  "_format": "hh-sol-artifact-1",
  "contractName": "TestUpgradableContract",
  "sourceName": "contracts/TestUpgradableContract.sol",
  "abi": [
    {
      "inputs": [],
      "stateMutability": "nonpayable",
      "type": "constructor"
    },
    {
      "anonymous": false,
      "inputs": [
        {
          "indexed": false,
          "internalType": "address",
          "name": "previousAdmin",
          "type": "address"
        },
        {
          "indexed": false,
          "internalType": "address",
          "name": "newAdmin",
          "type": "address"
        }
      ],
      "name": "AdminChanged",
      "type": "event"
    },
    {
      "anonymous": false,
      "inputs": [
        {
          "indexed": true,
          "internalType": "address",
          "name": "beacon",
          "type": "address"
        }
      ],
      "name": "BeaconUpgraded",
      "type": "event"
    },
    {
      "anonymous": false,
      "inputs": [
        {
          "indexed": false,
          "internalType": "uint8",
          "name": "version",
          "type": "uint8"
        }
      ],
      "name": "Initialized",
      "type": "event"
    },
    {
      "anonymous": false,
      "inputs": [
        {
          "indexed": true,
          "internalType": "address",
          "name": "implementation",
          "type": "address"
        }
      ],
      "name": "Upgraded",
      "type": "event"
    },
    {
      "inputs": [
        {
          "internalType": "uint256",
          "name": "_param1",
          "type": "uint256"
        },
        {
          "internalType": "string",
          "name": "_param2",
          "type": "string"
        }
      ],
      "name": "initialize",
      "outputs": [],
      "stateMutability": "nonpayable",
      "type": "function"
    },
    {
      "inputs": [],
      "name": "param1",
      "outputs": [
        {
          "internalType": "uint256",
          "name": "",
          "type": "uint256"
        }
      ],
      "stateMutability": "view",
      "type": "function"
    },
    {
      "inputs": [],
      "name": "param2",
      "outputs": [
        {
          "internalType": "string",
          "name": "",
          "type": "string"
        }
      ],
      "stateMutability": "view",
      "type": "function"
    },
    {
      "inputs": [],
      "name": "param3",
      "outputs": [
        {
          "internalType": "string",
          "name": "",
          "type": "string"
        }
      ],
      "stateMutability": "view",
      "type": "function"
    },
    {
      "inputs": [],
      "name": "proxiableUUID",
      "outputs": [
        {
          "internalType": "bytes32",
          "name": "",
          "type": "bytes32"
        }
      ],
      "stateMutability": "view",
      "type": "function"
    },
    {
      "inputs": [
        {
          "internalType": "uint256",
          "name": "_newParam1",
          "type": "uint256"
        },
        {
          "internalType": "string",
          "name": "_newParam2",
          "type": "string"
        }
      ],
      "name": "updateParams",
      "outputs": [],
      "stateMutability": "nonpayable",
      "type": "function"
    },
    {
      "inputs": [
        {
          "internalType": "address",
          "name": "newImplementation",
          "type": "address"
        }
      ],
      "name": "upgradeTo",
      "outputs": [],
      "stateMutability": "nonpayable",
      "type": "function"
    },
    {
      "inputs": [
        {
          "internalType": "address",
          "name": "newImplementation",
          "type": "address"
        },
        {
          "internalType": "bytes",
          "name": "data",
          "type": "bytes"
        }
      ],
      "name": "upgradeToAndCall",
      "outputs": [],
      "stateMutability": "payable",
      "type": "function"
    }
  ],
  "bytecode": "0x60a080604052346100dc57306080526000549060ff8260081c1661008a575060ff8082160361004f575b6040516110ed90816100e282396080518181816105940152818161069201526109800152f35b60ff90811916176000557f7f26b83ff96e1f2b6a682f133852f6798a09c465da95921460cefb3847402498602060405160ff8152a138610029565b62461bcd60e51b815260206004820152602760248201527f496e697469616c697a61626c653a20636f6e747261637420697320696e697469604482015266616c697a696e6760c81b6064820152608490fd5b600080fdfe608060408181526004918236101561001657600080fd5b600091823560e01c91826302d9151814610ceb575081631f049b6814610c535781633659cfe6146109585781634f1ef2861461064157816352d1902d1461057f5781635ccea9a51461049a5781636e9d13ab146101ca57506382c0a3401461007d57600080fd5b346101c75761008b36610e4c565b929060655582519067ffffffffffffffff82116101b457506100ae606654610d07565b601f8111610163575b50602080601f83116001146100f4575082938293926100e9575b50508160011b916000199060031b1c19161760665580f35b0151905038806100d1565b60668452601f19831694600080516020611078833981519152929185905b87821061014b575050836001959610610132575b505050811b0160665580f35b015160001960f88460031b161c19169055388080610126565b80600185968294968601518155019501930190610112565b60668352600080516020611078833981519152601f830160051c810191602084106101aa575b601f0160051c01905b81811061019f57506100b7565b838155600101610192565b9091508190610189565b634e487b7160e01b835260419052602482fd5b80fd5b90508234610496576101db36610e4c565b9084549160ff8360081c161591828093610489575b8015610472575b1561041857600193838560ff198316178955610407575b5060655580519067ffffffffffffffff82116103f4578190610231606654610d07565b601f8111610396575b50602090601f831160011461032957889261031e575b5050600019600383901b1c191690831b176066555b84549260ff8460081c16156102c75750606780546001600160a01b0319163317905561028f578380f35b7f7f26b83ff96e1f2b6a682f133852f6798a09c465da95921460cefb38474024989260209261ff001916855551908152a18180808380f35b608490602086519162461bcd60e51b8352820152602b60248201527f496e697469616c697a61626c653a20636f6e7472616374206973206e6f74206960448201526a6e697469616c697a696e6760a81b6064820152fd5b015190508780610250565b606689528593506000805160206110788339815191529190601f1984168a5b81811061037e57508411610365575b505050811b01606655610265565b015160001960f88460031b161c19169055878080610357565b82840151855588969094019360209384019301610348565b90915060668852600080516020611078833981519152601f840160051c810191602085106103ea575b84939291601f88920160051c01915b8281106103dc57505061023a565b8a81558594508791016103ce565b90915081906103bf565b634e487b7160e01b875260418552602487fd5b61ffff19166101011787558761020e565b855162461bcd60e51b8152602081870152602e60248201527f496e697469616c697a61626c653a20636f6e747261637420697320616c72656160448201526d191e481a5b9a5d1a585b1a5e995960921b6064820152608490fd5b50303b1580156101f75750600160ff8516146101f7565b50600160ff8516106101f0565b8280fd5b90503461057b578160031936011261057b57805190826068546104bc81610d07565b8085529160019180831690811561055357506001146104f6575b5050506104e8826104f2940383610d73565b5191829182610d95565b0390f35b9450606885527fa2153420d844928b4421650203c77babc8b33d7f2e7b450e2966db0c220977535b82861061053b575050506104e88260206104f295820101946104d6565b8054602087870181019190915290950194810161051e565b6104f29750869350602092506104e894915060ff191682840152151560051b820101946104d6565b5080fd5b8383346101c757806003193601126101c757507f00000000000000000000000000000000000000000000000000000000000000006001600160a01b031630036105d957602082516000805160206110988339815191528152f35b6020608492519162461bcd60e51b8352820152603860248201527f555550535570677261646561626c653a206d757374206e6f742062652063616c60448201527f6c6564207468726f7567682064656c656761746563616c6c00000000000000006064820152fd5b8391508060031936011261049657610657610dde565b9060243567ffffffffffffffff81116109545736602382011215610954576106889036906024818701359101610e15565b6001600160a01b037f000000000000000000000000000000000000000000000000000000000000000081169291906106c230851415610e90565b6106df600080516020611098833981519152948286541614610ef1565b8060675416330361091b577f4910fdfa16fed3260ed0e7147f7cc6da11a60208b5b9406d12a635614ffd91435460ff161561072557505050506107229150610f52565b80f35b82516352d1902d60e01b81526020959394918416919086818981865afa8991816108e8575b506107a957855162461bcd60e51b8152808901889052602e60248201527f45524331393637557067726164653a206e657720696d706c656d656e7461746960448201526d6f6e206973206e6f74205555505360901b6064820152608490fd5b969192959493960361089357506107bf85610f52565b7fbc7cd75a20ee27fd9adebab32041f755214dbc6bffa90cc0225b39da2e5c2d3b8680a282511580159061088b575b6107fa575b5050505080f35b61087793858083519561080c87610d41565b602787527f416464726573733a206c6f772d6c6576656c2064656c65676174652063616c6c86880152660819985a5b195960ca1b858801528581519101845af4913d15610881573d61086961086082610df9565b92519283610d73565b81528681943d92013e610fe2565b50818080806107f3565b5060609250610fe2565b5060016107ee565b825162461bcd60e51b8152908101849052602960248201527f45524331393637557067726164653a20756e737570706f727465642070726f786044820152681a58589b195555525160ba1b6064820152608490fd5b9091508781813d8311610914575b6109008183610d73565b810103126109105751908a61074a565b8980fd5b503d6108f6565b825162461bcd60e51b81526020818801526013602482015272556e617574686f72697a65642041636365737360681b6044820152606490fd5b8480fd5b8391503461049657602080600319360112610c4f57610975610dde565b916001600160a01b037f000000000000000000000000000000000000000000000000000000000000000081166109ad30821415610e90565b6109ca600080516020611098833981519152918383541614610ef1565b81606754163303610c16578251908482019282841067ffffffffffffffff851117610c03578385528883527f4910fdfa16fed3260ed0e7147f7cc6da11a60208b5b9406d12a635614ffd91435460ff1615610a2f575050505050506107229150610f52565b869293949596169085516352d1902d60e01b815287818a81865afa8a9181610bd0575b50610ab157865162461bcd60e51b8152808a01899052602e60248201527f45524331393637557067726164653a206e657720696d706c656d656e7461746960448201526d6f6e206973206e6f74205555505360901b6064820152608490fd5b979192939695949703610b7b5750610ac882610f52565b7fbc7cd75a20ee27fd9adebab32041f755214dbc6bffa90cc0225b39da2e5c2d3b8780a285845115801590610b74575b610b06575b50505050505080f35b80610b6896845196610b1788610d41565b602788527f416464726573733a206c6f772d6c6576656c2064656c65676174652063616c6c87890152660819985a5b195960ca1b868901525190845af4913d15610881573d61086961086082610df9565b50818080808085610afd565b5080610af8565b835162461bcd60e51b8152908101859052602960248201527f45524331393637557067726164653a20756e737570706f727465642070726f786044820152681a58589b195555525160ba1b6064820152608490fd5b9091508881813d8311610bfc575b610be88183610d73565b81010312610bf85751908b610a52565b8a80fd5b503d610bde565b634e487b7160e01b895260418852602489fd5b825162461bcd60e51b81528087018590526013602482015272556e617574686f72697a65642041636365737360681b6044820152606490fd5b8380fd5b90503461057b578160031936011261057b5780519082606654610c7581610d07565b808552916001918083169081156105535750600114610ca0575050506104e8826104f2940383610d73565b9450606685526000805160206110788339815191525b828610610cd3575050506104e88260206104f295820101946104d6565b80546020878701810191909152909501948101610cb6565b83903461057b578160031936011261057b576020906065548152f35b90600182811c92168015610d37575b6020831014610d2157565b634e487b7160e01b600052602260045260246000fd5b91607f1691610d16565b6060810190811067ffffffffffffffff821117610d5d57604052565b634e487b7160e01b600052604160045260246000fd5b90601f8019910116810190811067ffffffffffffffff821117610d5d57604052565b6020808252825181830181905290939260005b828110610dca57505060409293506000838284010152601f8019910116010190565b818101860151848201604001528501610da8565b600435906001600160a01b0382168203610df457565b600080fd5b67ffffffffffffffff8111610d5d57601f01601f191660200190565b929192610e2182610df9565b91610e2f6040519384610d73565b829481845281830111610df4578281602093846000960137010152565b906040600319830112610df457600435916024359067ffffffffffffffff8211610df45780602383011215610df457816024610e8d93600401359101610e15565b90565b15610e9757565b60405162461bcd60e51b815260206004820152602c60248201527f46756e6374696f6e206d7573742062652063616c6c6564207468726f7567682060448201526b19195b1959d85d1958d85b1b60a21b6064820152608490fd5b15610ef857565b60405162461bcd60e51b815260206004820152602c60248201527f46756e6374696f6e206d7573742062652063616c6c6564207468726f7567682060448201526b6163746976652070726f787960a01b6064820152608490fd5b803b15610f875760008051602061109883398151915280546001600160a01b0319166001600160a01b03909216919091179055565b60405162461bcd60e51b815260206004820152602d60248201527f455243313936373a206e657720696d706c656d656e746174696f6e206973206e60448201526c1bdd08184818dbdb9d1c9858dd609a1b6064820152608490fd5b919290156110445750815115610ff6575090565b3b15610fff5790565b60405162461bcd60e51b815260206004820152601d60248201527f416464726573733a2063616c6c20746f206e6f6e2d636f6e74726163740000006044820152606490fd5b8251909150156110575750805190602001fd5b60405162461bcd60e51b81529081906110739060048301610d95565b0390fdfe46501879b8ca8525e8c2fd519e2fbfcfa2ebea26501294aa02cbfcfb12e94354360894a13ba1a3210667c828492db98dca3e2076cc3735a920a3ca505d382bbca26469706673582212205de0ab4176e94787c39e09bc024ac16d7c9152b1dca41a8dfefd902790bda68464736f6c63430008130033",
  "linkReferences": {},
  "deployedLinkReferences": {}
}