{"contracts/Engagr.sol":{"Engagr":{"abi":[{"anonymous":false,"inputs":[{"indexed":false,"internalType":"string","name":"adId","type":"string"},{"indexed":false,"internalType":"string","name":"promoterId","type":"string"},{"indexed":false,"internalType":"uint256","name":"payoutAmount","type":"uint256"}],"name":"AdPayout","type":"event"},{"anonymous":false,"inputs":[{"indexed":false,"internalType":"string","name":"id","type":"string"},{"indexed":false,"internalType":"string","name":"description","type":"string"},{"indexed":false,"internalType":"uint256","name":"amountAllocated","type":"uint256"},{"indexed":false,"internalType":"address","name":"tokenAddress","type":"address"}],"name":"AdSubmitted","type":"event"},{"anonymous":false,"inputs":[{"indexed":false,"internalType":"address","name":"previousAdmin","type":"address"},{"indexed":false,"internalType":"address","name":"newAdmin","type":"address"}],"name":"AdminChanged","type":"event"},{"anonymous":false,"inputs":[{"indexed":false,"internalType":"address","name":"promoterAddress","type":"address"},{"indexed":false,"internalType":"address","name":"tokenAddress","type":"address"},{"indexed":false,"internalType":"uint256","name":"amount","type":"uint256"}],"name":"BalanceClaimed","type":"event"},{"anonymous":false,"inputs":[{"indexed":true,"internalType":"address","name":"beacon","type":"address"}],"name":"BeaconUpgraded","type":"event"},{"anonymous":false,"inputs":[{"indexed":false,"internalType":"uint8","name":"version","type":"uint8"}],"name":"Initialized","type":"event"},{"anonymous":false,"inputs":[{"indexed":false,"internalType":"string","name":"id","type":"string"},{"indexed":false,"internalType":"address","name":"accountAddress","type":"address"}],"name":"MarketerRegistered","type":"event"},{"anonymous":false,"inputs":[{"indexed":true,"internalType":"address","name":"previousOwner","type":"address"},{"indexed":true,"internalType":"address","name":"newOwner","type":"address"}],"name":"OwnershipTransferred","type":"event"},{"anonymous":false,"inputs":[{"indexed":false,"internalType":"string","name":"id","type":"string"},{"indexed":false,"internalType":"string","name":"twitterUsername","type":"string"},{"indexed":false,"internalType":"address","name":"accountAddress","type":"address"}],"name":"PromoterRegistered","type":"event"},{"anonymous":false,"inputs":[{"indexed":true,"internalType":"address","name":"implementation","type":"address"}],"name":"Upgraded","type":"event"},{"inputs":[{"internalType":"string","name":"adId","type":"string"},{"internalType":"string","name":"promoterId","type":"string"},{"internalType":"uint256","name":"payoutAmount","type":"uint256"},{"internalType":"bytes","name":"attestationData","type":"bytes"}],"name":"adPayout","outputs":[],"stateMutability":"nonpayable","type":"function"},{"inputs":[{"internalType":"address","name":"","type":"address"}],"name":"addressToMarketers","outputs":[{"internalType":"string","name":"id","type":"string"},{"internalType":"address","name":"accountAddress","type":"address"}],"stateMutability":"view","type":"function"},{"inputs":[{"internalType":"address","name":"","type":"address"}],"name":"addressToPromoters","outputs":[{"internalType":"string","name":"id","type":"string"},{"internalType":"string","name":"twitterUsername","type":"string"},{"internalType":"address","name":"accountAddress","type":"address"},{"internalType":"uint256","name":"claimableBalanceNative","type":"uint256"}],"stateMutability":"view","type":"function"},{"inputs":[{"internalType":"address","name":"tokenAddress","type":"address"}],"name":"claimBalance","outputs":[],"stateMutability":"nonpayable","type":"function"},{"inputs":[{"internalType":"string","name":"","type":"string"}],"name":"idToAds","outputs":[{"internalType":"string","name":"id","type":"string"},{"internalType":"string","name":"description","type":"string"},{"internalType":"uint256","name":"amountAllocated","type":"uint256"},{"internalType":"address","name":"tokenAddress","type":"address"},{"internalType":"uint256","name":"endTimestamp","type":"uint256"},{"internalType":"uint256","name":"requiredFollowers","type":"uint256"},{"internalType":"uint256","name":"lockedAmount","type":"uint256"},{"internalType":"address","name":"marketerAddress","type":"address"}],"stateMutability":"view","type":"function"},{"inputs":[{"internalType":"string","name":"","type":"string"}],"name":"idToMarketers","outputs":[{"internalType":"string","name":"id","type":"string"},{"internalType":"address","name":"accountAddress","type":"address"}],"stateMutability":"view","type":"function"},{"inputs":[{"internalType":"string","name":"","type":"string"}],"name":"idToPromoters","outputs":[{"internalType":"string","name":"id","type":"string"},{"internalType":"string","name":"twitterUsername","type":"string"},{"internalType":"address","name":"accountAddress","type":"address"},{"internalType":"uint256","name":"claimableBalanceNative","type":"uint256"}],"stateMutability":"view","type":"function"},{"inputs":[],"name":"initialize","outputs":[],"stateMutability":"nonpayable","type":"function"},{"inputs":[],"name":"owner","outputs":[{"internalType":"address","name":"","type":"address"}],"stateMutability":"view","type":"function"},{"inputs":[],"name":"proxiableUUID","outputs":[{"internalType":"bytes32","name":"","type":"bytes32"}],"stateMutability":"view","type":"function"},{"inputs":[{"internalType":"string","name":"id","type":"string"},{"internalType":"address","name":"accountAddress","type":"address"},{"internalType":"string","name":"email","type":"string"}],"name":"registerMarketer","outputs":[],"stateMutability":"nonpayable","type":"function"},{"inputs":[{"internalType":"string","name":"id","type":"string"},{"internalType":"string","name":"twitterUsername","type":"string"},{"internalType":"address","name":"accountAddress","type":"address"}],"name":"registerPromoter","outputs":[],"stateMutability":"nonpayable","type":"function"},{"inputs":[],"name":"renounceOwnership","outputs":[],"stateMutability":"nonpayable","type":"function"},{"inputs":[{"internalType":"string","name":"adId","type":"string"},{"internalType":"string","name":"description","type":"string"},{"internalType":"uint256","name":"amountAllocated","type":"uint256"},{"internalType":"address","name":"tokenAddress","type":"address"},{"internalType":"uint256","name":"endTimestamp","type":"uint256"},{"internalType":"uint256","name":"requiredFollowers","type":"uint256"}],"name":"submitAd","outputs":[],"stateMutability":"payable","type":"function"},{"inputs":[{"internalType":"address","name":"newOwner","type":"address"}],"name":"transferOwnership","outputs":[],"stateMutability":"nonpayable","type":"function"},{"inputs":[{"internalType":"address","name":"newImplementation","type":"address"}],"name":"upgradeTo","outputs":[],"stateMutability":"nonpayable","type":"function"},{"inputs":[{"internalType":"address","name":"newImplementation","type":"address"},{"internalType":"bytes","name":"data","type":"bytes"}],"name":"upgradeToAndCall","outputs":[],"stateMutability":"payable","type":"function"},{"stateMutability":"payable","type":"receive"}],"devdoc":{"events":{"AdminChanged(address,address)":{"details":"Emitted when the admin account has changed."},"BeaconUpgraded(address)":{"details":"Emitted when the beacon is changed."},"Initialized(uint8)":{"details":"Triggered when the contract has been initialized or reinitialized."},"Upgraded(address)":{"details":"Emitted when the implementation is upgraded."}},"kind":"dev","methods":{"owner()":{"details":"Returns the address of the current owner."},"proxiableUUID()":{"details":"Implementation of the ERC1822 {proxiableUUID} function. This returns the storage slot used by the implementation. It is used to validate the implementation's compatibility when performing an upgrade. IMPORTANT: A proxy pointing at a proxiable contract should not be considered proxiable itself, because this risks bricking a proxy that upgrades to it, by delegating to itself until out of gas. Thus it is critical that this function revert if invoked through a proxy. This is guaranteed by the `notDelegated` modifier."},"renounceOwnership()":{"details":"Leaves the contract without owner. It will not be possible to call `onlyOwner` functions. Can only be called by the current owner. NOTE: Renouncing ownership will leave the contract without an owner, thereby disabling any functionality that is only available to the owner."},"transferOwnership(address)":{"details":"Transfers ownership of the contract to a new account (`newOwner`). Can only be called by the current owner."},"upgradeTo(address)":{"custom:oz-upgrades-unsafe-allow-reachable":"delegatecall","details":"Upgrade the implementation of the proxy to `newImplementation`. Calls {_authorizeUpgrade}. Emits an {Upgraded} event."},"upgradeToAndCall(address,bytes)":{"custom:oz-upgrades-unsafe-allow-reachable":"delegatecall","details":"Upgrade the implementation of the proxy to `newImplementation`, and subsequently execute the function call encoded in `data`. Calls {_authorizeUpgrade}. Emits an {Upgraded} event."}},"version":1},"evm":{"bytecode":{"linkReferences":{},"object":"60a080604052346100315730608052612480908161003782396080518181816114f1015281816115f001526118850152f35b600080fdfe6080604052600436101561001b575b361561001957600080fd5b005b60003560e01c80633659cfe6146118605780634f1ef286146115a257806352d1902d146114de5780635d6d07831461148e57806369ff159514610fcb578063715018a614610f6e5780637554cd8e14610f2b5780637d53fcdb14610e815780638114ffb514610bed5780638129fc1c14610ab757806382fd00d814610a555780638da5cb5b14610a2c578063b633e4cd146107e8578063c123fccc1461077c578063cbce2d08146104a1578063e1e7a31b1461016d5763f2fde38b0361000e5734610168576020366003190112610168576100f4611af0565b6100fc611da9565b6001600160a01b038116156101145761001990611e01565b60405162461bcd60e51b815260206004820152602660248201527f4f776e61626c653a206e6577206f776e657220697320746865207a65726f206160448201526564647265737360d01b6064820152608490fd5b600080fd5b34610168576060366003190112610168576001600160401b036004358181116101685761019e903690600401611cff565b6024356001600160a01b038116810361016857604435848111610168576101c9903690600401611cff565b50506040516101d781611b06565b6101e2368486611b78565b81526001600160a01b038216602082019081526040519091908486823760208186810160cb81520301902090518051908782116104155761022d826102278554611baf565b85612099565b602090601f83116001146104365760019392916000918361042b575b5050600019600383901b1c191690831b1781555b019060018060a01b039051166001600160601b0360a01b82541617905560405161028681611b06565b610291368486611b78565b81526001600160a01b0382166020808301829052600091825260ce90526040902081518051968711610415576102d1876102cb8454611baf565b84612099565b602090601f8811600114610388579680600193927f315c3f177661fc973209a9157c1c5f260966a86be500ea7a07a4d1746a55537e9960009261037d575b5050600019600383901b1c191690831b1781555b0190602060018060a01b03910151166001600160601b0360a01b82541617905561034e60c9546120ed565b60c9556103686040519384936040855260408501916120fc565b6001600160a01b0390911660208301520390a1005b01519050898061030f565b908260005260206000209160005b601f198a1681106103fd5750976001939284927f315c3f177661fc973209a9157c1c5f260966a86be500ea7a07a4d1746a55537e9a83601f198116106103e4575b505050811b018155610323565b015160001960f88460031b161c191690558980806103d7565b91926020600181928685015181550194019201610396565b634e487b7160e01b600052604160045260246000fd5b015190508980610249565b90601f198316918460005260206000209260005b8181106104895750916001959492918387959310610470575b505050811b01815561025d565b015160001960f88460031b161c19169055898080610463565b9293602060018192878601518155019501930161044a565b34610168576060366003190112610168576001600160401b03600435818111610168576104d2903690600401611cff565b602435838111610168576104ea903690600401611cff565b6044356001600160a01b0381811693918490036101685760405196858789378786810160cc81526020998a91030190209080871161041557610530876102cb8454611baf565b866000601f82116001146107165760009161070b575b508760011b906000198960031b1c19161782555b84116104155760019182820161057a866105748354611baf565b83612099565b6000601f871160011461067e577fe70c02aed729b96866839f1b309da67c8cbe805f84cadc4ee54e0947bc528aaa9a9593879593600393610668998594600091610673575b5060001989861b1c191688871b1781555b61061560028401916001600160601b0360a01b978d898554161784558d60005260cf8c5261060286604060002061211d565b8d60005260cf8c5260406000200161211d565b5416938960005260cf88526040600020946002860191825416179055015491015561064160ca546120ed565b60ca5561065b6040519788976060895260608901916120fc565b92868403908701526120fc565b9060408301520390a1005b90508701358f6105bf565b601f19871690826000528b6000209160005b8181106106f657509360039384937fe70c02aed729b96866839f1b309da67c8cbe805f84cadc4ee54e0947bc528aaa9e9997938b6106689c9a98106106de575b50508588811b0181556105d0565b8801356000198a871b60f8161c191690558e806106d0565b88830135845592870192918d01918d01610690565b90508801358a610546565b60008481528b812092508990601f198216905b8d8d838310610764575050501061074a575b5050600187811b01825561055a565b89013560001960038a901b60f8161c19169055898061073b565b8501358655600190950194938401938c935001610729565b34610168576107a2602061078f36611d2c565b8160405193828580945193849201611c8f565b810160cc8152030190206107b581611be9565b6107e46107c460018401611be9565b92600360018060a01b036002830154169101549060405194859485611d6a565b0390f35b346101685760208060031936011261016857610802611af0565b903360005260cf8152604060002060018060a01b033381600284015416036109db578316806108e6575060030180549182156108a25750600090556000808080843382f115610896577fe3e2ca11b8ffe7e2b181fb2301a542f91623298409487d2bf9ada172e124f507915b604080513381526001600160a01b03909216602083015281019190915280606081015b0390a1005b6040513d6000823e3d90fd5b6064906040519062461bcd60e51b82526004820152601b60248201527f4e6f20636c61696d61626c65206e61746976652062616c616e636500000000006044820152fd5b919290600401918060005282845260406000205492831561099657938160009582938752825285604081205560446040518097819363a9059cbb60e01b83523360048401528860248401525af1938415610896577fe3e2ca11b8ffe7e2b181fb2301a542f91623298409487d2bf9ada172e124f50794610968575b505061086e565b8161098792903d1061098f575b61097f8183611b3c565b8101906121f5565b508380610961565b503d610975565b60405162461bcd60e51b815260048101869052601a60248201527f4e6f20636c61696d61626c6520746f6b656e2062616c616e63650000000000006044820152606490fd5b60405162461bcd60e51b815260048101849052602360248201527f43616c6c6572206973206e6f74206120726567697374657265642070726f6d6f6044820152623a32b960e91b6064820152608490fd5b34610168576000366003190112610168576097546040516001600160a01b039091168152602090f35b34610168576020366003190112610168576001600160a01b0380610a77611af0565b1660005260cf60205260406000206107e4610a9182611be9565b916003610aa060018301611be9565b946002830154169101549060405194859485611d6a565b346101685760003660031901126101685760005460ff8160081c161590818092610be0575b8015610bc9575b15610b6d5760ff19811660011760005581610b5b575b50610b1460ff60005460081c16610b0f81612039565b612039565b610b1d33611e01565b610b2357005b61ff0019600054166000557f7f26b83ff96e1f2b6a682f133852f6798a09c465da95921460cefb3847402498602060405160018152a1005b61ffff19166101011760005581610af9565b60405162461bcd60e51b815260206004820152602e60248201527f496e697469616c697a61626c653a20636f6e747261637420697320616c72656160448201526d191e481a5b9a5d1a585b1a5e995960921b6064820152608490fd5b50303b158015610ae35750600160ff821614610ae3565b50600160ff821610610adc565b34610168576080366003190112610168576001600160401b0360043581811161016857610c1e903690600401611cff565b9060243583811161016857610c37903690600401611cff565b936044359060643590811161016857610c54903690600401611cff565b959092604051868682378087810160cd8152602092839103019020976006890190815496868810610e3c57610cf891610cea610cf0928b8d610cb389610ca58e8e8e6040519687958601988961220d565b03601f198101835282611b3c565b5190207f19457468657265756d205369676e6564204d6573736167653a0a333200000000600052601c52603c600020923691611b78565b90612363565b919091612249565b60078a01546001600160a01b039190821690821603610e015760405185858237838187810160cc815203019020918160028401541615610dc957868803978811610db3577fe15eee14f80c8f238b22b5c252d04bef10a3ac6e03c83c74f9071f4796c7dcf99a61089198600392550154168015600014610d9257506003915001610d8384825461223c565b90555b6040519586958661220d565b906004916000520190526040600020610dac84825461223c565b9055610d86565b634e487b7160e01b600052601160045260246000fd5b60405162461bcd60e51b815260048101859052601060248201526f24b73b30b634b210383937b6b7ba32b960811b6044820152606490fd5b60405162461bcd60e51b815260048101849052601360248201527224b73b30b634b21030ba3a32b9ba30ba34b7b760691b6044820152606490fd5b60405162461bcd60e51b815260048101859052601a60248201527f496e73756666696369656e74206c6f636b656420616d6f756e740000000000006044820152606490fd5b3461016857610efa610e97602061078f36611d2c565b810160cd815203019020610eaa81611be9565b90610eb760018201611be9565b60028201549160018060a01b0380600383015416600483015490610f08600585015493600760068701549601541695604051998a99610100808c528b0190611cb2565b9089820360208b0152611cb2565b9560408801526060870152608086015260a085015260c084015260e08301520390f35b3461016857610f3e602061078f36611d2c565b810160cb815203019020610f5181611be9565b906001808060a01b0391015416906107e460405192839283611cd7565b3461016857600036600319011261016857610f87611da9565b609780546001600160a01b031981169091556000906001600160a01b03167f8be0079c531659141344cd1fd0a4f28419497f9722a3daafe3b4186f6b6457e08280a3005b60c0366003190112610168576004356001600160401b03811161016857610ff6903690600401611cff565b906024356001600160401b03811161016857611016903690600401611cff565b909290606435906001600160a01b03821682036101685742608435111561143d576001600160a01b0382166114365760443534145b156113e55760405161010081018181106001600160401b0382111761041557604052611078368587611b78565b8152611085368388611b78565b602082015260443560408083018290526001600160a01b0385166060840152608435608084015260a43560a084015260c08301919091523360e0830152518486823760208186810160cd81520301902081518051906001600160401b0382116104155781906110fe826110f88654611baf565b86612099565b602090601f83116001146113795760009261136e575b50508160011b916000199060031b1c19161781555b60208201518051906001600160401b03821161041557819061115b826111526001870154611baf565b60018701612099565b602090601f83116001146112fc576000926112f1575b50508160011b916000199060031b1c19161760018201555b6040820151600282015560608201516003820180546001600160a01b03199081166001600160a01b03938416179091556080840151600484015560a0840151600584015560c0840151600684015560e09093015160079092018054909316918116919091179091558216611260575b7f4ccc654f5b0ae694b1b5be2208a8678537a665e4e1f3fcdd8caff59f68957c3294611243916112356040519687966080885260808801916120fc565b9185830360208701526120fc565b60443560408401526001600160a01b0390911660608301520390a1005b6040516323b872dd60e01b815233600482015230602482015260448035908201529460208660648160006001600160a01b0388165af1918215610896577f4ccc654f5b0ae694b1b5be2208a8678537a665e4e1f3fcdd8caff59f68957c3296611243936112d2575b50915094506111f8565b6112ea9060203d60201161098f5761097f8183611b3c565b50876112c8565b015190508980611171565b9250600184016000526020600020906000935b601f1984168510611353576001945083601f1981161061133a575b505050811b016001820155611189565b015160001960f88460031b161c1916905589808061132a565b8181015183556020948501946001909301929091019061130f565b015190508980611114565b9250836000526020600020906000935b601f19841685106113ca576001945083601f198116106113b1575b505050811b018155611129565b015160001960f88460031b161c191690558980806113a4565b81810151835560209485019460019093019290910190611389565b60405162461bcd60e51b815260206004820152602360248201527f4d69736d6174636820696e20746f6b656e20616e64206e617469766520616d6f6044820152621d5b9d60ea1b6064820152608490fd5b341561104b565b60405162461bcd60e51b815260206004820152602360248201527f456e642074696d657374616d70206d75737420626520696e207468652066757460448201526275726560e81b6064820152608490fd5b34610168576020366003190112610168576001600160a01b03806114b0611af0565b1660005260ce60205260406000209060016114ca83611be9565b92015416906107e460405192839283611cd7565b34610168576000366003190112610168577f00000000000000000000000000000000000000000000000000000000000000006001600160a01b0316300361153757602060405160008051602061242b8339815191528152f35b60405162461bcd60e51b815260206004820152603860248201527f555550535570677261646561626c653a206d757374206e6f742062652063616c60448201527f6c6564207468726f7567682064656c656761746563616c6c00000000000000006064820152608490fd5b6040366003190112610168576115b6611af0565b6024356001600160401b0381116101685736602382011215610168576115e6903690602481600401359101611b78565b6001600160a01b037f00000000000000000000000000000000000000000000000000000000000000008116919061161f30841415611e4a565b61163c60008051602061242b833981519152938285541614611eab565b611644611da9565b7f4910fdfa16fed3260ed0e7147f7cc6da11a60208b5b9406d12a635614ffd91435460ff161561167a5750505061001990611f0c565b8316604051926352d1902d60e01b84526020938481600481865afa60009181611831575b506116ff5760405162461bcd60e51b815260048101869052602e60248201527f45524331393637557067726164653a206e657720696d706c656d656e7461746960448201526d6f6e206973206e6f74205555505360901b6064820152608490fd5b939293036117da5761171084611f0c565b7fbc7cd75a20ee27fd9adebab32041f755214dbc6bffa90cc0225b39da2e5c2d3b600080a28151158015906117d2575b61174657005b610019926000806040519461175a86611b21565b602786527f416464726573733a206c6f772d6c6576656c2064656c65676174652063616c6c85870152660819985a5b195960ca1b60408701528481519101845af4903d156117c9573d6117ac81611b5d565b906117ba6040519283611b3c565b8152600081943d92013e611f9c565b60609250611f9c565b506001611740565b60405162461bcd60e51b815260048101839052602960248201527f45524331393637557067726164653a20756e737570706f727465642070726f786044820152681a58589b195555525160ba1b6064820152608490fd5b9091508581813d8311611859575b6118498183611b3c565b810103126101685751908761169e565b503d61183f565b34610168576020806003193601126101685761187a611af0565b6001600160a01b03917f000000000000000000000000000000000000000000000000000000000000000083166118b230821415611e4a565b6118cf60008051602061242b833981519152918583541614611eab565b6118d7611da9565b60405190828201948286106001600160401b0387111761041557856040526000835260ff7f4910fdfa16fed3260ed0e7147f7cc6da11a60208b5b9406d12a635614ffd9143541660001461193357505050506100199150611f0c565b8492939416906040516352d1902d60e01b81528581600481865afa60009181611ac1575b506119b85760405162461bcd60e51b815260048101879052602e60248201527f45524331393637557067726164653a206e657720696d706c656d656e7461746960448201526d6f6e206973206e6f74205555505360901b6064820152608490fd5b94939403611a6a576119c982611f0c565b7fbc7cd75a20ee27fd9adebab32041f755214dbc6bffa90cc0225b39da2e5c2d3b600080a2825115801590611a62575b6119ff57005b6000806100199560405195611a1387611b21565b602787527f416464726573733a206c6f772d6c6576656c2064656c65676174652063616c6c86880152660819985a5b195960ca1b60408801525190845af4903d156117c9573d6117ac81611b5d565b5060006119f9565b60405162461bcd60e51b815260048101849052602960248201527f45524331393637557067726164653a20756e737570706f727465642070726f786044820152681a58589b195555525160ba1b6064820152608490fd5b9091508681813d8311611ae9575b611ad98183611b3c565b8101031261016857519088611957565b503d611acf565b600435906001600160a01b038216820361016857565b604081019081106001600160401b0382111761041557604052565b606081019081106001600160401b0382111761041557604052565b90601f801991011681019081106001600160401b0382111761041557604052565b6001600160401b03811161041557601f01601f191660200190565b929192611b8482611b5d565b91611b926040519384611b3c565b829481845281830111610168578281602093846000960137010152565b90600182811c92168015611bdf575b6020831014611bc957565b634e487b7160e01b600052602260045260246000fd5b91607f1691611bbe565b9060405191826000825492611bfd84611baf565b908184526001948581169081600014611c6c5750600114611c29575b5050611c2792500383611b3c565b565b9093915060005260209081600020936000915b818310611c54575050611c2793508201013880611c19565b85548884018501529485019487945091830191611c3c565b915050611c2794506020925060ff191682840152151560051b8201013880611c19565b60005b838110611ca25750506000910152565b8181015183820152602001611c92565b90602091611ccb81518092818552858086019101611c8f565b601f01601f1916010190565b90611cef602091949394604084526040840190611cb2565b6001600160a01b03909416910152565b9181601f84011215610168578235916001600160401b038311610168576020838186019501011161016857565b602060031982011261016857600435906001600160401b038211610168578060238301121561016857816024611d6793600401359101611b78565b90565b90606092611d87611d959297969597608085526080850190611cb2565b908382036020850152611cb2565b6001600160a01b0390951660408201520152565b6097546001600160a01b03163303611dbd57565b606460405162461bcd60e51b815260206004820152602060248201527f4f776e61626c653a2063616c6c6572206973206e6f7420746865206f776e65726044820152fd5b609780546001600160a01b039283166001600160a01b0319821681179092559091167f8be0079c531659141344cd1fd0a4f28419497f9722a3daafe3b4186f6b6457e0600080a3565b15611e5157565b60405162461bcd60e51b815260206004820152602c60248201527f46756e6374696f6e206d7573742062652063616c6c6564207468726f7567682060448201526b19195b1959d85d1958d85b1b60a21b6064820152608490fd5b15611eb257565b60405162461bcd60e51b815260206004820152602c60248201527f46756e6374696f6e206d7573742062652063616c6c6564207468726f7567682060448201526b6163746976652070726f787960a01b6064820152608490fd5b803b15611f415760008051602061242b83398151915280546001600160a01b0319166001600160a01b03909216919091179055565b60405162461bcd60e51b815260206004820152602d60248201527f455243313936373a206e657720696d706c656d656e746174696f6e206973206e60448201526c1bdd08184818dbdb9d1c9858dd609a1b6064820152608490fd5b91929015611ffe5750815115611fb0575090565b3b15611fb95790565b60405162461bcd60e51b815260206004820152601d60248201527f416464726573733a2063616c6c20746f206e6f6e2d636f6e74726163740000006044820152606490fd5b8251909150156120115750805190602001fd5b60405162461bcd60e51b815260206004820152908190612035906024830190611cb2565b0390fd5b1561204057565b60405162461bcd60e51b815260206004820152602b60248201527f496e697469616c697a61626c653a20636f6e7472616374206973206e6f74206960448201526a6e697469616c697a696e6760a81b6064820152608490fd5b90601f81116120a757505050565b600091825260208220906020601f850160051c830194106120e3575b601f0160051c01915b8281106120d857505050565b8181556001016120cc565b90925082906120c3565b6000198114610db35760010190565b908060209392818452848401376000828201840152601f01601f1916010190565b908082146121f15761212f8154611baf565b906001600160401b03821161041557819061214e826110f88654611baf565b600090601f83116001146121855760009261217a575b50508160011b916000199060031b1c1916179055565b015490503880612164565b81526020808220858352818320935090601f1985169083905b8282106121d85750509084600195949392106121bf575b505050811b019055565b015460001960f88460031b161c191690553880806121b5565b849581929585015481556001809101960194019061219e565b5050565b90816020910312610168575180151581036101685790565b959493612229604094926122379460608a5260608a01916120fc565b9187830360208901526120fc565b930152565b91908201809211610db357565b600581101561234d578061225a5750565b600181036122a75760405162461bcd60e51b815260206004820152601860248201527f45434453413a20696e76616c6964207369676e617475726500000000000000006044820152606490fd5b600281036122f45760405162461bcd60e51b815260206004820152601f60248201527f45434453413a20696e76616c6964207369676e6174757265206c656e677468006044820152606490fd5b6003146122fd57565b60405162461bcd60e51b815260206004820152602260248201527f45434453413a20696e76616c6964207369676e6174757265202773272076616c604482015261756560f01b6064820152608490fd5b634e487b7160e01b600052602160045260246000fd5b9060418151146000146123915761238d916020820151906060604084015193015160001a9061239b565b9091565b5050600090600290565b9291907f7fffffffffffffffffffffffffffffff5d576e7357a4501ddfe92f46681b20a0831161241e5791608094939160ff602094604051948552168484015260408301526060820152600093849182805260015afa156124115781516001600160a01b0381161561240b579190565b50600190565b50604051903d90823e3d90fd5b5050505060009060039056fe360894a13ba1a3210667c828492db98dca3e2076cc3735a920a3ca505d382bbca264697066735822122038d08018fb6585172002c956696a2173c533f07b6bbce61f18f4c1194cd7301d64736f6c63430008130033","opcodes":"PUSH1 0xA0 DUP1 PUSH1 0x40 MSTORE CALLVALUE PUSH2 0x31 JUMPI ADDRESS PUSH1 0x80 MSTORE PUSH2 0x2480 SWAP1 DUP2 PUSH2 0x37 DUP3 CODECOPY PUSH1 0x80 MLOAD DUP2 DUP2 DUP2 PUSH2 0x14F1 ADD MSTORE DUP2 DUP2 PUSH2 0x15F0 ADD MSTORE PUSH2 0x1885 ADD MSTORE RETURN JUMPDEST PUSH1 0x0 DUP1 REVERT INVALID PUSH1 0x80 PUSH1 0x40 MSTORE PUSH1 0x4 CALLDATASIZE LT ISZERO PUSH2 0x1B JUMPI JUMPDEST CALLDATASIZE ISZERO PUSH2 0x19 JUMPI PUSH1 0x0 DUP1 REVERT JUMPDEST STOP JUMPDEST PUSH1 0x0 CALLDATALOAD PUSH1 0xE0 SHR DUP1 PUSH4 0x3659CFE6 EQ PUSH2 0x1860 JUMPI DUP1 PUSH4 0x4F1EF286 EQ PUSH2 0x15A2 JUMPI DUP1 PUSH4 0x52D1902D EQ PUSH2 0x14DE JUMPI DUP1 PUSH4 0x5D6D0783 EQ PUSH2 0x148E JUMPI DUP1 PUSH4 0x69FF1595 EQ PUSH2 0xFCB JUMPI DUP1 PUSH4 0x715018A6 EQ PUSH2 0xF6E JUMPI DUP1 PUSH4 0x7554CD8E EQ PUSH2 0xF2B JUMPI DUP1 PUSH4 0x7D53FCDB EQ PUSH2 0xE81 JUMPI DUP1 PUSH4 0x8114FFB5 EQ PUSH2 0xBED JUMPI DUP1 PUSH4 0x8129FC1C EQ PUSH2 0xAB7 JUMPI DUP1 PUSH4 0x82FD00D8 EQ PUSH2 0xA55 JUMPI DUP1 PUSH4 0x8DA5CB5B EQ PUSH2 0xA2C JUMPI DUP1 PUSH4 0xB633E4CD EQ PUSH2 0x7E8 JUMPI DUP1 PUSH4 0xC123FCCC EQ PUSH2 0x77C JUMPI DUP1 PUSH4 0xCBCE2D08 EQ PUSH2 0x4A1 JUMPI DUP1 PUSH4 0xE1E7A31B EQ PUSH2 0x16D JUMPI PUSH4 0xF2FDE38B SUB PUSH2 0xE JUMPI CALLVALUE PUSH2 0x168 JUMPI PUSH1 0x20 CALLDATASIZE PUSH1 0x3 NOT ADD SLT PUSH2 0x168 JUMPI PUSH2 0xF4 PUSH2 0x1AF0 JUMP JUMPDEST PUSH2 0xFC PUSH2 0x1DA9 JUMP JUMPDEST PUSH1 0x1 PUSH1 0x1 PUSH1 0xA0 SHL SUB DUP2 AND ISZERO PUSH2 0x114 JUMPI PUSH2 0x19 SWAP1 PUSH2 0x1E01 JUMP JUMPDEST PUSH1 0x40 MLOAD PUSH3 0x461BCD PUSH1 0xE5 SHL DUP2 MSTORE PUSH1 0x20 PUSH1 0x4 DUP3 ADD MSTORE PUSH1 0x26 PUSH1 0x24 DUP3 ADD MSTORE PUSH32 0x4F776E61626C653A206E6577206F776E657220697320746865207A65726F2061 PUSH1 0x44 DUP3 ADD MSTORE PUSH6 0x646472657373 PUSH1 0xD0 SHL PUSH1 0x64 DUP3 ADD MSTORE PUSH1 0x84 SWAP1 REVERT JUMPDEST PUSH1 0x0 DUP1 REVERT JUMPDEST CALLVALUE PUSH2 0x168 JUMPI PUSH1 0x60 CALLDATASIZE PUSH1 0x3 NOT ADD SLT PUSH2 0x168 JUMPI PUSH1 0x1 PUSH1 0x1 PUSH1 0x40 SHL SUB PUSH1 0x4 CALLDATALOAD DUP2 DUP2 GT PUSH2 0x168 JUMPI PUSH2 0x19E SWAP1 CALLDATASIZE SWAP1 PUSH1 0x4 ADD PUSH2 0x1CFF JUMP JUMPDEST PUSH1 0x24 CALLDATALOAD PUSH1 0x1 PUSH1 0x1 PUSH1 0xA0 SHL SUB DUP2 AND DUP2 SUB PUSH2 0x168 JUMPI PUSH1 0x44 CALLDATALOAD DUP5 DUP2 GT PUSH2 0x168 JUMPI PUSH2 0x1C9 SWAP1 CALLDATASIZE SWAP1 PUSH1 0x4 ADD PUSH2 0x1CFF JUMP JUMPDEST POP POP PUSH1 0x40 MLOAD PUSH2 0x1D7 DUP2 PUSH2 0x1B06 JUMP JUMPDEST PUSH2 0x1E2 CALLDATASIZE DUP5 DUP7 PUSH2 0x1B78 JUMP JUMPDEST DUP2 MSTORE PUSH1 0x1 PUSH1 0x1 PUSH1 0xA0 SHL SUB DUP3 AND PUSH1 0x20 DUP3 ADD SWAP1 DUP2 MSTORE PUSH1 0x40 MLOAD SWAP1 SWAP2 SWAP1 DUP5 DUP7 DUP3 CALLDATACOPY PUSH1 0x20 DUP2 DUP7 DUP2 ADD PUSH1 0xCB DUP2 MSTORE SUB ADD SWAP1 KECCAK256 SWAP1 MLOAD DUP1 MLOAD SWAP1 DUP8 DUP3 GT PUSH2 0x415 JUMPI PUSH2 0x22D DUP3 PUSH2 0x227 DUP6 SLOAD PUSH2 0x1BAF JUMP JUMPDEST DUP6 PUSH2 0x2099 JUMP JUMPDEST PUSH1 0x20 SWAP1 PUSH1 0x1F DUP4 GT PUSH1 0x1 EQ PUSH2 0x436 JUMPI PUSH1 0x1 SWAP4 SWAP3 SWAP2 PUSH1 0x0 SWAP2 DUP4 PUSH2 0x42B JUMPI JUMPDEST POP POP PUSH1 0x0 NOT PUSH1 0x3 DUP4 SWAP1 SHL SHR NOT AND SWAP1 DUP4 SHL OR DUP2 SSTORE JUMPDEST ADD SWAP1 PUSH1 0x1 DUP1 PUSH1 0xA0 SHL SUB SWAP1 MLOAD AND PUSH1 0x1 PUSH1 0x1 PUSH1 0x60 SHL SUB PUSH1 0xA0 SHL DUP3 SLOAD AND OR SWAP1 SSTORE PUSH1 0x40 MLOAD PUSH2 0x286 DUP2 PUSH2 0x1B06 JUMP JUMPDEST PUSH2 0x291 CALLDATASIZE DUP5 DUP7 PUSH2 0x1B78 JUMP JUMPDEST DUP2 MSTORE PUSH1 0x1 PUSH1 0x1 PUSH1 0xA0 SHL SUB DUP3 AND PUSH1 0x20 DUP1 DUP4 ADD DUP3 SWAP1 MSTORE PUSH1 0x0 SWAP2 DUP3 MSTORE PUSH1 0xCE SWAP1 MSTORE PUSH1 0x40 SWAP1 KECCAK256 DUP2 MLOAD DUP1 MLOAD SWAP7 DUP8 GT PUSH2 0x415 JUMPI PUSH2 0x2D1 DUP8 PUSH2 0x2CB DUP5 SLOAD PUSH2 0x1BAF JUMP JUMPDEST DUP5 PUSH2 0x2099 JUMP JUMPDEST PUSH1 0x20 SWAP1 PUSH1 0x1F DUP9 GT PUSH1 0x1 EQ PUSH2 0x388 JUMPI SWAP7 DUP1 PUSH1 0x1 SWAP4 SWAP3 PUSH32 0x315C3F177661FC973209A9157C1C5F260966A86BE500EA7A07A4D1746A55537E SWAP10 PUSH1 0x0 SWAP3 PUSH2 0x37D JUMPI JUMPDEST POP POP PUSH1 0x0 NOT PUSH1 0x3 DUP4 SWAP1 SHL SHR NOT AND SWAP1 DUP4 SHL OR DUP2 SSTORE JUMPDEST ADD SWAP1 PUSH1 0x20 PUSH1 0x1 DUP1 PUSH1 0xA0 SHL SUB SWAP2 ADD MLOAD AND PUSH1 0x1 PUSH1 0x1 PUSH1 0x60 SHL SUB PUSH1 0xA0 SHL DUP3 SLOAD AND OR SWAP1 SSTORE PUSH2 0x34E PUSH1 0xC9 SLOAD PUSH2 0x20ED JUMP JUMPDEST PUSH1 0xC9 SSTORE PUSH2 0x368 PUSH1 0x40 MLOAD SWAP4 DUP5 SWAP4 PUSH1 0x40 DUP6 MSTORE PUSH1 0x40 DUP6 ADD SWAP2 PUSH2 0x20FC JUMP JUMPDEST PUSH1 0x1 PUSH1 0x1 PUSH1 0xA0 SHL SUB SWAP1 SWAP2 AND PUSH1 0x20 DUP4 ADD MSTORE SUB SWAP1 LOG1 STOP JUMPDEST ADD MLOAD SWAP1 POP DUP10 DUP1 PUSH2 0x30F JUMP JUMPDEST SWAP1 DUP3 PUSH1 0x0 MSTORE PUSH1 0x20 PUSH1 0x0 KECCAK256 SWAP2 PUSH1 0x0 JUMPDEST PUSH1 0x1F NOT DUP11 AND DUP2 LT PUSH2 0x3FD JUMPI POP SWAP8 PUSH1 0x1 SWAP4 SWAP3 DUP5 SWAP3 PUSH32 0x315C3F177661FC973209A9157C1C5F260966A86BE500EA7A07A4D1746A55537E SWAP11 DUP4 PUSH1 0x1F NOT DUP2 AND LT PUSH2 0x3E4 JUMPI JUMPDEST POP POP POP DUP2 SHL ADD DUP2 SSTORE PUSH2 0x323 JUMP JUMPDEST ADD MLOAD PUSH1 0x0 NOT PUSH1 0xF8 DUP5 PUSH1 0x3 SHL AND SHR NOT AND SWAP1 SSTORE DUP10 DUP1 DUP1 PUSH2 0x3D7 JUMP JUMPDEST SWAP2 SWAP3 PUSH1 0x20 PUSH1 0x1 DUP2 SWAP3 DUP7 DUP6 ADD MLOAD DUP2 SSTORE ADD SWAP5 ADD SWAP3 ADD PUSH2 0x396 JUMP JUMPDEST PUSH4 0x4E487B71 PUSH1 0xE0 SHL PUSH1 0x0 MSTORE PUSH1 0x41 PUSH1 0x4 MSTORE PUSH1 0x24 PUSH1 0x0 REVERT JUMPDEST ADD MLOAD SWAP1 POP DUP10 DUP1 PUSH2 0x249 JUMP JUMPDEST SWAP1 PUSH1 0x1F NOT DUP4 AND SWAP2 DUP5 PUSH1 0x0 MSTORE PUSH1 0x20 PUSH1 0x0 KECCAK256 SWAP3 PUSH1 0x0 JUMPDEST DUP2 DUP2 LT PUSH2 0x489 JUMPI POP SWAP2 PUSH1 0x1 SWAP6 SWAP5 SWAP3 SWAP2 DUP4 DUP8 SWAP6 SWAP4 LT PUSH2 0x470 JUMPI JUMPDEST POP POP POP DUP2 SHL ADD DUP2 SSTORE PUSH2 0x25D JUMP JUMPDEST ADD MLOAD PUSH1 0x0 NOT PUSH1 0xF8 DUP5 PUSH1 0x3 SHL AND SHR NOT AND SWAP1 SSTORE DUP10 DUP1 DUP1 PUSH2 0x463 JUMP JUMPDEST SWAP3 SWAP4 PUSH1 0x20 PUSH1 0x1 DUP2 SWAP3 DUP8 DUP7 ADD MLOAD DUP2 SSTORE ADD SWAP6 ADD SWAP4 ADD PUSH2 0x44A JUMP JUMPDEST CALLVALUE PUSH2 0x168 JUMPI PUSH1 0x60 CALLDATASIZE PUSH1 0x3 NOT ADD SLT PUSH2 0x168 JUMPI PUSH1 0x1 PUSH1 0x1 PUSH1 0x40 SHL SUB PUSH1 0x4 CALLDATALOAD DUP2 DUP2 GT PUSH2 0x168 JUMPI PUSH2 0x4D2 SWAP1 CALLDATASIZE SWAP1 PUSH1 0x4 ADD PUSH2 0x1CFF JUMP JUMPDEST PUSH1 0x24 CALLDATALOAD DUP4 DUP2 GT PUSH2 0x168 JUMPI PUSH2 0x4EA SWAP1 CALLDATASIZE SWAP1 PUSH1 0x4 ADD PUSH2 0x1CFF JUMP JUMPDEST PUSH1 0x44 CALLDATALOAD PUSH1 0x1 PUSH1 0x1 PUSH1 0xA0 SHL SUB DUP2 DUP2 AND SWAP4 SWAP2 DUP5 SWAP1 SUB PUSH2 0x168 JUMPI PUSH1 0x40 MLOAD SWAP7 DUP6 DUP8 DUP10 CALLDATACOPY DUP8 DUP7 DUP2 ADD PUSH1 0xCC DUP2 MSTORE PUSH1 0x20 SWAP10 DUP11 SWAP2 SUB ADD SWAP1 KECCAK256 SWAP1 DUP1 DUP8 GT PUSH2 0x415 JUMPI PUSH2 0x530 DUP8 PUSH2 0x2CB DUP5 SLOAD PUSH2 0x1BAF JUMP JUMPDEST DUP7 PUSH1 0x0 PUSH1 0x1F DUP3 GT PUSH1 0x1 EQ PUSH2 0x716 JUMPI PUSH1 0x0 SWAP2 PUSH2 0x70B JUMPI JUMPDEST POP DUP8 PUSH1 0x1 SHL SWAP1 PUSH1 0x0 NOT DUP10 PUSH1 0x3 SHL SHR NOT AND OR DUP3 SSTORE JUMPDEST DUP5 GT PUSH2 0x415 JUMPI PUSH1 0x1 SWAP2 DUP3 DUP3 ADD PUSH2 0x57A DUP7 PUSH2 0x574 DUP4 SLOAD PUSH2 0x1BAF JUMP JUMPDEST DUP4 PUSH2 0x2099 JUMP JUMPDEST PUSH1 0x0 PUSH1 0x1F DUP8 GT PUSH1 0x1 EQ PUSH2 0x67E JUMPI PUSH32 0xE70C02AED729B96866839F1B309DA67C8CBE805F84CADC4EE54E0947BC528AAA SWAP11 SWAP6 SWAP4 DUP8 SWAP6 SWAP4 PUSH1 0x3 SWAP4 PUSH2 0x668 SWAP10 DUP6 SWAP5 PUSH1 0x0 SWAP2 PUSH2 0x673 JUMPI JUMPDEST POP PUSH1 0x0 NOT DUP10 DUP7 SHL SHR NOT AND DUP9 DUP8 SHL OR DUP2 SSTORE JUMPDEST PUSH2 0x615 PUSH1 0x2 DUP5 ADD SWAP2 PUSH1 0x1 PUSH1 0x1 PUSH1 0x60 SHL SUB PUSH1 0xA0 SHL SWAP8 DUP14 DUP10 DUP6 SLOAD AND OR DUP5 SSTORE DUP14 PUSH1 0x0 MSTORE PUSH1 0xCF DUP13 MSTORE PUSH2 0x602 DUP7 PUSH1 0x40 PUSH1 0x0 KECCAK256 PUSH2 0x211D JUMP JUMPDEST DUP14 PUSH1 0x0 MSTORE PUSH1 0xCF DUP13 MSTORE PUSH1 0x40 PUSH1 0x0 KECCAK256 ADD PUSH2 0x211D JUMP JUMPDEST SLOAD AND SWAP4 DUP10 PUSH1 0x0 MSTORE PUSH1 0xCF DUP9 MSTORE PUSH1 0x40 PUSH1 0x0 KECCAK256 SWAP5 PUSH1 0x2 DUP7 ADD SWAP2 DUP3 SLOAD AND OR SWAP1 SSTORE ADD SLOAD SWAP2 ADD SSTORE PUSH2 0x641 PUSH1 0xCA SLOAD PUSH2 0x20ED JUMP JUMPDEST PUSH1 0xCA SSTORE PUSH2 0x65B PUSH1 0x40 MLOAD SWAP8 DUP9 SWAP8 PUSH1 0x60 DUP10 MSTORE PUSH1 0x60 DUP10 ADD SWAP2 PUSH2 0x20FC JUMP JUMPDEST SWAP3 DUP7 DUP5 SUB SWAP1 DUP8 ADD MSTORE PUSH2 0x20FC JUMP JUMPDEST SWAP1 PUSH1 0x40 DUP4 ADD MSTORE SUB SWAP1 LOG1 STOP JUMPDEST SWAP1 POP DUP8 ADD CALLDATALOAD DUP16 PUSH2 0x5BF JUMP JUMPDEST PUSH1 0x1F NOT DUP8 AND SWAP1 DUP3 PUSH1 0x0 MSTORE DUP12 PUSH1 0x0 KECCAK256 SWAP2 PUSH1 0x0 JUMPDEST DUP2 DUP2 LT PUSH2 0x6F6 JUMPI POP SWAP4 PUSH1 0x3 SWAP4 DUP5 SWAP4 PUSH32 0xE70C02AED729B96866839F1B309DA67C8CBE805F84CADC4EE54E0947BC528AAA SWAP15 SWAP10 SWAP8 SWAP4 DUP12 PUSH2 0x668 SWAP13 SWAP11 SWAP9 LT PUSH2 0x6DE JUMPI JUMPDEST POP POP DUP6 DUP9 DUP2 SHL ADD DUP2 SSTORE PUSH2 0x5D0 JUMP JUMPDEST DUP9 ADD CALLDATALOAD PUSH1 0x0 NOT DUP11 DUP8 SHL PUSH1 0xF8 AND SHR NOT AND SWAP1 SSTORE DUP15 DUP1 PUSH2 0x6D0 JUMP JUMPDEST DUP9 DUP4 ADD CALLDATALOAD DUP5 SSTORE SWAP3 DUP8 ADD SWAP3 SWAP2 DUP14 ADD SWAP2 DUP14 ADD PUSH2 0x690 JUMP JUMPDEST SWAP1 POP DUP9 ADD CALLDATALOAD DUP11 PUSH2 0x546 JUMP JUMPDEST PUSH1 0x0 DUP5 DUP2 MSTORE DUP12 DUP2 KECCAK256 SWAP3 POP DUP10 SWAP1 PUSH1 0x1F NOT DUP3 AND SWAP1 JUMPDEST DUP14 DUP14 DUP4 DUP4 LT PUSH2 0x764 JUMPI POP POP POP LT PUSH2 0x74A JUMPI JUMPDEST POP POP PUSH1 0x1 DUP8 DUP2 SHL ADD DUP3 SSTORE PUSH2 0x55A JUMP JUMPDEST DUP10 ADD CALLDATALOAD PUSH1 0x0 NOT PUSH1 0x3 DUP11 SWAP1 SHL PUSH1 0xF8 AND SHR NOT AND SWAP1 SSTORE DUP10 DUP1 PUSH2 0x73B JUMP JUMPDEST DUP6 ADD CALLDATALOAD DUP7 SSTORE PUSH1 0x1 SWAP1 SWAP6 ADD SWAP5 SWAP4 DUP5 ADD SWAP4 DUP13 SWAP4 POP ADD PUSH2 0x729 JUMP JUMPDEST CALLVALUE PUSH2 0x168 JUMPI PUSH2 0x7A2 PUSH1 0x20 PUSH2 0x78F CALLDATASIZE PUSH2 0x1D2C JUMP JUMPDEST DUP2 PUSH1 0x40 MLOAD SWAP4 DUP3 DUP6 DUP1 SWAP5 MLOAD SWAP4 DUP5 SWAP3 ADD PUSH2 0x1C8F JUMP JUMPDEST DUP2 ADD PUSH1 0xCC DUP2 MSTORE SUB ADD SWAP1 KECCAK256 PUSH2 0x7B5 DUP2 PUSH2 0x1BE9 JUMP JUMPDEST PUSH2 0x7E4 PUSH2 0x7C4 PUSH1 0x1 DUP5 ADD PUSH2 0x1BE9 JUMP JUMPDEST SWAP3 PUSH1 0x3 PUSH1 0x1 DUP1 PUSH1 0xA0 SHL SUB PUSH1 0x2 DUP4 ADD SLOAD AND SWAP2 ADD SLOAD SWAP1 PUSH1 0x40 MLOAD SWAP5 DUP6 SWAP5 DUP6 PUSH2 0x1D6A JUMP JUMPDEST SUB SWAP1 RETURN JUMPDEST CALLVALUE PUSH2 0x168 JUMPI PUSH1 0x20 DUP1 PUSH1 0x3 NOT CALLDATASIZE ADD SLT PUSH2 0x168 JUMPI PUSH2 0x802 PUSH2 0x1AF0 JUMP JUMPDEST SWAP1 CALLER PUSH1 0x0 MSTORE PUSH1 0xCF DUP2 MSTORE PUSH1 0x40 PUSH1 0x0 KECCAK256 PUSH1 0x1 DUP1 PUSH1 0xA0 SHL SUB CALLER DUP2 PUSH1 0x2 DUP5 ADD SLOAD AND SUB PUSH2 0x9DB JUMPI DUP4 AND DUP1 PUSH2 0x8E6 JUMPI POP PUSH1 0x3 ADD DUP1 SLOAD SWAP2 DUP3 ISZERO PUSH2 0x8A2 JUMPI POP PUSH1 0x0 SWAP1 SSTORE PUSH1 0x0 DUP1 DUP1 DUP1 DUP5 CALLER DUP3 CALL ISZERO PUSH2 0x896 JUMPI PUSH32 0xE3E2CA11B8FFE7E2B181FB2301A542F91623298409487D2BF9ADA172E124F507 SWAP2 JUMPDEST PUSH1 0x40 DUP1 MLOAD CALLER DUP2 MSTORE PUSH1 0x1 PUSH1 0x1 PUSH1 0xA0 SHL SUB SWAP1 SWAP3 AND PUSH1 0x20 DUP4 ADD MSTORE DUP2 ADD SWAP2 SWAP1 SWAP2 MSTORE DUP1 PUSH1 0x60 DUP2 ADD JUMPDEST SUB SWAP1 LOG1 STOP JUMPDEST PUSH1 0x40 MLOAD RETURNDATASIZE PUSH1 0x0 DUP3 RETURNDATACOPY RETURNDATASIZE SWAP1 REVERT JUMPDEST PUSH1 0x64 SWAP1 PUSH1 0x40 MLOAD SWAP1 PUSH3 0x461BCD PUSH1 0xE5 SHL DUP3 MSTORE PUSH1 0x4 DUP3 ADD MSTORE PUSH1 0x1B PUSH1 0x24 DUP3 ADD MSTORE PUSH32 0x4E6F20636C61696D61626C65206E61746976652062616C616E63650000000000 PUSH1 0x44 DUP3 ADD MSTORE REVERT JUMPDEST SWAP2 SWAP3 SWAP1 PUSH1 0x4 ADD SWAP2 DUP1 PUSH1 0x0 MSTORE DUP3 DUP5 MSTORE PUSH1 0x40 PUSH1 0x0 KECCAK256 SLOAD SWAP3 DUP4 ISZERO PUSH2 0x996 JUMPI SWAP4 DUP2 PUSH1 0x0 SWAP6 DUP3 SWAP4 DUP8 MSTORE DUP3 MSTORE DUP6 PUSH1 0x40 DUP2 KECCAK256 SSTORE PUSH1 0x44 PUSH1 0x40 MLOAD DUP1 SWAP8 DUP2 SWAP4 PUSH4 0xA9059CBB PUSH1 0xE0 SHL DUP4 MSTORE CALLER PUSH1 0x4 DUP5 ADD MSTORE DUP9 PUSH1 0x24 DUP5 ADD MSTORE GAS CALL SWAP4 DUP5 ISZERO PUSH2 0x896 JUMPI PUSH32 0xE3E2CA11B8FFE7E2B181FB2301A542F91623298409487D2BF9ADA172E124F507 SWAP5 PUSH2 0x968 JUMPI JUMPDEST POP POP PUSH2 0x86E JUMP JUMPDEST DUP2 PUSH2 0x987 SWAP3 SWAP1 RETURNDATASIZE LT PUSH2 0x98F JUMPI JUMPDEST PUSH2 0x97F DUP2 DUP4 PUSH2 0x1B3C JUMP JUMPDEST DUP2 ADD SWAP1 PUSH2 0x21F5 JUMP JUMPDEST POP DUP4 DUP1 PUSH2 0x961 JUMP JUMPDEST POP RETURNDATASIZE PUSH2 0x975 JUMP JUMPDEST PUSH1 0x40 MLOAD PUSH3 0x461BCD PUSH1 0xE5 SHL DUP2 MSTORE PUSH1 0x4 DUP2 ADD DUP7 SWAP1 MSTORE PUSH1 0x1A PUSH1 0x24 DUP3 ADD MSTORE PUSH32 0x4E6F20636C61696D61626C6520746F6B656E2062616C616E6365000000000000 PUSH1 0x44 DUP3 ADD MSTORE PUSH1 0x64 SWAP1 REVERT JUMPDEST PUSH1 0x40 MLOAD PUSH3 0x461BCD PUSH1 0xE5 SHL DUP2 MSTORE PUSH1 0x4 DUP2 ADD DUP5 SWAP1 MSTORE PUSH1 0x23 PUSH1 0x24 DUP3 ADD MSTORE PUSH32 0x43616C6C6572206973206E6F74206120726567697374657265642070726F6D6F PUSH1 0x44 DUP3 ADD MSTORE PUSH3 0x3A32B9 PUSH1 0xE9 SHL PUSH1 0x64 DUP3 ADD MSTORE PUSH1 0x84 SWAP1 REVERT JUMPDEST CALLVALUE PUSH2 0x168 JUMPI PUSH1 0x0 CALLDATASIZE PUSH1 0x3 NOT ADD SLT PUSH2 0x168 JUMPI PUSH1 0x97 SLOAD PUSH1 0x40 MLOAD PUSH1 0x1 PUSH1 0x1 PUSH1 0xA0 SHL SUB SWAP1 SWAP2 AND DUP2 MSTORE PUSH1 0x20 SWAP1 RETURN JUMPDEST CALLVALUE PUSH2 0x168 JUMPI PUSH1 0x20 CALLDATASIZE PUSH1 0x3 NOT ADD SLT PUSH2 0x168 JUMPI PUSH1 0x1 PUSH1 0x1 PUSH1 0xA0 SHL SUB DUP1 PUSH2 0xA77 PUSH2 0x1AF0 JUMP JUMPDEST AND PUSH1 0x0 MSTORE PUSH1 0xCF PUSH1 0x20 MSTORE PUSH1 0x40 PUSH1 0x0 KECCAK256 PUSH2 0x7E4 PUSH2 0xA91 DUP3 PUSH2 0x1BE9 JUMP JUMPDEST SWAP2 PUSH1 0x3 PUSH2 0xAA0 PUSH1 0x1 DUP4 ADD PUSH2 0x1BE9 JUMP JUMPDEST SWAP5 PUSH1 0x2 DUP4 ADD SLOAD AND SWAP2 ADD SLOAD SWAP1 PUSH1 0x40 MLOAD SWAP5 DUP6 SWAP5 DUP6 PUSH2 0x1D6A JUMP JUMPDEST CALLVALUE PUSH2 0x168 JUMPI PUSH1 0x0 CALLDATASIZE PUSH1 0x3 NOT ADD SLT PUSH2 0x168 JUMPI PUSH1 0x0 SLOAD PUSH1 0xFF DUP2 PUSH1 0x8 SHR AND ISZERO SWAP1 DUP2 DUP1 SWAP3 PUSH2 0xBE0 JUMPI JUMPDEST DUP1 ISZERO PUSH2 0xBC9 JUMPI JUMPDEST ISZERO PUSH2 0xB6D JUMPI PUSH1 0xFF NOT DUP2 AND PUSH1 0x1 OR PUSH1 0x0 SSTORE DUP2 PUSH2 0xB5B JUMPI JUMPDEST POP PUSH2 0xB14 PUSH1 0xFF PUSH1 0x0 SLOAD PUSH1 0x8 SHR AND PUSH2 0xB0F DUP2 PUSH2 0x2039 JUMP JUMPDEST PUSH2 0x2039 JUMP JUMPDEST PUSH2 0xB1D CALLER PUSH2 0x1E01 JUMP JUMPDEST PUSH2 0xB23 JUMPI STOP JUMPDEST PUSH2 0xFF00 NOT PUSH1 0x0 SLOAD AND PUSH1 0x0 SSTORE PUSH32 0x7F26B83FF96E1F2B6A682F133852F6798A09C465DA95921460CEFB3847402498 PUSH1 0x20 PUSH1 0x40 MLOAD PUSH1 0x1 DUP2 MSTORE LOG1 STOP JUMPDEST PUSH2 0xFFFF NOT AND PUSH2 0x101 OR PUSH1 0x0 SSTORE DUP2 PUSH2 0xAF9 JUMP JUMPDEST PUSH1 0x40 MLOAD PUSH3 0x461BCD PUSH1 0xE5 SHL DUP2 MSTORE PUSH1 0x20 PUSH1 0x4 DUP3 ADD MSTORE PUSH1 0x2E PUSH1 0x24 DUP3 ADD MSTORE PUSH32 0x496E697469616C697A61626C653A20636F6E747261637420697320616C726561 PUSH1 0x44 DUP3 ADD MSTORE PUSH14 0x191E481A5B9A5D1A585B1A5E9959 PUSH1 0x92 SHL PUSH1 0x64 DUP3 ADD MSTORE PUSH1 0x84 SWAP1 REVERT JUMPDEST POP ADDRESS EXTCODESIZE ISZERO DUP1 ISZERO PUSH2 0xAE3 JUMPI POP PUSH1 0x1 PUSH1 0xFF DUP3 AND EQ PUSH2 0xAE3 JUMP JUMPDEST POP PUSH1 0x1 PUSH1 0xFF DUP3 AND LT PUSH2 0xADC JUMP JUMPDEST CALLVALUE PUSH2 0x168 JUMPI PUSH1 0x80 CALLDATASIZE PUSH1 0x3 NOT ADD SLT PUSH2 0x168 JUMPI PUSH1 0x1 PUSH1 0x1 PUSH1 0x40 SHL SUB PUSH1 0x4 CALLDATALOAD DUP2 DUP2 GT PUSH2 0x168 JUMPI PUSH2 0xC1E SWAP1 CALLDATASIZE SWAP1 PUSH1 0x4 ADD PUSH2 0x1CFF JUMP JUMPDEST SWAP1 PUSH1 0x24 CALLDATALOAD DUP4 DUP2 GT PUSH2 0x168 JUMPI PUSH2 0xC37 SWAP1 CALLDATASIZE SWAP1 PUSH1 0x4 ADD PUSH2 0x1CFF JUMP JUMPDEST SWAP4 PUSH1 0x44 CALLDATALOAD SWAP1 PUSH1 0x64 CALLDATALOAD SWAP1 DUP2 GT PUSH2 0x168 JUMPI PUSH2 0xC54 SWAP1 CALLDATASIZE SWAP1 PUSH1 0x4 ADD PUSH2 0x1CFF JUMP JUMPDEST SWAP6 SWAP1 SWAP3 PUSH1 0x40 MLOAD DUP7 DUP7 DUP3 CALLDATACOPY DUP1 DUP8 DUP2 ADD PUSH1 0xCD DUP2 MSTORE PUSH1 0x20 SWAP3 DUP4 SWAP2 SUB ADD SWAP1 KECCAK256 SWAP8 PUSH1 0x6 DUP10 ADD SWAP1 DUP2 SLOAD SWAP7 DUP7 DUP9 LT PUSH2 0xE3C JUMPI PUSH2 0xCF8 SWAP2 PUSH2 0xCEA PUSH2 0xCF0 SWAP3 DUP12 DUP14 PUSH2 0xCB3 DUP10 PUSH2 0xCA5 DUP15 DUP15 DUP15 PUSH1 0x40 MLOAD SWAP7 DUP8 SWAP6 DUP7 ADD SWAP9 DUP10 PUSH2 0x220D JUMP JUMPDEST SUB PUSH1 0x1F NOT DUP2 ADD DUP4 MSTORE DUP3 PUSH2 0x1B3C JUMP JUMPDEST MLOAD SWAP1 KECCAK256 PUSH32 0x19457468657265756D205369676E6564204D6573736167653A0A333200000000 PUSH1 0x0 MSTORE PUSH1 0x1C MSTORE PUSH1 0x3C PUSH1 0x0 KECCAK256 SWAP3 CALLDATASIZE SWAP2 PUSH2 0x1B78 JUMP JUMPDEST SWAP1 PUSH2 0x2363 JUMP JUMPDEST SWAP2 SWAP1 SWAP2 PUSH2 0x2249 JUMP JUMPDEST PUSH1 0x7 DUP11 ADD SLOAD PUSH1 0x1 PUSH1 0x1 PUSH1 0xA0 SHL SUB SWAP2 SWAP1 DUP3 AND SWAP1 DUP3 AND SUB PUSH2 0xE01 JUMPI PUSH1 0x40 MLOAD DUP6 DUP6 DUP3 CALLDATACOPY DUP4 DUP2 DUP8 DUP2 ADD PUSH1 0xCC DUP2 MSTORE SUB ADD SWAP1 KECCAK256 SWAP2 DUP2 PUSH1 0x2 DUP5 ADD SLOAD AND ISZERO PUSH2 0xDC9 JUMPI DUP7 DUP9 SUB SWAP8 DUP9 GT PUSH2 0xDB3 JUMPI PUSH32 0xE15EEE14F80C8F238B22B5C252D04BEF10A3AC6E03C83C74F9071F4796C7DCF9 SWAP11 PUSH2 0x891 SWAP9 PUSH1 0x3 SWAP3 SSTORE ADD SLOAD AND DUP1 ISZERO PUSH1 0x0 EQ PUSH2 0xD92 JUMPI POP PUSH1 0x3 SWAP2 POP ADD PUSH2 0xD83 DUP5 DUP3 SLOAD PUSH2 0x223C JUMP JUMPDEST SWAP1 SSTORE JUMPDEST PUSH1 0x40 MLOAD SWAP6 DUP7 SWAP6 DUP7 PUSH2 0x220D JUMP JUMPDEST SWAP1 PUSH1 0x4 SWAP2 PUSH1 0x0 MSTORE ADD SWAP1 MSTORE PUSH1 0x40 PUSH1 0x0 KECCAK256 PUSH2 0xDAC DUP5 DUP3 SLOAD PUSH2 0x223C JUMP JUMPDEST SWAP1 SSTORE PUSH2 0xD86 JUMP JUMPDEST PUSH4 0x4E487B71 PUSH1 0xE0 SHL PUSH1 0x0 MSTORE PUSH1 0x11 PUSH1 0x4 MSTORE PUSH1 0x24 PUSH1 0x0 REVERT JUMPDEST PUSH1 0x40 MLOAD PUSH3 0x461BCD PUSH1 0xE5 SHL DUP2 MSTORE PUSH1 0x4 DUP2 ADD DUP6 SWAP1 MSTORE PUSH1 0x10 PUSH1 0x24 DUP3 ADD MSTORE PUSH16 0x24B73B30B634B210383937B6B7BA32B9 PUSH1 0x81 SHL PUSH1 0x44 DUP3 ADD MSTORE PUSH1 0x64 SWAP1 REVERT JUMPDEST PUSH1 0x40 MLOAD PUSH3 0x461BCD PUSH1 0xE5 SHL DUP2 MSTORE PUSH1 0x4 DUP2 ADD DUP5 SWAP1 MSTORE PUSH1 0x13 PUSH1 0x24 DUP3 ADD MSTORE PUSH19 0x24B73B30B634B21030BA3A32B9BA30BA34B7B7 PUSH1 0x69 SHL PUSH1 0x44 DUP3 ADD MSTORE PUSH1 0x64 SWAP1 REVERT JUMPDEST PUSH1 0x40 MLOAD PUSH3 0x461BCD PUSH1 0xE5 SHL DUP2 MSTORE PUSH1 0x4 DUP2 ADD DUP6 SWAP1 MSTORE PUSH1 0x1A PUSH1 0x24 DUP3 ADD MSTORE PUSH32 0x496E73756666696369656E74206C6F636B656420616D6F756E74000000000000 PUSH1 0x44 DUP3 ADD MSTORE PUSH1 0x64 SWAP1 REVERT JUMPDEST CALLVALUE PUSH2 0x168 JUMPI PUSH2 0xEFA PUSH2 0xE97 PUSH1 0x20 PUSH2 0x78F CALLDATASIZE PUSH2 0x1D2C JUMP JUMPDEST DUP2 ADD PUSH1 0xCD DUP2 MSTORE SUB ADD SWAP1 KECCAK256 PUSH2 0xEAA DUP2 PUSH2 0x1BE9 JUMP JUMPDEST SWAP1 PUSH2 0xEB7 PUSH1 0x1 DUP3 ADD PUSH2 0x1BE9 JUMP JUMPDEST PUSH1 0x2 DUP3 ADD SLOAD SWAP2 PUSH1 0x1 DUP1 PUSH1 0xA0 SHL SUB DUP1 PUSH1 0x3 DUP4 ADD SLOAD AND PUSH1 0x4 DUP4 ADD SLOAD SWAP1 PUSH2 0xF08 PUSH1 0x5 DUP6 ADD SLOAD SWAP4 PUSH1 0x7 PUSH1 0x6 DUP8 ADD SLOAD SWAP7 ADD SLOAD AND SWAP6 PUSH1 0x40 MLOAD SWAP10 DUP11 SWAP10 PUSH2 0x100 DUP1 DUP13 MSTORE DUP12 ADD SWAP1 PUSH2 0x1CB2 JUMP JUMPDEST SWAP1 DUP10 DUP3 SUB PUSH1 0x20 DUP12 ADD MSTORE PUSH2 0x1CB2 JUMP JUMPDEST SWAP6 PUSH1 0x40 DUP9 ADD MSTORE PUSH1 0x60 DUP8 ADD MSTORE PUSH1 0x80 DUP7 ADD MSTORE PUSH1 0xA0 DUP6 ADD MSTORE PUSH1 0xC0 DUP5 ADD MSTORE PUSH1 0xE0 DUP4 ADD MSTORE SUB SWAP1 RETURN JUMPDEST CALLVALUE PUSH2 0x168 JUMPI PUSH2 0xF3E PUSH1 0x20 PUSH2 0x78F CALLDATASIZE PUSH2 0x1D2C JUMP JUMPDEST DUP2 ADD PUSH1 0xCB DUP2 MSTORE SUB ADD SWAP1 KECCAK256 PUSH2 0xF51 DUP2 PUSH2 0x1BE9 JUMP JUMPDEST SWAP1 PUSH1 0x1 DUP1 DUP1 PUSH1 0xA0 SHL SUB SWAP2 ADD SLOAD AND SWAP1 PUSH2 0x7E4 PUSH1 0x40 MLOAD SWAP3 DUP4 SWAP3 DUP4 PUSH2 0x1CD7 JUMP JUMPDEST CALLVALUE PUSH2 0x168 JUMPI PUSH1 0x0 CALLDATASIZE PUSH1 0x3 NOT ADD SLT PUSH2 0x168 JUMPI PUSH2 0xF87 PUSH2 0x1DA9 JUMP JUMPDEST PUSH1 0x97 DUP1 SLOAD PUSH1 0x1 PUSH1 0x1 PUSH1 0xA0 SHL SUB NOT DUP2 AND SWAP1 SWAP2 SSTORE PUSH1 0x0 SWAP1 PUSH1 0x1 PUSH1 0x1 PUSH1 0xA0 SHL SUB AND PUSH32 0x8BE0079C531659141344CD1FD0A4F28419497F9722A3DAAFE3B4186F6B6457E0 DUP3 DUP1 LOG3 STOP JUMPDEST PUSH1 0xC0 CALLDATASIZE PUSH1 0x3 NOT ADD SLT PUSH2 0x168 JUMPI PUSH1 0x4 CALLDATALOAD PUSH1 0x1 PUSH1 0x1 PUSH1 0x40 SHL SUB DUP2 GT PUSH2 0x168 JUMPI PUSH2 0xFF6 SWAP1 CALLDATASIZE SWAP1 PUSH1 0x4 ADD PUSH2 0x1CFF JUMP JUMPDEST SWAP1 PUSH1 0x24 CALLDATALOAD PUSH1 0x1 PUSH1 0x1 PUSH1 0x40 SHL SUB DUP2 GT PUSH2 0x168 JUMPI PUSH2 0x1016 SWAP1 CALLDATASIZE SWAP1 PUSH1 0x4 ADD PUSH2 0x1CFF JUMP JUMPDEST SWAP1 SWAP3 SWAP1 PUSH1 0x64 CALLDATALOAD SWAP1 PUSH1 0x1 PUSH1 0x1 PUSH1 0xA0 SHL SUB DUP3 AND DUP3 SUB PUSH2 0x168 JUMPI TIMESTAMP PUSH1 0x84 CALLDATALOAD GT ISZERO PUSH2 0x143D JUMPI PUSH1 0x1 PUSH1 0x1 PUSH1 0xA0 SHL SUB DUP3 AND PUSH2 0x1436 JUMPI PUSH1 0x44 CALLDATALOAD CALLVALUE EQ JUMPDEST ISZERO PUSH2 0x13E5 JUMPI PUSH1 0x40 MLOAD PUSH2 0x100 DUP2 ADD DUP2 DUP2 LT PUSH1 0x1 PUSH1 0x1 PUSH1 0x40 SHL SUB DUP3 GT OR PUSH2 0x415 JUMPI PUSH1 0x40 MSTORE PUSH2 0x1078 CALLDATASIZE DUP6 DUP8 PUSH2 0x1B78 JUMP JUMPDEST DUP2 MSTORE PUSH2 0x1085 CALLDATASIZE DUP4 DUP9 PUSH2 0x1B78 JUMP JUMPDEST PUSH1 0x20 DUP3 ADD MSTORE PUSH1 0x44 CALLDATALOAD PUSH1 0x40 DUP1 DUP4 ADD DUP3 SWAP1 MSTORE PUSH1 0x1 PUSH1 0x1 PUSH1 0xA0 SHL SUB DUP6 AND PUSH1 0x60 DUP5 ADD MSTORE PUSH1 0x84 CALLDATALOAD PUSH1 0x80 DUP5 ADD MSTORE PUSH1 0xA4 CALLDATALOAD PUSH1 0xA0 DUP5 ADD MSTORE PUSH1 0xC0 DUP4 ADD SWAP2 SWAP1 SWAP2 MSTORE CALLER PUSH1 0xE0 DUP4 ADD MSTORE MLOAD DUP5 DUP7 DUP3 CALLDATACOPY PUSH1 0x20 DUP2 DUP7 DUP2 ADD PUSH1 0xCD DUP2 MSTORE SUB ADD SWAP1 KECCAK256 DUP2 MLOAD DUP1 MLOAD SWAP1 PUSH1 0x1 PUSH1 0x1 PUSH1 0x40 SHL SUB DUP3 GT PUSH2 0x415 JUMPI DUP2 SWAP1 PUSH2 0x10FE DUP3 PUSH2 0x10F8 DUP7 SLOAD PUSH2 0x1BAF JUMP JUMPDEST DUP7 PUSH2 0x2099 JUMP JUMPDEST PUSH1 0x20 SWAP1 PUSH1 0x1F DUP4 GT PUSH1 0x1 EQ PUSH2 0x1379 JUMPI PUSH1 0x0 SWAP3 PUSH2 0x136E JUMPI JUMPDEST POP POP DUP2 PUSH1 0x1 SHL SWAP2 PUSH1 0x0 NOT SWAP1 PUSH1 0x3 SHL SHR NOT AND OR DUP2 SSTORE JUMPDEST PUSH1 0x20 DUP3 ADD MLOAD DUP1 MLOAD SWAP1 PUSH1 0x1 PUSH1 0x1 PUSH1 0x40 SHL SUB DUP3 GT PUSH2 0x415 JUMPI DUP2 SWAP1 PUSH2 0x115B DUP3 PUSH2 0x1152 PUSH1 0x1 DUP8 ADD SLOAD PUSH2 0x1BAF JUMP JUMPDEST PUSH1 0x1 DUP8 ADD PUSH2 0x2099 JUMP JUMPDEST PUSH1 0x20 SWAP1 PUSH1 0x1F DUP4 GT PUSH1 0x1 EQ PUSH2 0x12FC JUMPI PUSH1 0x0 SWAP3 PUSH2 0x12F1 JUMPI JUMPDEST POP POP DUP2 PUSH1 0x1 SHL SWAP2 PUSH1 0x0 NOT SWAP1 PUSH1 0x3 SHL SHR NOT AND OR PUSH1 0x1 DUP3 ADD SSTORE JUMPDEST PUSH1 0x40 DUP3 ADD MLOAD PUSH1 0x2 DUP3 ADD SSTORE PUSH1 0x60 DUP3 ADD MLOAD PUSH1 0x3 DUP3 ADD DUP1 SLOAD PUSH1 0x1 PUSH1 0x1 PUSH1 0xA0 SHL SUB NOT SWAP1 DUP2 AND PUSH1 0x1 PUSH1 0x1 PUSH1 0xA0 SHL SUB SWAP4 DUP5 AND OR SWAP1 SWAP2 SSTORE PUSH1 0x80 DUP5 ADD MLOAD PUSH1 0x4 DUP5 ADD SSTORE PUSH1 0xA0 DUP5 ADD MLOAD PUSH1 0x5 DUP5 ADD SSTORE PUSH1 0xC0 DUP5 ADD MLOAD PUSH1 0x6 DUP5 ADD SSTORE PUSH1 0xE0 SWAP1 SWAP4 ADD MLOAD PUSH1 0x7 SWAP1 SWAP3 ADD DUP1 SLOAD SWAP1 SWAP4 AND SWAP2 DUP2 AND SWAP2 SWAP1 SWAP2 OR SWAP1 SWAP2 SSTORE DUP3 AND PUSH2 0x1260 JUMPI JUMPDEST PUSH32 0x4CCC654F5B0AE694B1B5BE2208A8678537A665E4E1F3FCDD8CAFF59F68957C32 SWAP5 PUSH2 0x1243 SWAP2 PUSH2 0x1235 PUSH1 0x40 MLOAD SWAP7 DUP8 SWAP7 PUSH1 0x80 DUP9 MSTORE PUSH1 0x80 DUP9 ADD SWAP2 PUSH2 0x20FC JUMP JUMPDEST SWAP2 DUP6 DUP4 SUB PUSH1 0x20 DUP8 ADD MSTORE PUSH2 0x20FC JUMP JUMPDEST PUSH1 0x44 CALLDATALOAD PUSH1 0x40 DUP5 ADD MSTORE PUSH1 0x1 PUSH1 0x1 PUSH1 0xA0 SHL SUB SWAP1 SWAP2 AND PUSH1 0x60 DUP4 ADD MSTORE SUB SWAP1 LOG1 STOP JUMPDEST PUSH1 0x40 MLOAD PUSH4 0x23B872DD PUSH1 0xE0 SHL DUP2 MSTORE CALLER PUSH1 0x4 DUP3 ADD MSTORE ADDRESS PUSH1 0x24 DUP3 ADD MSTORE PUSH1 0x44 DUP1 CALLDATALOAD SWAP1 DUP3 ADD MSTORE SWAP5 PUSH1 0x20 DUP7 PUSH1 0x64 DUP2 PUSH1 0x0 PUSH1 0x1 PUSH1 0x1 PUSH1 0xA0 SHL SUB DUP9 AND GAS CALL SWAP2 DUP3 ISZERO PUSH2 0x896 JUMPI PUSH32 0x4CCC654F5B0AE694B1B5BE2208A8678537A665E4E1F3FCDD8CAFF59F68957C32 SWAP7 PUSH2 0x1243 SWAP4 PUSH2 0x12D2 JUMPI JUMPDEST POP SWAP2 POP SWAP5 POP PUSH2 0x11F8 JUMP JUMPDEST PUSH2 0x12EA SWAP1 PUSH1 0x20 RETURNDATASIZE PUSH1 0x20 GT PUSH2 0x98F JUMPI PUSH2 0x97F DUP2 DUP4 PUSH2 0x1B3C JUMP JUMPDEST POP DUP8 PUSH2 0x12C8 JUMP JUMPDEST ADD MLOAD SWAP1 POP DUP10 DUP1 PUSH2 0x1171 JUMP JUMPDEST SWAP3 POP PUSH1 0x1 DUP5 ADD PUSH1 0x0 MSTORE PUSH1 0x20 PUSH1 0x0 KECCAK256 SWAP1 PUSH1 0x0 SWAP4 JUMPDEST PUSH1 0x1F NOT DUP5 AND DUP6 LT PUSH2 0x1353 JUMPI PUSH1 0x1 SWAP5 POP DUP4 PUSH1 0x1F NOT DUP2 AND LT PUSH2 0x133A JUMPI JUMPDEST POP POP POP DUP2 SHL ADD PUSH1 0x1 DUP3 ADD SSTORE PUSH2 0x1189 JUMP JUMPDEST ADD MLOAD PUSH1 0x0 NOT PUSH1 0xF8 DUP5 PUSH1 0x3 SHL AND SHR NOT AND SWAP1 SSTORE DUP10 DUP1 DUP1 PUSH2 0x132A JUMP JUMPDEST DUP2 DUP2 ADD MLOAD DUP4 SSTORE PUSH1 0x20 SWAP5 DUP6 ADD SWAP5 PUSH1 0x1 SWAP1 SWAP4 ADD SWAP3 SWAP1 SWAP2 ADD SWAP1 PUSH2 0x130F JUMP JUMPDEST ADD MLOAD SWAP1 POP DUP10 DUP1 PUSH2 0x1114 JUMP JUMPDEST SWAP3 POP DUP4 PUSH1 0x0 MSTORE PUSH1 0x20 PUSH1 0x0 KECCAK256 SWAP1 PUSH1 0x0 SWAP4 JUMPDEST PUSH1 0x1F NOT DUP5 AND DUP6 LT PUSH2 0x13CA JUMPI PUSH1 0x1 SWAP5 POP DUP4 PUSH1 0x1F NOT DUP2 AND LT PUSH2 0x13B1 JUMPI JUMPDEST POP POP POP DUP2 SHL ADD DUP2 SSTORE PUSH2 0x1129 JUMP JUMPDEST ADD MLOAD PUSH1 0x0 NOT PUSH1 0xF8 DUP5 PUSH1 0x3 SHL AND SHR NOT AND SWAP1 SSTORE DUP10 DUP1 DUP1 PUSH2 0x13A4 JUMP JUMPDEST DUP2 DUP2 ADD MLOAD DUP4 SSTORE PUSH1 0x20 SWAP5 DUP6 ADD SWAP5 PUSH1 0x1 SWAP1 SWAP4 ADD SWAP3 SWAP1 SWAP2 ADD SWAP1 PUSH2 0x1389 JUMP JUMPDEST PUSH1 0x40 MLOAD PUSH3 0x461BCD PUSH1 0xE5 SHL DUP2 MSTORE PUSH1 0x20 PUSH1 0x4 DUP3 ADD MSTORE PUSH1 0x23 PUSH1 0x24 DUP3 ADD MSTORE PUSH32 0x4D69736D6174636820696E20746F6B656E20616E64206E617469766520616D6F PUSH1 0x44 DUP3 ADD MSTORE PUSH3 0x1D5B9D PUSH1 0xEA SHL PUSH1 0x64 DUP3 ADD MSTORE PUSH1 0x84 SWAP1 REVERT JUMPDEST CALLVALUE ISZERO PUSH2 0x104B JUMP JUMPDEST PUSH1 0x40 MLOAD PUSH3 0x461BCD PUSH1 0xE5 SHL DUP2 MSTORE PUSH1 0x20 PUSH1 0x4 DUP3 ADD MSTORE PUSH1 0x23 PUSH1 0x24 DUP3 ADD MSTORE PUSH32 0x456E642074696D657374616D70206D75737420626520696E2074686520667574 PUSH1 0x44 DUP3 ADD MSTORE PUSH3 0x757265 PUSH1 0xE8 SHL PUSH1 0x64 DUP3 ADD MSTORE PUSH1 0x84 SWAP1 REVERT JUMPDEST CALLVALUE PUSH2 0x168 JUMPI PUSH1 0x20 CALLDATASIZE PUSH1 0x3 NOT ADD SLT PUSH2 0x168 JUMPI PUSH1 0x1 PUSH1 0x1 PUSH1 0xA0 SHL SUB DUP1 PUSH2 0x14B0 PUSH2 0x1AF0 JUMP JUMPDEST AND PUSH1 0x0 MSTORE PUSH1 0xCE PUSH1 0x20 MSTORE PUSH1 0x40 PUSH1 0x0 KECCAK256 SWAP1 PUSH1 0x1 PUSH2 0x14CA DUP4 PUSH2 0x1BE9 JUMP JUMPDEST SWAP3 ADD SLOAD AND SWAP1 PUSH2 0x7E4 PUSH1 0x40 MLOAD SWAP3 DUP4 SWAP3 DUP4 PUSH2 0x1CD7 JUMP JUMPDEST CALLVALUE PUSH2 0x168 JUMPI PUSH1 0x0 CALLDATASIZE PUSH1 0x3 NOT ADD SLT PUSH2 0x168 JUMPI PUSH32 0x0 PUSH1 0x1 PUSH1 0x1 PUSH1 0xA0 SHL SUB AND ADDRESS SUB PUSH2 0x1537 JUMPI PUSH1 0x20 PUSH1 0x40 MLOAD PUSH1 0x0 DUP1 MLOAD PUSH1 0x20 PUSH2 0x242B DUP4 CODECOPY DUP2 MLOAD SWAP2 MSTORE DUP2 MSTORE RETURN JUMPDEST PUSH1 0x40 MLOAD PUSH3 0x461BCD PUSH1 0xE5 SHL DUP2 MSTORE PUSH1 0x20 PUSH1 0x4 DUP3 ADD MSTORE PUSH1 0x38 PUSH1 0x24 DUP3 ADD MSTORE PUSH32 0x555550535570677261646561626C653A206D757374206E6F742062652063616C PUSH1 0x44 DUP3 ADD MSTORE PUSH32 0x6C6564207468726F7567682064656C656761746563616C6C0000000000000000 PUSH1 0x64 DUP3 ADD MSTORE PUSH1 0x84 SWAP1 REVERT JUMPDEST PUSH1 0x40 CALLDATASIZE PUSH1 0x3 NOT ADD SLT PUSH2 0x168 JUMPI PUSH2 0x15B6 PUSH2 0x1AF0 JUMP JUMPDEST PUSH1 0x24 CALLDATALOAD PUSH1 0x1 PUSH1 0x1 PUSH1 0x40 SHL SUB DUP2 GT PUSH2 0x168 JUMPI CALLDATASIZE PUSH1 0x23 DUP3 ADD SLT ISZERO PUSH2 0x168 JUMPI PUSH2 0x15E6 SWAP1 CALLDATASIZE SWAP1 PUSH1 0x24 DUP2 PUSH1 0x4 ADD CALLDATALOAD SWAP2 ADD PUSH2 0x1B78 JUMP JUMPDEST PUSH1 0x1 PUSH1 0x1 PUSH1 0xA0 SHL SUB PUSH32 0x0 DUP2 AND SWAP2 SWAP1 PUSH2 0x161F ADDRESS DUP5 EQ ISZERO PUSH2 0x1E4A JUMP JUMPDEST PUSH2 0x163C PUSH1 0x0 DUP1 MLOAD PUSH1 0x20 PUSH2 0x242B DUP4 CODECOPY DUP2 MLOAD SWAP2 MSTORE SWAP4 DUP3 DUP6 SLOAD AND EQ PUSH2 0x1EAB JUMP JUMPDEST PUSH2 0x1644 PUSH2 0x1DA9 JUMP JUMPDEST PUSH32 0x4910FDFA16FED3260ED0E7147F7CC6DA11A60208B5B9406D12A635614FFD9143 SLOAD PUSH1 0xFF AND ISZERO PUSH2 0x167A JUMPI POP POP POP PUSH2 0x19 SWAP1 PUSH2 0x1F0C JUMP JUMPDEST DUP4 AND PUSH1 0x40 MLOAD SWAP3 PUSH4 0x52D1902D PUSH1 0xE0 SHL DUP5 MSTORE PUSH1 0x20 SWAP4 DUP5 DUP2 PUSH1 0x4 DUP2 DUP7 GAS STATICCALL PUSH1 0x0 SWAP2 DUP2 PUSH2 0x1831 JUMPI JUMPDEST POP PUSH2 0x16FF JUMPI PUSH1 0x40 MLOAD PUSH3 0x461BCD PUSH1 0xE5 SHL DUP2 MSTORE PUSH1 0x4 DUP2 ADD DUP7 SWAP1 MSTORE PUSH1 0x2E PUSH1 0x24 DUP3 ADD MSTORE PUSH32 0x45524331393637557067726164653A206E657720696D706C656D656E74617469 PUSH1 0x44 DUP3 ADD MSTORE PUSH14 0x6F6E206973206E6F742055555053 PUSH1 0x90 SHL PUSH1 0x64 DUP3 ADD MSTORE PUSH1 0x84 SWAP1 REVERT JUMPDEST SWAP4 SWAP3 SWAP4 SUB PUSH2 0x17DA JUMPI PUSH2 0x1710 DUP5 PUSH2 0x1F0C JUMP JUMPDEST PUSH32 0xBC7CD75A20EE27FD9ADEBAB32041F755214DBC6BFFA90CC0225B39DA2E5C2D3B PUSH1 0x0 DUP1 LOG2 DUP2 MLOAD ISZERO DUP1 ISZERO SWAP1 PUSH2 0x17D2 JUMPI JUMPDEST PUSH2 0x1746 JUMPI STOP JUMPDEST PUSH2 0x19 SWAP3 PUSH1 0x0 DUP1 PUSH1 0x40 MLOAD SWAP5 PUSH2 0x175A DUP7 PUSH2 0x1B21 JUMP JUMPDEST PUSH1 0x27 DUP7 MSTORE PUSH32 0x416464726573733A206C6F772D6C6576656C2064656C65676174652063616C6C DUP6 DUP8 ADD MSTORE PUSH7 0x819985A5B1959 PUSH1 0xCA SHL PUSH1 0x40 DUP8 ADD MSTORE DUP5 DUP2 MLOAD SWAP2 ADD DUP5 GAS DELEGATECALL SWAP1 RETURNDATASIZE ISZERO PUSH2 0x17C9 JUMPI RETURNDATASIZE PUSH2 0x17AC DUP2 PUSH2 0x1B5D JUMP JUMPDEST SWAP1 PUSH2 0x17BA PUSH1 0x40 MLOAD SWAP3 DUP4 PUSH2 0x1B3C JUMP JUMPDEST DUP2 MSTORE PUSH1 0x0 DUP2 SWAP5 RETURNDATASIZE SWAP3 ADD RETURNDATACOPY PUSH2 0x1F9C JUMP JUMPDEST PUSH1 0x60 SWAP3 POP PUSH2 0x1F9C JUMP JUMPDEST POP PUSH1 0x1 PUSH2 0x1740 JUMP JUMPDEST PUSH1 0x40 MLOAD PUSH3 0x461BCD PUSH1 0xE5 SHL DUP2 MSTORE PUSH1 0x4 DUP2 ADD DUP4 SWAP1 MSTORE PUSH1 0x29 PUSH1 0x24 DUP3 ADD MSTORE PUSH32 0x45524331393637557067726164653A20756E737570706F727465642070726F78 PUSH1 0x44 DUP3 ADD MSTORE PUSH9 0x1A58589B1955555251 PUSH1 0xBA SHL PUSH1 0x64 DUP3 ADD MSTORE PUSH1 0x84 SWAP1 REVERT JUMPDEST SWAP1 SWAP2 POP DUP6 DUP2 DUP2 RETURNDATASIZE DUP4 GT PUSH2 0x1859 JUMPI JUMPDEST PUSH2 0x1849 DUP2 DUP4 PUSH2 0x1B3C JUMP JUMPDEST DUP2 ADD SUB SLT PUSH2 0x168 JUMPI MLOAD SWAP1 DUP8 PUSH2 0x169E JUMP JUMPDEST POP RETURNDATASIZE PUSH2 0x183F JUMP JUMPDEST CALLVALUE PUSH2 0x168 JUMPI PUSH1 0x20 DUP1 PUSH1 0x3 NOT CALLDATASIZE ADD SLT PUSH2 0x168 JUMPI PUSH2 0x187A PUSH2 0x1AF0 JUMP JUMPDEST PUSH1 0x1 PUSH1 0x1 PUSH1 0xA0 SHL SUB SWAP2 PUSH32 0x0 DUP4 AND PUSH2 0x18B2 ADDRESS DUP3 EQ ISZERO PUSH2 0x1E4A JUMP JUMPDEST PUSH2 0x18CF PUSH1 0x0 DUP1 MLOAD PUSH1 0x20 PUSH2 0x242B DUP4 CODECOPY DUP2 MLOAD SWAP2 MSTORE SWAP2 DUP6 DUP4 SLOAD AND EQ PUSH2 0x1EAB JUMP JUMPDEST PUSH2 0x18D7 PUSH2 0x1DA9 JUMP JUMPDEST PUSH1 0x40 MLOAD SWAP1 DUP3 DUP3 ADD SWAP5 DUP3 DUP7 LT PUSH1 0x1 PUSH1 0x1 PUSH1 0x40 SHL SUB DUP8 GT OR PUSH2 0x415 JUMPI DUP6 PUSH1 0x40 MSTORE PUSH1 0x0 DUP4 MSTORE PUSH1 0xFF PUSH32 0x4910FDFA16FED3260ED0E7147F7CC6DA11A60208B5B9406D12A635614FFD9143 SLOAD AND PUSH1 0x0 EQ PUSH2 0x1933 JUMPI POP POP POP POP PUSH2 0x19 SWAP2 POP PUSH2 0x1F0C JUMP JUMPDEST DUP5 SWAP3 SWAP4 SWAP5 AND SWAP1 PUSH1 0x40 MLOAD PUSH4 0x52D1902D PUSH1 0xE0 SHL DUP2 MSTORE DUP6 DUP2 PUSH1 0x4 DUP2 DUP7 GAS STATICCALL PUSH1 0x0 SWAP2 DUP2 PUSH2 0x1AC1 JUMPI JUMPDEST POP PUSH2 0x19B8 JUMPI PUSH1 0x40 MLOAD PUSH3 0x461BCD PUSH1 0xE5 SHL DUP2 MSTORE PUSH1 0x4 DUP2 ADD DUP8 SWAP1 MSTORE PUSH1 0x2E PUSH1 0x24 DUP3 ADD MSTORE PUSH32 0x45524331393637557067726164653A206E657720696D706C656D656E74617469 PUSH1 0x44 DUP3 ADD MSTORE PUSH14 0x6F6E206973206E6F742055555053 PUSH1 0x90 SHL PUSH1 0x64 DUP3 ADD MSTORE PUSH1 0x84 SWAP1 REVERT JUMPDEST SWAP5 SWAP4 SWAP5 SUB PUSH2 0x1A6A JUMPI PUSH2 0x19C9 DUP3 PUSH2 0x1F0C JUMP JUMPDEST PUSH32 0xBC7CD75A20EE27FD9ADEBAB32041F755214DBC6BFFA90CC0225B39DA2E5C2D3B PUSH1 0x0 DUP1 LOG2 DUP3 MLOAD ISZERO DUP1 ISZERO SWAP1 PUSH2 0x1A62 JUMPI JUMPDEST PUSH2 0x19FF JUMPI STOP JUMPDEST PUSH1 0x0 DUP1 PUSH2 0x19 SWAP6 PUSH1 0x40 MLOAD SWAP6 PUSH2 0x1A13 DUP8 PUSH2 0x1B21 JUMP JUMPDEST PUSH1 0x27 DUP8 MSTORE PUSH32 0x416464726573733A206C6F772D6C6576656C2064656C65676174652063616C6C DUP7 DUP9 ADD MSTORE PUSH7 0x819985A5B1959 PUSH1 0xCA SHL PUSH1 0x40 DUP9 ADD MSTORE MLOAD SWAP1 DUP5 GAS DELEGATECALL SWAP1 RETURNDATASIZE ISZERO PUSH2 0x17C9 JUMPI RETURNDATASIZE PUSH2 0x17AC DUP2 PUSH2 0x1B5D JUMP JUMPDEST POP PUSH1 0x0 PUSH2 0x19F9 JUMP JUMPDEST PUSH1 0x40 MLOAD PUSH3 0x461BCD PUSH1 0xE5 SHL DUP2 MSTORE PUSH1 0x4 DUP2 ADD DUP5 SWAP1 MSTORE PUSH1 0x29 PUSH1 0x24 DUP3 ADD MSTORE PUSH32 0x45524331393637557067726164653A20756E737570706F727465642070726F78 PUSH1 0x44 DUP3 ADD MSTORE PUSH9 0x1A58589B1955555251 PUSH1 0xBA SHL PUSH1 0x64 DUP3 ADD MSTORE PUSH1 0x84 SWAP1 REVERT JUMPDEST SWAP1 SWAP2 POP DUP7 DUP2 DUP2 RETURNDATASIZE DUP4 GT PUSH2 0x1AE9 JUMPI JUMPDEST PUSH2 0x1AD9 DUP2 DUP4 PUSH2 0x1B3C JUMP JUMPDEST DUP2 ADD SUB SLT PUSH2 0x168 JUMPI MLOAD SWAP1 DUP9 PUSH2 0x1957 JUMP JUMPDEST POP RETURNDATASIZE PUSH2 0x1ACF JUMP JUMPDEST PUSH1 0x4 CALLDATALOAD SWAP1 PUSH1 0x1 PUSH1 0x1 PUSH1 0xA0 SHL SUB DUP3 AND DUP3 SUB PUSH2 0x168 JUMPI JUMP JUMPDEST PUSH1 0x40 DUP2 ADD SWAP1 DUP2 LT PUSH1 0x1 PUSH1 0x1 PUSH1 0x40 SHL SUB DUP3 GT OR PUSH2 0x415 JUMPI PUSH1 0x40 MSTORE JUMP JUMPDEST PUSH1 0x60 DUP2 ADD SWAP1 DUP2 LT PUSH1 0x1 PUSH1 0x1 PUSH1 0x40 SHL SUB DUP3 GT OR PUSH2 0x415 JUMPI PUSH1 0x40 MSTORE JUMP JUMPDEST SWAP1 PUSH1 0x1F DUP1 NOT SWAP2 ADD AND DUP2 ADD SWAP1 DUP2 LT PUSH1 0x1 PUSH1 0x1 PUSH1 0x40 SHL SUB DUP3 GT OR PUSH2 0x415 JUMPI PUSH1 0x40 MSTORE JUMP JUMPDEST PUSH1 0x1 PUSH1 0x1 PUSH1 0x40 SHL SUB DUP2 GT PUSH2 0x415 JUMPI PUSH1 0x1F ADD PUSH1 0x1F NOT AND PUSH1 0x20 ADD SWAP1 JUMP JUMPDEST SWAP3 SWAP2 SWAP3 PUSH2 0x1B84 DUP3 PUSH2 0x1B5D JUMP JUMPDEST SWAP2 PUSH2 0x1B92 PUSH1 0x40 MLOAD SWAP4 DUP5 PUSH2 0x1B3C JUMP JUMPDEST DUP3 SWAP5 DUP2 DUP5 MSTORE DUP2 DUP4 ADD GT PUSH2 0x168 JUMPI DUP3 DUP2 PUSH1 0x20 SWAP4 DUP5 PUSH1 0x0 SWAP7 ADD CALLDATACOPY ADD ADD MSTORE JUMP JUMPDEST SWAP1 PUSH1 0x1 DUP3 DUP2 SHR SWAP3 AND DUP1 ISZERO PUSH2 0x1BDF JUMPI JUMPDEST PUSH1 0x20 DUP4 LT EQ PUSH2 0x1BC9 JUMPI JUMP JUMPDEST PUSH4 0x4E487B71 PUSH1 0xE0 SHL PUSH1 0x0 MSTORE PUSH1 0x22 PUSH1 0x4 MSTORE PUSH1 0x24 PUSH1 0x0 REVERT JUMPDEST SWAP2 PUSH1 0x7F AND SWAP2 PUSH2 0x1BBE JUMP JUMPDEST SWAP1 PUSH1 0x40 MLOAD SWAP2 DUP3 PUSH1 0x0 DUP3 SLOAD SWAP3 PUSH2 0x1BFD DUP5 PUSH2 0x1BAF JUMP JUMPDEST SWAP1 DUP2 DUP5 MSTORE PUSH1 0x1 SWAP5 DUP6 DUP2 AND SWAP1 DUP2 PUSH1 0x0 EQ PUSH2 0x1C6C JUMPI POP PUSH1 0x1 EQ PUSH2 0x1C29 JUMPI JUMPDEST POP POP PUSH2 0x1C27 SWAP3 POP SUB DUP4 PUSH2 0x1B3C JUMP JUMPDEST JUMP JUMPDEST SWAP1 SWAP4 SWAP2 POP PUSH1 0x0 MSTORE PUSH1 0x20 SWAP1 DUP2 PUSH1 0x0 KECCAK256 SWAP4 PUSH1 0x0 SWAP2 JUMPDEST DUP2 DUP4 LT PUSH2 0x1C54 JUMPI POP POP PUSH2 0x1C27 SWAP4 POP DUP3 ADD ADD CODESIZE DUP1 PUSH2 0x1C19 JUMP JUMPDEST DUP6 SLOAD DUP9 DUP5 ADD DUP6 ADD MSTORE SWAP5 DUP6 ADD SWAP5 DUP8 SWAP5 POP SWAP2 DUP4 ADD SWAP2 PUSH2 0x1C3C JUMP JUMPDEST SWAP2 POP POP PUSH2 0x1C27 SWAP5 POP PUSH1 0x20 SWAP3 POP PUSH1 0xFF NOT AND DUP3 DUP5 ADD MSTORE ISZERO ISZERO PUSH1 0x5 SHL DUP3 ADD ADD CODESIZE DUP1 PUSH2 0x1C19 JUMP JUMPDEST PUSH1 0x0 JUMPDEST DUP4 DUP2 LT PUSH2 0x1CA2 JUMPI POP POP PUSH1 0x0 SWAP2 ADD MSTORE JUMP JUMPDEST DUP2 DUP2 ADD MLOAD DUP4 DUP3 ADD MSTORE PUSH1 0x20 ADD PUSH2 0x1C92 JUMP JUMPDEST SWAP1 PUSH1 0x20 SWAP2 PUSH2 0x1CCB DUP2 MLOAD DUP1 SWAP3 DUP2 DUP6 MSTORE DUP6 DUP1 DUP7 ADD SWAP2 ADD PUSH2 0x1C8F JUMP JUMPDEST PUSH1 0x1F ADD PUSH1 0x1F NOT AND ADD ADD SWAP1 JUMP JUMPDEST SWAP1 PUSH2 0x1CEF PUSH1 0x20 SWAP2 SWAP5 SWAP4 SWAP5 PUSH1 0x40 DUP5 MSTORE PUSH1 0x40 DUP5 ADD SWAP1 PUSH2 0x1CB2 JUMP JUMPDEST PUSH1 0x1 PUSH1 0x1 PUSH1 0xA0 SHL SUB SWAP1 SWAP5 AND SWAP2 ADD MSTORE JUMP JUMPDEST SWAP2 DUP2 PUSH1 0x1F DUP5 ADD SLT ISZERO PUSH2 0x168 JUMPI DUP3 CALLDATALOAD SWAP2 PUSH1 0x1 PUSH1 0x1 PUSH1 0x40 SHL SUB DUP4 GT PUSH2 0x168 JUMPI PUSH1 0x20 DUP4 DUP2 DUP7 ADD SWAP6 ADD ADD GT PUSH2 0x168 JUMPI JUMP JUMPDEST PUSH1 0x20 PUSH1 0x3 NOT DUP3 ADD SLT PUSH2 0x168 JUMPI PUSH1 0x4 CALLDATALOAD SWAP1 PUSH1 0x1 PUSH1 0x1 PUSH1 0x40 SHL SUB DUP3 GT PUSH2 0x168 JUMPI DUP1 PUSH1 0x23 DUP4 ADD SLT ISZERO PUSH2 0x168 JUMPI DUP2 PUSH1 0x24 PUSH2 0x1D67 SWAP4 PUSH1 0x4 ADD CALLDATALOAD SWAP2 ADD PUSH2 0x1B78 JUMP JUMPDEST SWAP1 JUMP JUMPDEST SWAP1 PUSH1 0x60 SWAP3 PUSH2 0x1D87 PUSH2 0x1D95 SWAP3 SWAP8 SWAP7 SWAP6 SWAP8 PUSH1 0x80 DUP6 MSTORE PUSH1 0x80 DUP6 ADD SWAP1 PUSH2 0x1CB2 JUMP JUMPDEST SWAP1 DUP4 DUP3 SUB PUSH1 0x20 DUP6 ADD MSTORE PUSH2 0x1CB2 JUMP JUMPDEST PUSH1 0x1 PUSH1 0x1 PUSH1 0xA0 SHL SUB SWAP1 SWAP6 AND PUSH1 0x40 DUP3 ADD MSTORE ADD MSTORE JUMP JUMPDEST PUSH1 0x97 SLOAD PUSH1 0x1 PUSH1 0x1 PUSH1 0xA0 SHL SUB AND CALLER SUB PUSH2 0x1DBD JUMPI JUMP JUMPDEST PUSH1 0x64 PUSH1 0x40 MLOAD PUSH3 0x461BCD PUSH1 0xE5 SHL DUP2 MSTORE PUSH1 0x20 PUSH1 0x4 DUP3 ADD MSTORE PUSH1 0x20 PUSH1 0x24 DUP3 ADD MSTORE PUSH32 0x4F776E61626C653A2063616C6C6572206973206E6F7420746865206F776E6572 PUSH1 0x44 DUP3 ADD MSTORE REVERT JUMPDEST PUSH1 0x97 DUP1 SLOAD PUSH1 0x1 PUSH1 0x1 PUSH1 0xA0 SHL SUB SWAP3 DUP4 AND PUSH1 0x1 PUSH1 0x1 PUSH1 0xA0 SHL SUB NOT DUP3 AND DUP2 OR SWAP1 SWAP3 SSTORE SWAP1 SWAP2 AND PUSH32 0x8BE0079C531659141344CD1FD0A4F28419497F9722A3DAAFE3B4186F6B6457E0 PUSH1 0x0 DUP1 LOG3 JUMP JUMPDEST ISZERO PUSH2 0x1E51 JUMPI JUMP JUMPDEST PUSH1 0x40 MLOAD PUSH3 0x461BCD PUSH1 0xE5 SHL DUP2 MSTORE PUSH1 0x20 PUSH1 0x4 DUP3 ADD MSTORE PUSH1 0x2C PUSH1 0x24 DUP3 ADD MSTORE PUSH32 0x46756E6374696F6E206D7573742062652063616C6C6564207468726F75676820 PUSH1 0x44 DUP3 ADD MSTORE PUSH12 0x19195B1959D85D1958D85B1B PUSH1 0xA2 SHL PUSH1 0x64 DUP3 ADD MSTORE PUSH1 0x84 SWAP1 REVERT JUMPDEST ISZERO PUSH2 0x1EB2 JUMPI JUMP JUMPDEST PUSH1 0x40 MLOAD PUSH3 0x461BCD PUSH1 0xE5 SHL DUP2 MSTORE PUSH1 0x20 PUSH1 0x4 DUP3 ADD MSTORE PUSH1 0x2C PUSH1 0x24 DUP3 ADD MSTORE PUSH32 0x46756E6374696F6E206D7573742062652063616C6C6564207468726F75676820 PUSH1 0x44 DUP3 ADD MSTORE PUSH12 0x6163746976652070726F7879 PUSH1 0xA0 SHL PUSH1 0x64 DUP3 ADD MSTORE PUSH1 0x84 SWAP1 REVERT JUMPDEST DUP1 EXTCODESIZE ISZERO PUSH2 0x1F41 JUMPI PUSH1 0x0 DUP1 MLOAD PUSH1 0x20 PUSH2 0x242B DUP4 CODECOPY DUP2 MLOAD SWAP2 MSTORE DUP1 SLOAD PUSH1 0x1 PUSH1 0x1 PUSH1 0xA0 SHL SUB NOT AND PUSH1 0x1 PUSH1 0x1 PUSH1 0xA0 SHL SUB SWAP1 SWAP3 AND SWAP2 SWAP1 SWAP2 OR SWAP1 SSTORE JUMP JUMPDEST PUSH1 0x40 MLOAD PUSH3 0x461BCD PUSH1 0xE5 SHL DUP2 MSTORE PUSH1 0x20 PUSH1 0x4 DUP3 ADD MSTORE PUSH1 0x2D PUSH1 0x24 DUP3 ADD MSTORE PUSH32 0x455243313936373A206E657720696D706C656D656E746174696F6E206973206E PUSH1 0x44 DUP3 ADD MSTORE PUSH13 0x1BDD08184818DBDB9D1C9858DD PUSH1 0x9A SHL PUSH1 0x64 DUP3 ADD MSTORE PUSH1 0x84 SWAP1 REVERT JUMPDEST SWAP2 SWAP3 SWAP1 ISZERO PUSH2 0x1FFE JUMPI POP DUP2 MLOAD ISZERO PUSH2 0x1FB0 JUMPI POP SWAP1 JUMP JUMPDEST EXTCODESIZE ISZERO PUSH2 0x1FB9 JUMPI SWAP1 JUMP JUMPDEST PUSH1 0x40 MLOAD PUSH3 0x461BCD PUSH1 0xE5 SHL DUP2 MSTORE PUSH1 0x20 PUSH1 0x4 DUP3 ADD MSTORE PUSH1 0x1D PUSH1 0x24 DUP3 ADD MSTORE PUSH32 0x416464726573733A2063616C6C20746F206E6F6E2D636F6E7472616374000000 PUSH1 0x44 DUP3 ADD MSTORE PUSH1 0x64 SWAP1 REVERT JUMPDEST DUP3 MLOAD SWAP1 SWAP2 POP ISZERO PUSH2 0x2011 JUMPI POP DUP1 MLOAD SWAP1 PUSH1 0x20 ADD REVERT JUMPDEST PUSH1 0x40 MLOAD PUSH3 0x461BCD PUSH1 0xE5 SHL DUP2 MSTORE PUSH1 0x20 PUSH1 0x4 DUP3 ADD MSTORE SWAP1 DUP2 SWAP1 PUSH2 0x2035 SWAP1 PUSH1 0x24 DUP4 ADD SWAP1 PUSH2 0x1CB2 JUMP JUMPDEST SUB SWAP1 REVERT JUMPDEST ISZERO PUSH2 0x2040 JUMPI JUMP JUMPDEST PUSH1 0x40 MLOAD PUSH3 0x461BCD PUSH1 0xE5 SHL DUP2 MSTORE PUSH1 0x20 PUSH1 0x4 DUP3 ADD MSTORE PUSH1 0x2B PUSH1 0x24 DUP3 ADD MSTORE PUSH32 0x496E697469616C697A61626C653A20636F6E7472616374206973206E6F742069 PUSH1 0x44 DUP3 ADD MSTORE PUSH11 0x6E697469616C697A696E67 PUSH1 0xA8 SHL PUSH1 0x64 DUP3 ADD MSTORE PUSH1 0x84 SWAP1 REVERT JUMPDEST SWAP1 PUSH1 0x1F DUP2 GT PUSH2 0x20A7 JUMPI POP POP POP JUMP JUMPDEST PUSH1 0x0 SWAP2 DUP3 MSTORE PUSH1 0x20 DUP3 KECCAK256 SWAP1 PUSH1 0x20 PUSH1 0x1F DUP6 ADD PUSH1 0x5 SHR DUP4 ADD SWAP5 LT PUSH2 0x20E3 JUMPI JUMPDEST PUSH1 0x1F ADD PUSH1 0x5 SHR ADD SWAP2 JUMPDEST DUP3 DUP2 LT PUSH2 0x20D8 JUMPI POP POP POP JUMP JUMPDEST DUP2 DUP2 SSTORE PUSH1 0x1 ADD PUSH2 0x20CC JUMP JUMPDEST SWAP1 SWAP3 POP DUP3 SWAP1 PUSH2 0x20C3 JUMP JUMPDEST PUSH1 0x0 NOT DUP2 EQ PUSH2 0xDB3 JUMPI PUSH1 0x1 ADD SWAP1 JUMP JUMPDEST SWAP1 DUP1 PUSH1 0x20 SWAP4 SWAP3 DUP2 DUP5 MSTORE DUP5 DUP5 ADD CALLDATACOPY PUSH1 0x0 DUP3 DUP3 ADD DUP5 ADD MSTORE PUSH1 0x1F ADD PUSH1 0x1F NOT AND ADD ADD SWAP1 JUMP JUMPDEST SWAP1 DUP1 DUP3 EQ PUSH2 0x21F1 JUMPI PUSH2 0x212F DUP2 SLOAD PUSH2 0x1BAF JUMP JUMPDEST SWAP1 PUSH1 0x1 PUSH1 0x1 PUSH1 0x40 SHL SUB DUP3 GT PUSH2 0x415 JUMPI DUP2 SWAP1 PUSH2 0x214E DUP3 PUSH2 0x10F8 DUP7 SLOAD PUSH2 0x1BAF JUMP JUMPDEST PUSH1 0x0 SWAP1 PUSH1 0x1F DUP4 GT PUSH1 0x1 EQ PUSH2 0x2185 JUMPI PUSH1 0x0 SWAP3 PUSH2 0x217A JUMPI JUMPDEST POP POP DUP2 PUSH1 0x1 SHL SWAP2 PUSH1 0x0 NOT SWAP1 PUSH1 0x3 SHL SHR NOT AND OR SWAP1 SSTORE JUMP JUMPDEST ADD SLOAD SWAP1 POP CODESIZE DUP1 PUSH2 0x2164 JUMP JUMPDEST DUP2 MSTORE PUSH1 0x20 DUP1 DUP3 KECCAK256 DUP6 DUP4 MSTORE DUP2 DUP4 KECCAK256 SWAP4 POP SWAP1 PUSH1 0x1F NOT DUP6 AND SWAP1 DUP4 SWAP1 JUMPDEST DUP3 DUP3 LT PUSH2 0x21D8 JUMPI POP POP SWAP1 DUP5 PUSH1 0x1 SWAP6 SWAP5 SWAP4 SWAP3 LT PUSH2 0x21BF JUMPI JUMPDEST POP POP POP DUP2 SHL ADD SWAP1 SSTORE JUMP JUMPDEST ADD SLOAD PUSH1 0x0 NOT PUSH1 0xF8 DUP5 PUSH1 0x3 SHL AND SHR NOT AND SWAP1 SSTORE CODESIZE DUP1 DUP1 PUSH2 0x21B5 JUMP JUMPDEST DUP5 SWAP6 DUP2 SWAP3 SWAP6 DUP6 ADD SLOAD DUP2 SSTORE PUSH1 0x1 DUP1 SWAP2 ADD SWAP7 ADD SWAP5 ADD SWAP1 PUSH2 0x219E JUMP JUMPDEST POP POP JUMP JUMPDEST SWAP1 DUP2 PUSH1 0x20 SWAP2 SUB SLT PUSH2 0x168 JUMPI MLOAD DUP1 ISZERO ISZERO DUP2 SUB PUSH2 0x168 JUMPI SWAP1 JUMP JUMPDEST SWAP6 SWAP5 SWAP4 PUSH2 0x2229 PUSH1 0x40 SWAP5 SWAP3 PUSH2 0x2237 SWAP5 PUSH1 0x60 DUP11 MSTORE PUSH1 0x60 DUP11 ADD SWAP2 PUSH2 0x20FC JUMP JUMPDEST SWAP2 DUP8 DUP4 SUB PUSH1 0x20 DUP10 ADD MSTORE PUSH2 0x20FC JUMP JUMPDEST SWAP4 ADD MSTORE JUMP JUMPDEST SWAP2 SWAP1 DUP3 ADD DUP1 SWAP3 GT PUSH2 0xDB3 JUMPI JUMP JUMPDEST PUSH1 0x5 DUP2 LT ISZERO PUSH2 0x234D JUMPI DUP1 PUSH2 0x225A JUMPI POP JUMP JUMPDEST PUSH1 0x1 DUP2 SUB PUSH2 0x22A7 JUMPI PUSH1 0x40 MLOAD PUSH3 0x461BCD PUSH1 0xE5 SHL DUP2 MSTORE PUSH1 0x20 PUSH1 0x4 DUP3 ADD MSTORE PUSH1 0x18 PUSH1 0x24 DUP3 ADD MSTORE PUSH32 0x45434453413A20696E76616C6964207369676E61747572650000000000000000 PUSH1 0x44 DUP3 ADD MSTORE PUSH1 0x64 SWAP1 REVERT JUMPDEST PUSH1 0x2 DUP2 SUB PUSH2 0x22F4 JUMPI PUSH1 0x40 MLOAD PUSH3 0x461BCD PUSH1 0xE5 SHL DUP2 MSTORE PUSH1 0x20 PUSH1 0x4 DUP3 ADD MSTORE PUSH1 0x1F PUSH1 0x24 DUP3 ADD MSTORE PUSH32 0x45434453413A20696E76616C6964207369676E6174757265206C656E67746800 PUSH1 0x44 DUP3 ADD MSTORE PUSH1 0x64 SWAP1 REVERT JUMPDEST PUSH1 0x3 EQ PUSH2 0x22FD JUMPI JUMP JUMPDEST PUSH1 0x40 MLOAD PUSH3 0x461BCD PUSH1 0xE5 SHL DUP2 MSTORE PUSH1 0x20 PUSH1 0x4 DUP3 ADD MSTORE PUSH1 0x22 PUSH1 0x24 DUP3 ADD MSTORE PUSH32 0x45434453413A20696E76616C6964207369676E6174757265202773272076616C PUSH1 0x44 DUP3 ADD MSTORE PUSH2 0x7565 PUSH1 0xF0 SHL PUSH1 0x64 DUP3 ADD MSTORE PUSH1 0x84 SWAP1 REVERT JUMPDEST PUSH4 0x4E487B71 PUSH1 0xE0 SHL PUSH1 0x0 MSTORE PUSH1 0x21 PUSH1 0x4 MSTORE PUSH1 0x24 PUSH1 0x0 REVERT JUMPDEST SWAP1 PUSH1 0x41 DUP2 MLOAD EQ PUSH1 0x0 EQ PUSH2 0x2391 JUMPI PUSH2 0x238D SWAP2 PUSH1 0x20 DUP3 ADD MLOAD SWAP1 PUSH1 0x60 PUSH1 0x40 DUP5 ADD MLOAD SWAP4 ADD MLOAD PUSH1 0x0 BYTE SWAP1 PUSH2 0x239B JUMP JUMPDEST SWAP1 SWAP2 JUMP JUMPDEST POP POP PUSH1 0x0 SWAP1 PUSH1 0x2 SWAP1 JUMP JUMPDEST SWAP3 SWAP2 SWAP1 PUSH32 0x7FFFFFFFFFFFFFFFFFFFFFFFFFFFFFFF5D576E7357A4501DDFE92F46681B20A0 DUP4 GT PUSH2 0x241E JUMPI SWAP2 PUSH1 0x80 SWAP5 SWAP4 SWAP2 PUSH1 0xFF PUSH1 0x20 SWAP5 PUSH1 0x40 MLOAD SWAP5 DUP6 MSTORE AND DUP5 DUP5 ADD MSTORE PUSH1 0x40 DUP4 ADD MSTORE PUSH1 0x60 DUP3 ADD MSTORE PUSH1 0x0 SWAP4 DUP5 SWAP2 DUP3 DUP1 MSTORE PUSH1 0x1 GAS STATICCALL ISZERO PUSH2 0x2411 JUMPI DUP2 MLOAD PUSH1 0x1 PUSH1 0x1 PUSH1 0xA0 SHL SUB DUP2 AND ISZERO PUSH2 0x240B JUMPI SWAP2 SWAP1 JUMP JUMPDEST POP PUSH1 0x1 SWAP1 JUMP JUMPDEST POP PUSH1 0x40 MLOAD SWAP1 RETURNDATASIZE SWAP1 DUP3 RETURNDATACOPY RETURNDATASIZE SWAP1 REVERT JUMPDEST POP POP POP POP PUSH1 0x0 SWAP1 PUSH1 0x3 SWAP1 JUMP INVALID CALLDATASIZE ADDMOD SWAP5 LOG1 EXTCODESIZE LOG1 LOG3 0x21 MOD PUSH8 0xC828492DB98DCA3E KECCAK256 PUSH23 0xCC3735A920A3CA505D382BBCA264697066735822122038 0xD0 DUP1 XOR 0xFB PUSH6 0x85172002C956 PUSH10 0x6A2173C533F07B6BBCE6 0x1F XOR DELEGATECALL 0xC1 NOT 0x4C 0xD7 ADDRESS SAR PUSH5 0x736F6C6343 STOP ADDMOD SGT STOP CALLER "},"gasEstimates":{"creation":{"codeDepositCost":"1868800","executionCost":"infinite","totalCost":"infinite"},"external":{"adPayout(string,string,uint256,bytes)":"infinite","addressToMarketers(address)":"infinite","addressToPromoters(address)":"infinite","claimBalance(address)":"infinite","idToAds(string)":"infinite","idToMarketers(string)":"infinite","idToPromoters(string)":"infinite","initialize()":"infinite","owner()":"2516","proxiableUUID()":"infinite","registerMarketer(string,address,string)":"infinite","registerPromoter(string,string,address)":"infinite","renounceOwnership()":"28165","submitAd(string,string,uint256,address,uint256,uint256)":"infinite","transferOwnership(address)":"28555","upgradeTo(address)":"infinite","upgradeToAndCall(address,bytes)":"infinite"},"internal":{"_authorizeUpgrade(address)":"infinite"}},"methodIdentifiers":{"adPayout(string,string,uint256,bytes)":"8114ffb5","addressToMarketers(address)":"5d6d0783","addressToPromoters(address)":"82fd00d8","claimBalance(address)":"b633e4cd","idToAds(string)":"7d53fcdb","idToMarketers(string)":"7554cd8e","idToPromoters(string)":"c123fccc","initialize()":"8129fc1c","owner()":"8da5cb5b","proxiableUUID()":"52d1902d","registerMarketer(string,address,string)":"e1e7a31b","registerPromoter(string,string,address)":"cbce2d08","renounceOwnership()":"715018a6","submitAd(string,string,uint256,address,uint256,uint256)":"69ff1595","transferOwnership(address)":"f2fde38b","upgradeTo(address)":"3659cfe6","upgradeToAndCall(address,bytes)":"4f1ef286"}},"storageLayout":{"storage":[{"astId":503,"contract":"contracts/Engagr.sol:Engagr","label":"_initialized","offset":0,"slot":"0","type":"t_uint8"},{"astId":506,"contract":"contracts/Engagr.sol:Engagr","label":"_initializing","offset":1,"slot":"0","type":"t_bool"},{"astId":485,"contract":"contracts/Engagr.sol:Engagr","label":"__gap","offset":0,"slot":"1","type":"t_array(t_uint256)50_storage"},{"astId":800,"contract":"contracts/Engagr.sol:Engagr","label":"__gap","offset":0,"slot":"51","type":"t_array(t_uint256)50_storage"},{"astId":1250,"contract":"contracts/Engagr.sol:Engagr","label":"__gap","offset":0,"slot":"101","type":"t_array(t_uint256)50_storage"},{"astId":10,"contract":"contracts/Engagr.sol:Engagr","label":"_owner","offset":0,"slot":"151","type":"t_address"},{"astId":130,"contract":"contracts/Engagr.sol:Engagr","label":"__gap","offset":0,"slot":"152","type":"t_array(t_uint256)49_storage"},{"astId":2977,"contract":"contracts/Engagr.sol:Engagr","label":"marketerCounter","offset":0,"slot":"201","type":"t_uint256"},{"astId":2979,"contract":"contracts/Engagr.sol:Engagr","label":"promoterCounter","offset":0,"slot":"202","type":"t_uint256"},{"astId":2984,"contract":"contracts/Engagr.sol:Engagr","label":"idToMarketers","offset":0,"slot":"203","type":"t_mapping(t_string_memory_ptr,t_struct(Marketer)2945_storage)"},{"astId":2989,"contract":"contracts/Engagr.sol:Engagr","label":"idToPromoters","offset":0,"slot":"204","type":"t_mapping(t_string_memory_ptr,t_struct(Promoter)2958_storage)"},{"astId":2994,"contract":"contracts/Engagr.sol:Engagr","label":"idToAds","offset":0,"slot":"205","type":"t_mapping(t_string_memory_ptr,t_struct(Ad)2975_storage)"},{"astId":2999,"contract":"contracts/Engagr.sol:Engagr","label":"addressToMarketers","offset":0,"slot":"206","type":"t_mapping(t_address,t_struct(Marketer)2945_storage)"},{"astId":3004,"contract":"contracts/Engagr.sol:Engagr","label":"addressToPromoters","offset":0,"slot":"207","type":"t_mapping(t_address,t_struct(Promoter)2958_storage)"}],"types":{"t_address":{"encoding":"inplace","label":"address","numberOfBytes":"20"},"t_array(t_uint256)49_storage":{"base":"t_uint256","encoding":"inplace","label":"uint256[49]","numberOfBytes":"1568"},"t_array(t_uint256)50_storage":{"base":"t_uint256","encoding":"inplace","label":"uint256[50]","numberOfBytes":"1600"},"t_bool":{"encoding":"inplace","label":"bool","numberOfBytes":"1"},"t_mapping(t_address,t_struct(Marketer)2945_storage)":{"encoding":"mapping","key":"t_address","label":"mapping(address => struct Engagr.Marketer)","numberOfBytes":"32","value":"t_struct(Marketer)2945_storage"},"t_mapping(t_address,t_struct(Promoter)2958_storage)":{"encoding":"mapping","key":"t_address","label":"mapping(address => struct Engagr.Promoter)","numberOfBytes":"32","value":"t_struct(Promoter)2958_storage"},"t_mapping(t_address,t_uint256)":{"encoding":"mapping","key":"t_address","label":"mapping(address => uint256)","numberOfBytes":"32","value":"t_uint256"},"t_mapping(t_string_memory_ptr,t_struct(Ad)2975_storage)":{"encoding":"mapping","key":"t_string_memory_ptr","label":"mapping(string => struct Engagr.Ad)","numberOfBytes":"32","value":"t_struct(Ad)2975_storage"},"t_mapping(t_string_memory_ptr,t_struct(Marketer)2945_storage)":{"encoding":"mapping","key":"t_string_memory_ptr","label":"mapping(string => struct Engagr.Marketer)","numberOfBytes":"32","value":"t_struct(Marketer)2945_storage"},"t_mapping(t_string_memory_ptr,t_struct(Promoter)2958_storage)":{"encoding":"mapping","key":"t_string_memory_ptr","label":"mapping(string => struct Engagr.Promoter)","numberOfBytes":"32","value":"t_struct(Promoter)2958_storage"},"t_string_memory_ptr":{"encoding":"bytes","label":"string","numberOfBytes":"32"},"t_string_storage":{"encoding":"bytes","label":"string","numberOfBytes":"32"},"t_struct(Ad)2975_storage":{"encoding":"inplace","label":"struct Engagr.Ad","members":[{"astId":2960,"contract":"contracts/Engagr.sol:Engagr","label":"id","offset":0,"slot":"0","type":"t_string_storage"},{"astId":2962,"contract":"contracts/Engagr.sol:Engagr","label":"description","offset":0,"slot":"1","type":"t_string_storage"},{"astId":2964,"contract":"contracts/Engagr.sol:Engagr","label":"amountAllocated","offset":0,"slot":"2","type":"t_uint256"},{"astId":2966,"contract":"contracts/Engagr.sol:Engagr","label":"tokenAddress","offset":0,"slot":"3","type":"t_address"},{"astId":2968,"contract":"contracts/Engagr.sol:Engagr","label":"endTimestamp","offset":0,"slot":"4","type":"t_uint256"},{"astId":2970,"contract":"contracts/Engagr.sol:Engagr","label":"requiredFollowers","offset":0,"slot":"5","type":"t_uint256"},{"astId":2972,"contract":"contracts/Engagr.sol:Engagr","label":"lockedAmount","offset":0,"slot":"6","type":"t_uint256"},{"astId":2974,"contract":"contracts/Engagr.sol:Engagr","label":"marketerAddress","offset":0,"slot":"7","type":"t_address"}],"numberOfBytes":"256"},"t_struct(Marketer)2945_storage":{"encoding":"inplace","label":"struct Engagr.Marketer","members":[{"astId":2942,"contract":"contracts/Engagr.sol:Engagr","label":"id","offset":0,"slot":"0","type":"t_string_storage"},{"astId":2944,"contract":"contracts/Engagr.sol:Engagr","label":"accountAddress","offset":0,"slot":"1","type":"t_address"}],"numberOfBytes":"64"},"t_struct(Promoter)2958_storage":{"encoding":"inplace","label":"struct Engagr.Promoter","members":[{"astId":2947,"contract":"contracts/Engagr.sol:Engagr","label":"id","offset":0,"slot":"0","type":"t_string_storage"},{"astId":2949,"contract":"contracts/Engagr.sol:Engagr","label":"twitterUsername","offset":0,"slot":"1","type":"t_string_storage"},{"astId":2951,"contract":"contracts/Engagr.sol:Engagr","label":"accountAddress","offset":0,"slot":"2","type":"t_address"},{"astId":2953,"contract":"contracts/Engagr.sol:Engagr","label":"claimableBalanceNative","offset":0,"slot":"3","type":"t_uint256"},{"astId":2957,"contract":"contracts/Engagr.sol:Engagr","label":"claimableBalanceERC20","offset":0,"slot":"4","type":"t_mapping(t_address,t_uint256)"}],"numberOfBytes":"160"},"t_uint256":{"encoding":"inplace","label":"uint256","numberOfBytes":"32"},"t_uint8":{"encoding":"inplace","label":"uint8","numberOfBytes":"1"}}},"userdoc":{"kind":"user","methods":{},"version":1}}}}