{"contracts/TestUpgradableContract.sol":{"TestUpgradableContract":{"abi":[{"inputs":[],"stateMutability":"nonpayable","type":"constructor"},{"anonymous":false,"inputs":[{"indexed":false,"internalType":"address","name":"previousAdmin","type":"address"},{"indexed":false,"internalType":"address","name":"newAdmin","type":"address"}],"name":"AdminChanged","type":"event"},{"anonymous":false,"inputs":[{"indexed":true,"internalType":"address","name":"beacon","type":"address"}],"name":"BeaconUpgraded","type":"event"},{"anonymous":false,"inputs":[{"indexed":false,"internalType":"uint8","name":"version","type":"uint8"}],"name":"Initialized","type":"event"},{"anonymous":false,"inputs":[{"indexed":true,"internalType":"address","name":"implementation","type":"address"}],"name":"Upgraded","type":"event"},{"inputs":[{"internalType":"uint256","name":"_param1","type":"uint256"},{"internalType":"string","name":"_param2","type":"string"}],"name":"initialize","outputs":[],"stateMutability":"nonpayable","type":"function"},{"inputs":[],"name":"param1","outputs":[{"internalType":"uint256","name":"","type":"uint256"}],"stateMutability":"view","type":"function"},{"inputs":[],"name":"param2","outputs":[{"internalType":"string","name":"","type":"string"}],"stateMutability":"view","type":"function"},{"inputs":[],"name":"param3","outputs":[{"internalType":"string","name":"","type":"string"}],"stateMutability":"view","type":"function"},{"inputs":[],"name":"proxiableUUID","outputs":[{"internalType":"bytes32","name":"","type":"bytes32"}],"stateMutability":"view","type":"function"},{"inputs":[{"internalType":"uint256","name":"_newParam1","type":"uint256"},{"internalType":"string","name":"_newParam2","type":"string"}],"name":"updateParams","outputs":[],"stateMutability":"nonpayable","type":"function"},{"inputs":[{"internalType":"address","name":"newImplementation","type":"address"}],"name":"upgradeTo","outputs":[],"stateMutability":"nonpayable","type":"function"},{"inputs":[{"internalType":"address","name":"newImplementation","type":"address"},{"internalType":"bytes","name":"data","type":"bytes"}],"name":"upgradeToAndCall","outputs":[],"stateMutability":"payable","type":"function"}],"devdoc":{"events":{"AdminChanged(address,address)":{"details":"Emitted when the admin account has changed."},"BeaconUpgraded(address)":{"details":"Emitted when the beacon is changed."},"Initialized(uint8)":{"details":"Triggered when the contract has been initialized or reinitialized."},"Upgraded(address)":{"details":"Emitted when the implementation is upgraded."}},"kind":"dev","methods":{"constructor":{"custom:oz-upgrades-unsafe-allow":"constructor"},"proxiableUUID()":{"details":"Implementation of the ERC1822 {proxiableUUID} function. This returns the storage slot used by the implementation. It is used to validate the implementation's compatibility when performing an upgrade. IMPORTANT: A proxy pointing at a proxiable contract should not be considered proxiable itself, because this risks bricking a proxy that upgrades to it, by delegating to itself until out of gas. Thus it is critical that this function revert if invoked through a proxy. This is guaranteed by the `notDelegated` modifier."},"upgradeTo(address)":{"custom:oz-upgrades-unsafe-allow-reachable":"delegatecall","details":"Upgrade the implementation of the proxy to `newImplementation`. Calls {_authorizeUpgrade}. Emits an {Upgraded} event."},"upgradeToAndCall(address,bytes)":{"custom:oz-upgrades-unsafe-allow-reachable":"delegatecall","details":"Upgrade the implementation of the proxy to `newImplementation`, and subsequently execute the function call encoded in `data`. Calls {_authorizeUpgrade}. Emits an {Upgraded} event."}},"version":1},"evm":{"bytecode":{"linkReferences":{},"object":"60a080604052346100dc57306080526000549060ff8260081c1661008a575060ff8082160361004f575b6040516110ed90816100e282396080518181816105940152818161069201526109800152f35b60ff90811916176000557f7f26b83ff96e1f2b6a682f133852f6798a09c465da95921460cefb3847402498602060405160ff8152a138610029565b62461bcd60e51b815260206004820152602760248201527f496e697469616c697a61626c653a20636f6e747261637420697320696e697469604482015266616c697a696e6760c81b6064820152608490fd5b600080fdfe608060408181526004918236101561001657600080fd5b600091823560e01c91826302d9151814610ceb575081631f049b6814610c535781633659cfe6146109585781634f1ef2861461064157816352d1902d1461057f5781635ccea9a51461049a5781636e9d13ab146101ca57506382c0a3401461007d57600080fd5b346101c75761008b36610e4c565b929060655582519067ffffffffffffffff82116101b457506100ae606654610d07565b601f8111610163575b50602080601f83116001146100f4575082938293926100e9575b50508160011b916000199060031b1c19161760665580f35b0151905038806100d1565b60668452601f19831694600080516020611078833981519152929185905b87821061014b575050836001959610610132575b505050811b0160665580f35b015160001960f88460031b161c19169055388080610126565b80600185968294968601518155019501930190610112565b60668352600080516020611078833981519152601f830160051c810191602084106101aa575b601f0160051c01905b81811061019f57506100b7565b838155600101610192565b9091508190610189565b634e487b7160e01b835260419052602482fd5b80fd5b90508234610496576101db36610e4c565b9084549160ff8360081c161591828093610489575b8015610472575b1561041857600193838560ff198316178955610407575b5060655580519067ffffffffffffffff82116103f4578190610231606654610d07565b601f8111610396575b50602090601f831160011461032957889261031e575b5050600019600383901b1c191690831b176066555b84549260ff8460081c16156102c75750606780546001600160a01b0319163317905561028f578380f35b7f7f26b83ff96e1f2b6a682f133852f6798a09c465da95921460cefb38474024989260209261ff001916855551908152a18180808380f35b608490602086519162461bcd60e51b8352820152602b60248201527f496e697469616c697a61626c653a20636f6e7472616374206973206e6f74206960448201526a6e697469616c697a696e6760a81b6064820152fd5b015190508780610250565b606689528593506000805160206110788339815191529190601f1984168a5b81811061037e57508411610365575b505050811b01606655610265565b015160001960f88460031b161c19169055878080610357565b82840151855588969094019360209384019301610348565b90915060668852600080516020611078833981519152601f840160051c810191602085106103ea575b84939291601f88920160051c01915b8281106103dc57505061023a565b8a81558594508791016103ce565b90915081906103bf565b634e487b7160e01b875260418552602487fd5b61ffff19166101011787558761020e565b855162461bcd60e51b8152602081870152602e60248201527f496e697469616c697a61626c653a20636f6e747261637420697320616c72656160448201526d191e481a5b9a5d1a585b1a5e995960921b6064820152608490fd5b50303b1580156101f75750600160ff8516146101f7565b50600160ff8516106101f0565b8280fd5b90503461057b578160031936011261057b57805190826068546104bc81610d07565b8085529160019180831690811561055357506001146104f6575b5050506104e8826104f2940383610d73565b5191829182610d95565b0390f35b9450606885527fa2153420d844928b4421650203c77babc8b33d7f2e7b450e2966db0c220977535b82861061053b575050506104e88260206104f295820101946104d6565b8054602087870181019190915290950194810161051e565b6104f29750869350602092506104e894915060ff191682840152151560051b820101946104d6565b5080fd5b8383346101c757806003193601126101c757507f00000000000000000000000000000000000000000000000000000000000000006001600160a01b031630036105d957602082516000805160206110988339815191528152f35b6020608492519162461bcd60e51b8352820152603860248201527f555550535570677261646561626c653a206d757374206e6f742062652063616c60448201527f6c6564207468726f7567682064656c656761746563616c6c00000000000000006064820152fd5b8391508060031936011261049657610657610dde565b9060243567ffffffffffffffff81116109545736602382011215610954576106889036906024818701359101610e15565b6001600160a01b037f000000000000000000000000000000000000000000000000000000000000000081169291906106c230851415610e90565b6106df600080516020611098833981519152948286541614610ef1565b8060675416330361091b577f4910fdfa16fed3260ed0e7147f7cc6da11a60208b5b9406d12a635614ffd91435460ff161561072557505050506107229150610f52565b80f35b82516352d1902d60e01b81526020959394918416919086818981865afa8991816108e8575b506107a957855162461bcd60e51b8152808901889052602e60248201527f45524331393637557067726164653a206e657720696d706c656d656e7461746960448201526d6f6e206973206e6f74205555505360901b6064820152608490fd5b969192959493960361089357506107bf85610f52565b7fbc7cd75a20ee27fd9adebab32041f755214dbc6bffa90cc0225b39da2e5c2d3b8680a282511580159061088b575b6107fa575b5050505080f35b61087793858083519561080c87610d41565b602787527f416464726573733a206c6f772d6c6576656c2064656c65676174652063616c6c86880152660819985a5b195960ca1b858801528581519101845af4913d15610881573d61086961086082610df9565b92519283610d73565b81528681943d92013e610fe2565b50818080806107f3565b5060609250610fe2565b5060016107ee565b825162461bcd60e51b8152908101849052602960248201527f45524331393637557067726164653a20756e737570706f727465642070726f786044820152681a58589b195555525160ba1b6064820152608490fd5b9091508781813d8311610914575b6109008183610d73565b810103126109105751908a61074a565b8980fd5b503d6108f6565b825162461bcd60e51b81526020818801526013602482015272556e617574686f72697a65642041636365737360681b6044820152606490fd5b8480fd5b8391503461049657602080600319360112610c4f57610975610dde565b916001600160a01b037f000000000000000000000000000000000000000000000000000000000000000081166109ad30821415610e90565b6109ca600080516020611098833981519152918383541614610ef1565b81606754163303610c16578251908482019282841067ffffffffffffffff851117610c03578385528883527f4910fdfa16fed3260ed0e7147f7cc6da11a60208b5b9406d12a635614ffd91435460ff1615610a2f575050505050506107229150610f52565b869293949596169085516352d1902d60e01b815287818a81865afa8a9181610bd0575b50610ab157865162461bcd60e51b8152808a01899052602e60248201527f45524331393637557067726164653a206e657720696d706c656d656e7461746960448201526d6f6e206973206e6f74205555505360901b6064820152608490fd5b979192939695949703610b7b5750610ac882610f52565b7fbc7cd75a20ee27fd9adebab32041f755214dbc6bffa90cc0225b39da2e5c2d3b8780a285845115801590610b74575b610b06575b50505050505080f35b80610b6896845196610b1788610d41565b602788527f416464726573733a206c6f772d6c6576656c2064656c65676174652063616c6c87890152660819985a5b195960ca1b868901525190845af4913d15610881573d61086961086082610df9565b50818080808085610afd565b5080610af8565b835162461bcd60e51b8152908101859052602960248201527f45524331393637557067726164653a20756e737570706f727465642070726f786044820152681a58589b195555525160ba1b6064820152608490fd5b9091508881813d8311610bfc575b610be88183610d73565b81010312610bf85751908b610a52565b8a80fd5b503d610bde565b634e487b7160e01b895260418852602489fd5b825162461bcd60e51b81528087018590526013602482015272556e617574686f72697a65642041636365737360681b6044820152606490fd5b8380fd5b90503461057b578160031936011261057b5780519082606654610c7581610d07565b808552916001918083169081156105535750600114610ca0575050506104e8826104f2940383610d73565b9450606685526000805160206110788339815191525b828610610cd3575050506104e88260206104f295820101946104d6565b80546020878701810191909152909501948101610cb6565b83903461057b578160031936011261057b576020906065548152f35b90600182811c92168015610d37575b6020831014610d2157565b634e487b7160e01b600052602260045260246000fd5b91607f1691610d16565b6060810190811067ffffffffffffffff821117610d5d57604052565b634e487b7160e01b600052604160045260246000fd5b90601f8019910116810190811067ffffffffffffffff821117610d5d57604052565b6020808252825181830181905290939260005b828110610dca57505060409293506000838284010152601f8019910116010190565b818101860151848201604001528501610da8565b600435906001600160a01b0382168203610df457565b600080fd5b67ffffffffffffffff8111610d5d57601f01601f191660200190565b929192610e2182610df9565b91610e2f6040519384610d73565b829481845281830111610df4578281602093846000960137010152565b906040600319830112610df457600435916024359067ffffffffffffffff8211610df45780602383011215610df457816024610e8d93600401359101610e15565b90565b15610e9757565b60405162461bcd60e51b815260206004820152602c60248201527f46756e6374696f6e206d7573742062652063616c6c6564207468726f7567682060448201526b19195b1959d85d1958d85b1b60a21b6064820152608490fd5b15610ef857565b60405162461bcd60e51b815260206004820152602c60248201527f46756e6374696f6e206d7573742062652063616c6c6564207468726f7567682060448201526b6163746976652070726f787960a01b6064820152608490fd5b803b15610f875760008051602061109883398151915280546001600160a01b0319166001600160a01b03909216919091179055565b60405162461bcd60e51b815260206004820152602d60248201527f455243313936373a206e657720696d706c656d656e746174696f6e206973206e60448201526c1bdd08184818dbdb9d1c9858dd609a1b6064820152608490fd5b919290156110445750815115610ff6575090565b3b15610fff5790565b60405162461bcd60e51b815260206004820152601d60248201527f416464726573733a2063616c6c20746f206e6f6e2d636f6e74726163740000006044820152606490fd5b8251909150156110575750805190602001fd5b60405162461bcd60e51b81529081906110739060048301610d95565b0390fdfe46501879b8ca8525e8c2fd519e2fbfcfa2ebea26501294aa02cbfcfb12e94354360894a13ba1a3210667c828492db98dca3e2076cc3735a920a3ca505d382bbca26469706673582212205de0ab4176e94787c39e09bc024ac16d7c9152b1dca41a8dfefd902790bda68464736f6c63430008130033","opcodes":"PUSH1 0xA0 DUP1 PUSH1 0x40 MSTORE CALLVALUE PUSH2 0xDC JUMPI ADDRESS PUSH1 0x80 MSTORE PUSH1 0x0 SLOAD SWAP1 PUSH1 0xFF DUP3 PUSH1 0x8 SHR AND PUSH2 0x8A JUMPI POP PUSH1 0xFF DUP1 DUP3 AND SUB PUSH2 0x4F JUMPI JUMPDEST PUSH1 0x40 MLOAD PUSH2 0x10ED SWAP1 DUP2 PUSH2 0xE2 DUP3 CODECOPY PUSH1 0x80 MLOAD DUP2 DUP2 DUP2 PUSH2 0x594 ADD MSTORE DUP2 DUP2 PUSH2 0x692 ADD MSTORE PUSH2 0x980 ADD MSTORE RETURN JUMPDEST PUSH1 0xFF SWAP1 DUP2 NOT AND OR PUSH1 0x0 SSTORE PUSH32 0x7F26B83FF96E1F2B6A682F133852F6798A09C465DA95921460CEFB3847402498 PUSH1 0x20 PUSH1 0x40 MLOAD PUSH1 0xFF DUP2 MSTORE LOG1 CODESIZE PUSH2 0x29 JUMP JUMPDEST PUSH3 0x461BCD PUSH1 0xE5 SHL DUP2 MSTORE PUSH1 0x20 PUSH1 0x4 DUP3 ADD MSTORE PUSH1 0x27 PUSH1 0x24 DUP3 ADD MSTORE PUSH32 0x496E697469616C697A61626C653A20636F6E747261637420697320696E697469 PUSH1 0x44 DUP3 ADD MSTORE PUSH7 0x616C697A696E67 PUSH1 0xC8 SHL PUSH1 0x64 DUP3 ADD MSTORE PUSH1 0x84 SWAP1 REVERT JUMPDEST PUSH1 0x0 DUP1 REVERT INVALID PUSH1 0x80 PUSH1 0x40 DUP2 DUP2 MSTORE PUSH1 0x4 SWAP2 DUP3 CALLDATASIZE LT ISZERO PUSH2 0x16 JUMPI PUSH1 0x0 DUP1 REVERT JUMPDEST PUSH1 0x0 SWAP2 DUP3 CALLDATALOAD PUSH1 0xE0 SHR SWAP2 DUP3 PUSH4 0x2D91518 EQ PUSH2 0xCEB JUMPI POP DUP2 PUSH4 0x1F049B68 EQ PUSH2 0xC53 JUMPI DUP2 PUSH4 0x3659CFE6 EQ PUSH2 0x958 JUMPI DUP2 PUSH4 0x4F1EF286 EQ PUSH2 0x641 JUMPI DUP2 PUSH4 0x52D1902D EQ PUSH2 0x57F JUMPI DUP2 PUSH4 0x5CCEA9A5 EQ PUSH2 0x49A JUMPI DUP2 PUSH4 0x6E9D13AB EQ PUSH2 0x1CA JUMPI POP PUSH4 0x82C0A340 EQ PUSH2 0x7D JUMPI PUSH1 0x0 DUP1 REVERT JUMPDEST CALLVALUE PUSH2 0x1C7 JUMPI PUSH2 0x8B CALLDATASIZE PUSH2 0xE4C JUMP JUMPDEST SWAP3 SWAP1 PUSH1 0x65 SSTORE DUP3 MLOAD SWAP1 PUSH8 0xFFFFFFFFFFFFFFFF DUP3 GT PUSH2 0x1B4 JUMPI POP PUSH2 0xAE PUSH1 0x66 SLOAD PUSH2 0xD07 JUMP JUMPDEST PUSH1 0x1F DUP2 GT PUSH2 0x163 JUMPI JUMPDEST POP PUSH1 0x20 DUP1 PUSH1 0x1F DUP4 GT PUSH1 0x1 EQ PUSH2 0xF4 JUMPI POP DUP3 SWAP4 DUP3 SWAP4 SWAP3 PUSH2 0xE9 JUMPI JUMPDEST POP POP DUP2 PUSH1 0x1 SHL SWAP2 PUSH1 0x0 NOT SWAP1 PUSH1 0x3 SHL SHR NOT AND OR PUSH1 0x66 SSTORE DUP1 RETURN JUMPDEST ADD MLOAD SWAP1 POP CODESIZE DUP1 PUSH2 0xD1 JUMP JUMPDEST PUSH1 0x66 DUP5 MSTORE PUSH1 0x1F NOT DUP4 AND SWAP5 PUSH1 0x0 DUP1 MLOAD PUSH1 0x20 PUSH2 0x1078 DUP4 CODECOPY DUP2 MLOAD SWAP2 MSTORE SWAP3 SWAP2 DUP6 SWAP1 JUMPDEST DUP8 DUP3 LT PUSH2 0x14B JUMPI POP POP DUP4 PUSH1 0x1 SWAP6 SWAP7 LT PUSH2 0x132 JUMPI JUMPDEST POP POP POP DUP2 SHL ADD PUSH1 0x66 SSTORE DUP1 RETURN JUMPDEST ADD MLOAD PUSH1 0x0 NOT PUSH1 0xF8 DUP5 PUSH1 0x3 SHL AND SHR NOT AND SWAP1 SSTORE CODESIZE DUP1 DUP1 PUSH2 0x126 JUMP JUMPDEST DUP1 PUSH1 0x1 DUP6 SWAP7 DUP3 SWAP5 SWAP7 DUP7 ADD MLOAD DUP2 SSTORE ADD SWAP6 ADD SWAP4 ADD SWAP1 PUSH2 0x112 JUMP JUMPDEST PUSH1 0x66 DUP4 MSTORE PUSH1 0x0 DUP1 MLOAD PUSH1 0x20 PUSH2 0x1078 DUP4 CODECOPY DUP2 MLOAD SWAP2 MSTORE PUSH1 0x1F DUP4 ADD PUSH1 0x5 SHR DUP2 ADD SWAP2 PUSH1 0x20 DUP5 LT PUSH2 0x1AA JUMPI JUMPDEST PUSH1 0x1F ADD PUSH1 0x5 SHR ADD SWAP1 JUMPDEST DUP2 DUP2 LT PUSH2 0x19F JUMPI POP PUSH2 0xB7 JUMP JUMPDEST DUP4 DUP2 SSTORE PUSH1 0x1 ADD PUSH2 0x192 JUMP JUMPDEST SWAP1 SWAP2 POP DUP2 SWAP1 PUSH2 0x189 JUMP JUMPDEST PUSH4 0x4E487B71 PUSH1 0xE0 SHL DUP4 MSTORE PUSH1 0x41 SWAP1 MSTORE PUSH1 0x24 DUP3 REVERT JUMPDEST DUP1 REVERT JUMPDEST SWAP1 POP DUP3 CALLVALUE PUSH2 0x496 JUMPI PUSH2 0x1DB CALLDATASIZE PUSH2 0xE4C JUMP JUMPDEST SWAP1 DUP5 SLOAD SWAP2 PUSH1 0xFF DUP4 PUSH1 0x8 SHR AND ISZERO SWAP2 DUP3 DUP1 SWAP4 PUSH2 0x489 JUMPI JUMPDEST DUP1 ISZERO PUSH2 0x472 JUMPI JUMPDEST ISZERO PUSH2 0x418 JUMPI PUSH1 0x1 SWAP4 DUP4 DUP6 PUSH1 0xFF NOT DUP4 AND OR DUP10 SSTORE PUSH2 0x407 JUMPI JUMPDEST POP PUSH1 0x65 SSTORE DUP1 MLOAD SWAP1 PUSH8 0xFFFFFFFFFFFFFFFF DUP3 GT PUSH2 0x3F4 JUMPI DUP2 SWAP1 PUSH2 0x231 PUSH1 0x66 SLOAD PUSH2 0xD07 JUMP JUMPDEST PUSH1 0x1F DUP2 GT PUSH2 0x396 JUMPI JUMPDEST POP PUSH1 0x20 SWAP1 PUSH1 0x1F DUP4 GT PUSH1 0x1 EQ PUSH2 0x329 JUMPI DUP9 SWAP3 PUSH2 0x31E JUMPI JUMPDEST POP POP PUSH1 0x0 NOT PUSH1 0x3 DUP4 SWAP1 SHL SHR NOT AND SWAP1 DUP4 SHL OR PUSH1 0x66 SSTORE JUMPDEST DUP5 SLOAD SWAP3 PUSH1 0xFF DUP5 PUSH1 0x8 SHR AND ISZERO PUSH2 0x2C7 JUMPI POP PUSH1 0x67 DUP1 SLOAD PUSH1 0x1 PUSH1 0x1 PUSH1 0xA0 SHL SUB NOT AND CALLER OR SWAP1 SSTORE PUSH2 0x28F JUMPI DUP4 DUP1 RETURN JUMPDEST PUSH32 0x7F26B83FF96E1F2B6A682F133852F6798A09C465DA95921460CEFB3847402498 SWAP3 PUSH1 0x20 SWAP3 PUSH2 0xFF00 NOT AND DUP6 SSTORE MLOAD SWAP1 DUP2 MSTORE LOG1 DUP2 DUP1 DUP1 DUP4 DUP1 RETURN JUMPDEST PUSH1 0x84 SWAP1 PUSH1 0x20 DUP7 MLOAD SWAP2 PUSH3 0x461BCD PUSH1 0xE5 SHL DUP4 MSTORE DUP3 ADD MSTORE PUSH1 0x2B PUSH1 0x24 DUP3 ADD MSTORE PUSH32 0x496E697469616C697A61626C653A20636F6E7472616374206973206E6F742069 PUSH1 0x44 DUP3 ADD MSTORE PUSH11 0x6E697469616C697A696E67 PUSH1 0xA8 SHL PUSH1 0x64 DUP3 ADD MSTORE REVERT JUMPDEST ADD MLOAD SWAP1 POP DUP8 DUP1 PUSH2 0x250 JUMP JUMPDEST PUSH1 0x66 DUP10 MSTORE DUP6 SWAP4 POP PUSH1 0x0 DUP1 MLOAD PUSH1 0x20 PUSH2 0x1078 DUP4 CODECOPY DUP2 MLOAD SWAP2 MSTORE SWAP2 SWAP1 PUSH1 0x1F NOT DUP5 AND DUP11 JUMPDEST DUP2 DUP2 LT PUSH2 0x37E JUMPI POP DUP5 GT PUSH2 0x365 JUMPI JUMPDEST POP POP POP DUP2 SHL ADD PUSH1 0x66 SSTORE PUSH2 0x265 JUMP JUMPDEST ADD MLOAD PUSH1 0x0 NOT PUSH1 0xF8 DUP5 PUSH1 0x3 SHL AND SHR NOT AND SWAP1 SSTORE DUP8 DUP1 DUP1 PUSH2 0x357 JUMP JUMPDEST DUP3 DUP5 ADD MLOAD DUP6 SSTORE DUP9 SWAP7 SWAP1 SWAP5 ADD SWAP4 PUSH1 0x20 SWAP4 DUP5 ADD SWAP4 ADD PUSH2 0x348 JUMP JUMPDEST SWAP1 SWAP2 POP PUSH1 0x66 DUP9 MSTORE PUSH1 0x0 DUP1 MLOAD PUSH1 0x20 PUSH2 0x1078 DUP4 CODECOPY DUP2 MLOAD SWAP2 MSTORE PUSH1 0x1F DUP5 ADD PUSH1 0x5 SHR DUP2 ADD SWAP2 PUSH1 0x20 DUP6 LT PUSH2 0x3EA JUMPI JUMPDEST DUP5 SWAP4 SWAP3 SWAP2 PUSH1 0x1F DUP9 SWAP3 ADD PUSH1 0x5 SHR ADD SWAP2 JUMPDEST DUP3 DUP2 LT PUSH2 0x3DC JUMPI POP POP PUSH2 0x23A JUMP JUMPDEST DUP11 DUP2 SSTORE DUP6 SWAP5 POP DUP8 SWAP2 ADD PUSH2 0x3CE JUMP JUMPDEST SWAP1 SWAP2 POP DUP2 SWAP1 PUSH2 0x3BF JUMP JUMPDEST PUSH4 0x4E487B71 PUSH1 0xE0 SHL DUP8 MSTORE PUSH1 0x41 DUP6 MSTORE PUSH1 0x24 DUP8 REVERT JUMPDEST PUSH2 0xFFFF NOT AND PUSH2 0x101 OR DUP8 SSTORE DUP8 PUSH2 0x20E JUMP JUMPDEST DUP6 MLOAD PUSH3 0x461BCD PUSH1 0xE5 SHL DUP2 MSTORE PUSH1 0x20 DUP2 DUP8 ADD MSTORE PUSH1 0x2E PUSH1 0x24 DUP3 ADD MSTORE PUSH32 0x496E697469616C697A61626C653A20636F6E747261637420697320616C726561 PUSH1 0x44 DUP3 ADD MSTORE PUSH14 0x191E481A5B9A5D1A585B1A5E9959 PUSH1 0x92 SHL PUSH1 0x64 DUP3 ADD MSTORE PUSH1 0x84 SWAP1 REVERT JUMPDEST POP ADDRESS EXTCODESIZE ISZERO DUP1 ISZERO PUSH2 0x1F7 JUMPI POP PUSH1 0x1 PUSH1 0xFF DUP6 AND EQ PUSH2 0x1F7 JUMP JUMPDEST POP PUSH1 0x1 PUSH1 0xFF DUP6 AND LT PUSH2 0x1F0 JUMP JUMPDEST DUP3 DUP1 REVERT JUMPDEST SWAP1 POP CALLVALUE PUSH2 0x57B JUMPI DUP2 PUSH1 0x3 NOT CALLDATASIZE ADD SLT PUSH2 0x57B JUMPI DUP1 MLOAD SWAP1 DUP3 PUSH1 0x68 SLOAD PUSH2 0x4BC DUP2 PUSH2 0xD07 JUMP JUMPDEST DUP1 DUP6 MSTORE SWAP2 PUSH1 0x1 SWAP2 DUP1 DUP4 AND SWAP1 DUP2 ISZERO PUSH2 0x553 JUMPI POP PUSH1 0x1 EQ PUSH2 0x4F6 JUMPI JUMPDEST POP POP POP PUSH2 0x4E8 DUP3 PUSH2 0x4F2 SWAP5 SUB DUP4 PUSH2 0xD73 JUMP JUMPDEST MLOAD SWAP2 DUP3 SWAP2 DUP3 PUSH2 0xD95 JUMP JUMPDEST SUB SWAP1 RETURN JUMPDEST SWAP5 POP PUSH1 0x68 DUP6 MSTORE PUSH32 0xA2153420D844928B4421650203C77BABC8B33D7F2E7B450E2966DB0C22097753 JUMPDEST DUP3 DUP7 LT PUSH2 0x53B JUMPI POP POP POP PUSH2 0x4E8 DUP3 PUSH1 0x20 PUSH2 0x4F2 SWAP6 DUP3 ADD ADD SWAP5 PUSH2 0x4D6 JUMP JUMPDEST DUP1 SLOAD PUSH1 0x20 DUP8 DUP8 ADD DUP2 ADD SWAP2 SWAP1 SWAP2 MSTORE SWAP1 SWAP6 ADD SWAP5 DUP2 ADD PUSH2 0x51E JUMP JUMPDEST PUSH2 0x4F2 SWAP8 POP DUP7 SWAP4 POP PUSH1 0x20 SWAP3 POP PUSH2 0x4E8 SWAP5 SWAP2 POP PUSH1 0xFF NOT AND DUP3 DUP5 ADD MSTORE ISZERO ISZERO PUSH1 0x5 SHL DUP3 ADD ADD SWAP5 PUSH2 0x4D6 JUMP JUMPDEST POP DUP1 REVERT JUMPDEST DUP4 DUP4 CALLVALUE PUSH2 0x1C7 JUMPI DUP1 PUSH1 0x3 NOT CALLDATASIZE ADD SLT PUSH2 0x1C7 JUMPI POP PUSH32 0x0 PUSH1 0x1 PUSH1 0x1 PUSH1 0xA0 SHL SUB AND ADDRESS SUB PUSH2 0x5D9 JUMPI PUSH1 0x20 DUP3 MLOAD PUSH1 0x0 DUP1 MLOAD PUSH1 0x20 PUSH2 0x1098 DUP4 CODECOPY DUP2 MLOAD SWAP2 MSTORE DUP2 MSTORE RETURN JUMPDEST PUSH1 0x20 PUSH1 0x84 SWAP3 MLOAD SWAP2 PUSH3 0x461BCD PUSH1 0xE5 SHL DUP4 MSTORE DUP3 ADD MSTORE PUSH1 0x38 PUSH1 0x24 DUP3 ADD MSTORE PUSH32 0x555550535570677261646561626C653A206D757374206E6F742062652063616C PUSH1 0x44 DUP3 ADD MSTORE PUSH32 0x6C6564207468726F7567682064656C656761746563616C6C0000000000000000 PUSH1 0x64 DUP3 ADD MSTORE REVERT JUMPDEST DUP4 SWAP2 POP DUP1 PUSH1 0x3 NOT CALLDATASIZE ADD SLT PUSH2 0x496 JUMPI PUSH2 0x657 PUSH2 0xDDE JUMP JUMPDEST SWAP1 PUSH1 0x24 CALLDATALOAD PUSH8 0xFFFFFFFFFFFFFFFF DUP2 GT PUSH2 0x954 JUMPI CALLDATASIZE PUSH1 0x23 DUP3 ADD SLT ISZERO PUSH2 0x954 JUMPI PUSH2 0x688 SWAP1 CALLDATASIZE SWAP1 PUSH1 0x24 DUP2 DUP8 ADD CALLDATALOAD SWAP2 ADD PUSH2 0xE15 JUMP JUMPDEST PUSH1 0x1 PUSH1 0x1 PUSH1 0xA0 SHL SUB PUSH32 0x0 DUP2 AND SWAP3 SWAP2 SWAP1 PUSH2 0x6C2 ADDRESS DUP6 EQ ISZERO PUSH2 0xE90 JUMP JUMPDEST PUSH2 0x6DF PUSH1 0x0 DUP1 MLOAD PUSH1 0x20 PUSH2 0x1098 DUP4 CODECOPY DUP2 MLOAD SWAP2 MSTORE SWAP5 DUP3 DUP7 SLOAD AND EQ PUSH2 0xEF1 JUMP JUMPDEST DUP1 PUSH1 0x67 SLOAD AND CALLER SUB PUSH2 0x91B JUMPI PUSH32 0x4910FDFA16FED3260ED0E7147F7CC6DA11A60208B5B9406D12A635614FFD9143 SLOAD PUSH1 0xFF AND ISZERO PUSH2 0x725 JUMPI POP POP POP POP PUSH2 0x722 SWAP2 POP PUSH2 0xF52 JUMP JUMPDEST DUP1 RETURN JUMPDEST DUP3 MLOAD PUSH4 0x52D1902D PUSH1 0xE0 SHL DUP2 MSTORE PUSH1 0x20 SWAP6 SWAP4 SWAP5 SWAP2 DUP5 AND SWAP2 SWAP1 DUP7 DUP2 DUP10 DUP2 DUP7 GAS STATICCALL DUP10 SWAP2 DUP2 PUSH2 0x8E8 JUMPI JUMPDEST POP PUSH2 0x7A9 JUMPI DUP6 MLOAD PUSH3 0x461BCD PUSH1 0xE5 SHL DUP2 MSTORE DUP1 DUP10 ADD DUP9 SWAP1 MSTORE PUSH1 0x2E PUSH1 0x24 DUP3 ADD MSTORE PUSH32 0x45524331393637557067726164653A206E657720696D706C656D656E74617469 PUSH1 0x44 DUP3 ADD MSTORE PUSH14 0x6F6E206973206E6F742055555053 PUSH1 0x90 SHL PUSH1 0x64 DUP3 ADD MSTORE PUSH1 0x84 SWAP1 REVERT JUMPDEST SWAP7 SWAP2 SWAP3 SWAP6 SWAP5 SWAP4 SWAP7 SUB PUSH2 0x893 JUMPI POP PUSH2 0x7BF DUP6 PUSH2 0xF52 JUMP JUMPDEST PUSH32 0xBC7CD75A20EE27FD9ADEBAB32041F755214DBC6BFFA90CC0225B39DA2E5C2D3B DUP7 DUP1 LOG2 DUP3 MLOAD ISZERO DUP1 ISZERO SWAP1 PUSH2 0x88B JUMPI JUMPDEST PUSH2 0x7FA JUMPI JUMPDEST POP POP POP POP DUP1 RETURN JUMPDEST PUSH2 0x877 SWAP4 DUP6 DUP1 DUP4 MLOAD SWAP6 PUSH2 0x80C DUP8 PUSH2 0xD41 JUMP JUMPDEST PUSH1 0x27 DUP8 MSTORE PUSH32 0x416464726573733A206C6F772D6C6576656C2064656C65676174652063616C6C DUP7 DUP9 ADD MSTORE PUSH7 0x819985A5B1959 PUSH1 0xCA SHL DUP6 DUP9 ADD MSTORE DUP6 DUP2 MLOAD SWAP2 ADD DUP5 GAS DELEGATECALL SWAP2 RETURNDATASIZE ISZERO PUSH2 0x881 JUMPI RETURNDATASIZE PUSH2 0x869 PUSH2 0x860 DUP3 PUSH2 0xDF9 JUMP JUMPDEST SWAP3 MLOAD SWAP3 DUP4 PUSH2 0xD73 JUMP JUMPDEST DUP2 MSTORE DUP7 DUP2 SWAP5 RETURNDATASIZE SWAP3 ADD RETURNDATACOPY PUSH2 0xFE2 JUMP JUMPDEST POP DUP2 DUP1 DUP1 DUP1 PUSH2 0x7F3 JUMP JUMPDEST POP PUSH1 0x60 SWAP3 POP PUSH2 0xFE2 JUMP JUMPDEST POP PUSH1 0x1 PUSH2 0x7EE JUMP JUMPDEST DUP3 MLOAD PUSH3 0x461BCD PUSH1 0xE5 SHL DUP2 MSTORE SWAP1 DUP2 ADD DUP5 SWAP1 MSTORE PUSH1 0x29 PUSH1 0x24 DUP3 ADD MSTORE PUSH32 0x45524331393637557067726164653A20756E737570706F727465642070726F78 PUSH1 0x44 DUP3 ADD MSTORE PUSH9 0x1A58589B1955555251 PUSH1 0xBA SHL PUSH1 0x64 DUP3 ADD MSTORE PUSH1 0x84 SWAP1 REVERT JUMPDEST SWAP1 SWAP2 POP DUP8 DUP2 DUP2 RETURNDATASIZE DUP4 GT PUSH2 0x914 JUMPI JUMPDEST PUSH2 0x900 DUP2 DUP4 PUSH2 0xD73 JUMP JUMPDEST DUP2 ADD SUB SLT PUSH2 0x910 JUMPI MLOAD SWAP1 DUP11 PUSH2 0x74A JUMP JUMPDEST DUP10 DUP1 REVERT JUMPDEST POP RETURNDATASIZE PUSH2 0x8F6 JUMP JUMPDEST DUP3 MLOAD PUSH3 0x461BCD PUSH1 0xE5 SHL DUP2 MSTORE PUSH1 0x20 DUP2 DUP9 ADD MSTORE PUSH1 0x13 PUSH1 0x24 DUP3 ADD MSTORE PUSH19 0x556E617574686F72697A656420416363657373 PUSH1 0x68 SHL PUSH1 0x44 DUP3 ADD MSTORE PUSH1 0x64 SWAP1 REVERT JUMPDEST DUP5 DUP1 REVERT JUMPDEST DUP4 SWAP2 POP CALLVALUE PUSH2 0x496 JUMPI PUSH1 0x20 DUP1 PUSH1 0x3 NOT CALLDATASIZE ADD SLT PUSH2 0xC4F JUMPI PUSH2 0x975 PUSH2 0xDDE JUMP JUMPDEST SWAP2 PUSH1 0x1 PUSH1 0x1 PUSH1 0xA0 SHL SUB PUSH32 0x0 DUP2 AND PUSH2 0x9AD ADDRESS DUP3 EQ ISZERO PUSH2 0xE90 JUMP JUMPDEST PUSH2 0x9CA PUSH1 0x0 DUP1 MLOAD PUSH1 0x20 PUSH2 0x1098 DUP4 CODECOPY DUP2 MLOAD SWAP2 MSTORE SWAP2 DUP4 DUP4 SLOAD AND EQ PUSH2 0xEF1 JUMP JUMPDEST DUP2 PUSH1 0x67 SLOAD AND CALLER SUB PUSH2 0xC16 JUMPI DUP3 MLOAD SWAP1 DUP5 DUP3 ADD SWAP3 DUP3 DUP5 LT PUSH8 0xFFFFFFFFFFFFFFFF DUP6 GT OR PUSH2 0xC03 JUMPI DUP4 DUP6 MSTORE DUP9 DUP4 MSTORE PUSH32 0x4910FDFA16FED3260ED0E7147F7CC6DA11A60208B5B9406D12A635614FFD9143 SLOAD PUSH1 0xFF AND ISZERO PUSH2 0xA2F JUMPI POP POP POP POP POP POP PUSH2 0x722 SWAP2 POP PUSH2 0xF52 JUMP JUMPDEST DUP7 SWAP3 SWAP4 SWAP5 SWAP6 SWAP7 AND SWAP1 DUP6 MLOAD PUSH4 0x52D1902D PUSH1 0xE0 SHL DUP2 MSTORE DUP8 DUP2 DUP11 DUP2 DUP7 GAS STATICCALL DUP11 SWAP2 DUP2 PUSH2 0xBD0 JUMPI JUMPDEST POP PUSH2 0xAB1 JUMPI DUP7 MLOAD PUSH3 0x461BCD PUSH1 0xE5 SHL DUP2 MSTORE DUP1 DUP11 ADD DUP10 SWAP1 MSTORE PUSH1 0x2E PUSH1 0x24 DUP3 ADD MSTORE PUSH32 0x45524331393637557067726164653A206E657720696D706C656D656E74617469 PUSH1 0x44 DUP3 ADD MSTORE PUSH14 0x6F6E206973206E6F742055555053 PUSH1 0x90 SHL PUSH1 0x64 DUP3 ADD MSTORE PUSH1 0x84 SWAP1 REVERT JUMPDEST SWAP8 SWAP2 SWAP3 SWAP4 SWAP7 SWAP6 SWAP5 SWAP8 SUB PUSH2 0xB7B JUMPI POP PUSH2 0xAC8 DUP3 PUSH2 0xF52 JUMP JUMPDEST PUSH32 0xBC7CD75A20EE27FD9ADEBAB32041F755214DBC6BFFA90CC0225B39DA2E5C2D3B DUP8 DUP1 LOG2 DUP6 DUP5 MLOAD ISZERO DUP1 ISZERO SWAP1 PUSH2 0xB74 JUMPI JUMPDEST PUSH2 0xB06 JUMPI JUMPDEST POP POP POP POP POP POP DUP1 RETURN JUMPDEST DUP1 PUSH2 0xB68 SWAP7 DUP5 MLOAD SWAP7 PUSH2 0xB17 DUP9 PUSH2 0xD41 JUMP JUMPDEST PUSH1 0x27 DUP9 MSTORE PUSH32 0x416464726573733A206C6F772D6C6576656C2064656C65676174652063616C6C DUP8 DUP10 ADD MSTORE PUSH7 0x819985A5B1959 PUSH1 0xCA SHL DUP7 DUP10 ADD MSTORE MLOAD SWAP1 DUP5 GAS DELEGATECALL SWAP2 RETURNDATASIZE ISZERO PUSH2 0x881 JUMPI RETURNDATASIZE PUSH2 0x869 PUSH2 0x860 DUP3 PUSH2 0xDF9 JUMP JUMPDEST POP DUP2 DUP1 DUP1 DUP1 DUP1 DUP6 PUSH2 0xAFD JUMP JUMPDEST POP DUP1 PUSH2 0xAF8 JUMP JUMPDEST DUP4 MLOAD PUSH3 0x461BCD PUSH1 0xE5 SHL DUP2 MSTORE SWAP1 DUP2 ADD DUP6 SWAP1 MSTORE PUSH1 0x29 PUSH1 0x24 DUP3 ADD MSTORE PUSH32 0x45524331393637557067726164653A20756E737570706F727465642070726F78 PUSH1 0x44 DUP3 ADD MSTORE PUSH9 0x1A58589B1955555251 PUSH1 0xBA SHL PUSH1 0x64 DUP3 ADD MSTORE PUSH1 0x84 SWAP1 REVERT JUMPDEST SWAP1 SWAP2 POP DUP9 DUP2 DUP2 RETURNDATASIZE DUP4 GT PUSH2 0xBFC JUMPI JUMPDEST PUSH2 0xBE8 DUP2 DUP4 PUSH2 0xD73 JUMP JUMPDEST DUP2 ADD SUB SLT PUSH2 0xBF8 JUMPI MLOAD SWAP1 DUP12 PUSH2 0xA52 JUMP JUMPDEST DUP11 DUP1 REVERT JUMPDEST POP RETURNDATASIZE PUSH2 0xBDE JUMP JUMPDEST PUSH4 0x4E487B71 PUSH1 0xE0 SHL DUP10 MSTORE PUSH1 0x41 DUP9 MSTORE PUSH1 0x24 DUP10 REVERT JUMPDEST DUP3 MLOAD PUSH3 0x461BCD PUSH1 0xE5 SHL DUP2 MSTORE DUP1 DUP8 ADD DUP6 SWAP1 MSTORE PUSH1 0x13 PUSH1 0x24 DUP3 ADD MSTORE PUSH19 0x556E617574686F72697A656420416363657373 PUSH1 0x68 SHL PUSH1 0x44 DUP3 ADD MSTORE PUSH1 0x64 SWAP1 REVERT JUMPDEST DUP4 DUP1 REVERT JUMPDEST SWAP1 POP CALLVALUE PUSH2 0x57B JUMPI DUP2 PUSH1 0x3 NOT CALLDATASIZE ADD SLT PUSH2 0x57B JUMPI DUP1 MLOAD SWAP1 DUP3 PUSH1 0x66 SLOAD PUSH2 0xC75 DUP2 PUSH2 0xD07 JUMP JUMPDEST DUP1 DUP6 MSTORE SWAP2 PUSH1 0x1 SWAP2 DUP1 DUP4 AND SWAP1 DUP2 ISZERO PUSH2 0x553 JUMPI POP PUSH1 0x1 EQ PUSH2 0xCA0 JUMPI POP POP POP PUSH2 0x4E8 DUP3 PUSH2 0x4F2 SWAP5 SUB DUP4 PUSH2 0xD73 JUMP JUMPDEST SWAP5 POP PUSH1 0x66 DUP6 MSTORE PUSH1 0x0 DUP1 MLOAD PUSH1 0x20 PUSH2 0x1078 DUP4 CODECOPY DUP2 MLOAD SWAP2 MSTORE JUMPDEST DUP3 DUP7 LT PUSH2 0xCD3 JUMPI POP POP POP PUSH2 0x4E8 DUP3 PUSH1 0x20 PUSH2 0x4F2 SWAP6 DUP3 ADD ADD SWAP5 PUSH2 0x4D6 JUMP JUMPDEST DUP1 SLOAD PUSH1 0x20 DUP8 DUP8 ADD DUP2 ADD SWAP2 SWAP1 SWAP2 MSTORE SWAP1 SWAP6 ADD SWAP5 DUP2 ADD PUSH2 0xCB6 JUMP JUMPDEST DUP4 SWAP1 CALLVALUE PUSH2 0x57B JUMPI DUP2 PUSH1 0x3 NOT CALLDATASIZE ADD SLT PUSH2 0x57B JUMPI PUSH1 0x20 SWAP1 PUSH1 0x65 SLOAD DUP2 MSTORE RETURN JUMPDEST SWAP1 PUSH1 0x1 DUP3 DUP2 SHR SWAP3 AND DUP1 ISZERO PUSH2 0xD37 JUMPI JUMPDEST PUSH1 0x20 DUP4 LT EQ PUSH2 0xD21 JUMPI JUMP JUMPDEST PUSH4 0x4E487B71 PUSH1 0xE0 SHL PUSH1 0x0 MSTORE PUSH1 0x22 PUSH1 0x4 MSTORE PUSH1 0x24 PUSH1 0x0 REVERT JUMPDEST SWAP2 PUSH1 0x7F AND SWAP2 PUSH2 0xD16 JUMP JUMPDEST PUSH1 0x60 DUP2 ADD SWAP1 DUP2 LT PUSH8 0xFFFFFFFFFFFFFFFF DUP3 GT OR PUSH2 0xD5D JUMPI PUSH1 0x40 MSTORE JUMP JUMPDEST PUSH4 0x4E487B71 PUSH1 0xE0 SHL PUSH1 0x0 MSTORE PUSH1 0x41 PUSH1 0x4 MSTORE PUSH1 0x24 PUSH1 0x0 REVERT JUMPDEST SWAP1 PUSH1 0x1F DUP1 NOT SWAP2 ADD AND DUP2 ADD SWAP1 DUP2 LT PUSH8 0xFFFFFFFFFFFFFFFF DUP3 GT OR PUSH2 0xD5D JUMPI PUSH1 0x40 MSTORE JUMP JUMPDEST PUSH1 0x20 DUP1 DUP3 MSTORE DUP3 MLOAD DUP2 DUP4 ADD DUP2 SWAP1 MSTORE SWAP1 SWAP4 SWAP3 PUSH1 0x0 JUMPDEST DUP3 DUP2 LT PUSH2 0xDCA JUMPI POP POP PUSH1 0x40 SWAP3 SWAP4 POP PUSH1 0x0 DUP4 DUP3 DUP5 ADD ADD MSTORE PUSH1 0x1F DUP1 NOT SWAP2 ADD AND ADD ADD SWAP1 JUMP JUMPDEST DUP2 DUP2 ADD DUP7 ADD MLOAD DUP5 DUP3 ADD PUSH1 0x40 ADD MSTORE DUP6 ADD PUSH2 0xDA8 JUMP JUMPDEST PUSH1 0x4 CALLDATALOAD SWAP1 PUSH1 0x1 PUSH1 0x1 PUSH1 0xA0 SHL SUB DUP3 AND DUP3 SUB PUSH2 0xDF4 JUMPI JUMP JUMPDEST PUSH1 0x0 DUP1 REVERT JUMPDEST PUSH8 0xFFFFFFFFFFFFFFFF DUP2 GT PUSH2 0xD5D JUMPI PUSH1 0x1F ADD PUSH1 0x1F NOT AND PUSH1 0x20 ADD SWAP1 JUMP JUMPDEST SWAP3 SWAP2 SWAP3 PUSH2 0xE21 DUP3 PUSH2 0xDF9 JUMP JUMPDEST SWAP2 PUSH2 0xE2F PUSH1 0x40 MLOAD SWAP4 DUP5 PUSH2 0xD73 JUMP JUMPDEST DUP3 SWAP5 DUP2 DUP5 MSTORE DUP2 DUP4 ADD GT PUSH2 0xDF4 JUMPI DUP3 DUP2 PUSH1 0x20 SWAP4 DUP5 PUSH1 0x0 SWAP7 ADD CALLDATACOPY ADD ADD MSTORE JUMP JUMPDEST SWAP1 PUSH1 0x40 PUSH1 0x3 NOT DUP4 ADD SLT PUSH2 0xDF4 JUMPI PUSH1 0x4 CALLDATALOAD SWAP2 PUSH1 0x24 CALLDATALOAD SWAP1 PUSH8 0xFFFFFFFFFFFFFFFF DUP3 GT PUSH2 0xDF4 JUMPI DUP1 PUSH1 0x23 DUP4 ADD SLT ISZERO PUSH2 0xDF4 JUMPI DUP2 PUSH1 0x24 PUSH2 0xE8D SWAP4 PUSH1 0x4 ADD CALLDATALOAD SWAP2 ADD PUSH2 0xE15 JUMP JUMPDEST SWAP1 JUMP JUMPDEST ISZERO PUSH2 0xE97 JUMPI JUMP JUMPDEST PUSH1 0x40 MLOAD PUSH3 0x461BCD PUSH1 0xE5 SHL DUP2 MSTORE PUSH1 0x20 PUSH1 0x4 DUP3 ADD MSTORE PUSH1 0x2C PUSH1 0x24 DUP3 ADD MSTORE PUSH32 0x46756E6374696F6E206D7573742062652063616C6C6564207468726F75676820 PUSH1 0x44 DUP3 ADD MSTORE PUSH12 0x19195B1959D85D1958D85B1B PUSH1 0xA2 SHL PUSH1 0x64 DUP3 ADD MSTORE PUSH1 0x84 SWAP1 REVERT JUMPDEST ISZERO PUSH2 0xEF8 JUMPI JUMP JUMPDEST PUSH1 0x40 MLOAD PUSH3 0x461BCD PUSH1 0xE5 SHL DUP2 MSTORE PUSH1 0x20 PUSH1 0x4 DUP3 ADD MSTORE PUSH1 0x2C PUSH1 0x24 DUP3 ADD MSTORE PUSH32 0x46756E6374696F6E206D7573742062652063616C6C6564207468726F75676820 PUSH1 0x44 DUP3 ADD MSTORE PUSH12 0x6163746976652070726F7879 PUSH1 0xA0 SHL PUSH1 0x64 DUP3 ADD MSTORE PUSH1 0x84 SWAP1 REVERT JUMPDEST DUP1 EXTCODESIZE ISZERO PUSH2 0xF87 JUMPI PUSH1 0x0 DUP1 MLOAD PUSH1 0x20 PUSH2 0x1098 DUP4 CODECOPY DUP2 MLOAD SWAP2 MSTORE DUP1 SLOAD PUSH1 0x1 PUSH1 0x1 PUSH1 0xA0 SHL SUB NOT AND PUSH1 0x1 PUSH1 0x1 PUSH1 0xA0 SHL SUB SWAP1 SWAP3 AND SWAP2 SWAP1 SWAP2 OR SWAP1 SSTORE JUMP JUMPDEST PUSH1 0x40 MLOAD PUSH3 0x461BCD PUSH1 0xE5 SHL DUP2 MSTORE PUSH1 0x20 PUSH1 0x4 DUP3 ADD MSTORE PUSH1 0x2D PUSH1 0x24 DUP3 ADD MSTORE PUSH32 0x455243313936373A206E657720696D706C656D656E746174696F6E206973206E PUSH1 0x44 DUP3 ADD MSTORE PUSH13 0x1BDD08184818DBDB9D1C9858DD PUSH1 0x9A SHL PUSH1 0x64 DUP3 ADD MSTORE PUSH1 0x84 SWAP1 REVERT JUMPDEST SWAP2 SWAP3 SWAP1 ISZERO PUSH2 0x1044 JUMPI POP DUP2 MLOAD ISZERO PUSH2 0xFF6 JUMPI POP SWAP1 JUMP JUMPDEST EXTCODESIZE ISZERO PUSH2 0xFFF JUMPI SWAP1 JUMP JUMPDEST PUSH1 0x40 MLOAD PUSH3 0x461BCD PUSH1 0xE5 SHL DUP2 MSTORE PUSH1 0x20 PUSH1 0x4 DUP3 ADD MSTORE PUSH1 0x1D PUSH1 0x24 DUP3 ADD MSTORE PUSH32 0x416464726573733A2063616C6C20746F206E6F6E2D636F6E7472616374000000 PUSH1 0x44 DUP3 ADD MSTORE PUSH1 0x64 SWAP1 REVERT JUMPDEST DUP3 MLOAD SWAP1 SWAP2 POP ISZERO PUSH2 0x1057 JUMPI POP DUP1 MLOAD SWAP1 PUSH1 0x20 ADD REVERT JUMPDEST PUSH1 0x40 MLOAD PUSH3 0x461BCD PUSH1 0xE5 SHL DUP2 MSTORE SWAP1 DUP2 SWAP1 PUSH2 0x1073 SWAP1 PUSH1 0x4 DUP4 ADD PUSH2 0xD95 JUMP JUMPDEST SUB SWAP1 REVERT INVALID CHAINID POP XOR PUSH26 0xB8CA8525E8C2FD519E2FBFCFA2EBEA26501294AA02CBFCFB12E9 NUMBER SLOAD CALLDATASIZE ADDMOD SWAP5 LOG1 EXTCODESIZE LOG1 LOG3 0x21 MOD PUSH8 0xC828492DB98DCA3E KECCAK256 PUSH23 0xCC3735A920A3CA505D382BBCA26469706673582212205D 0xE0 0xAB COINBASE PUSH23 0xE94787C39E09BC024AC16D7C9152B1DCA41A8DFEFD9027 SWAP1 0xBD 0xA6 DUP5 PUSH5 0x736F6C6343 STOP ADDMOD SGT STOP CALLER "},"gasEstimates":{"creation":{"codeDepositCost":"866600","executionCost":"infinite","totalCost":"infinite"},"external":{"initialize(uint256,string)":"infinite","param1()":"2271","param2()":"infinite","param3()":"infinite","proxiableUUID()":"infinite","updateParams(uint256,string)":"infinite","upgradeTo(address)":"infinite","upgradeToAndCall(address,bytes)":"infinite"},"internal":{"_authorizeUpgrade(address)":"infinite"}},"methodIdentifiers":{"initialize(uint256,string)":"6e9d13ab","param1()":"02d91518","param2()":"1f049b68","param3()":"5ccea9a5","proxiableUUID()":"52d1902d","updateParams(uint256,string)":"82c0a340","upgradeTo(address)":"3659cfe6","upgradeToAndCall(address,bytes)":"4f1ef286"}},"storageLayout":{"storage":[{"astId":503,"contract":"contracts/TestUpgradableContract.sol:TestUpgradableContract","label":"_initialized","offset":0,"slot":"0","type":"t_uint8"},{"astId":506,"contract":"contracts/TestUpgradableContract.sol:TestUpgradableContract","label":"_initializing","offset":1,"slot":"0","type":"t_bool"},{"astId":485,"contract":"contracts/TestUpgradableContract.sol:TestUpgradableContract","label":"__gap","offset":0,"slot":"1","type":"t_array(t_uint256)50_storage"},{"astId":800,"contract":"contracts/TestUpgradableContract.sol:TestUpgradableContract","label":"__gap","offset":0,"slot":"51","type":"t_array(t_uint256)50_storage"},{"astId":3483,"contract":"contracts/TestUpgradableContract.sol:TestUpgradableContract","label":"param1","offset":0,"slot":"101","type":"t_uint256"},{"astId":3485,"contract":"contracts/TestUpgradableContract.sol:TestUpgradableContract","label":"param2","offset":0,"slot":"102","type":"t_string_storage"},{"astId":3487,"contract":"contracts/TestUpgradableContract.sol:TestUpgradableContract","label":"owner","offset":0,"slot":"103","type":"t_address"},{"astId":3489,"contract":"contracts/TestUpgradableContract.sol:TestUpgradableContract","label":"param3","offset":0,"slot":"104","type":"t_string_storage"}],"types":{"t_address":{"encoding":"inplace","label":"address","numberOfBytes":"20"},"t_array(t_uint256)50_storage":{"base":"t_uint256","encoding":"inplace","label":"uint256[50]","numberOfBytes":"1600"},"t_bool":{"encoding":"inplace","label":"bool","numberOfBytes":"1"},"t_string_storage":{"encoding":"bytes","label":"string","numberOfBytes":"32"},"t_uint256":{"encoding":"inplace","label":"uint256","numberOfBytes":"32"},"t_uint8":{"encoding":"inplace","label":"uint8","numberOfBytes":"1"}}},"userdoc":{"kind":"user","methods":{},"version":1}}}}