{
  "_format": "hh-sol-artifact-1",
  "contractName": "Engagr",
  "sourceName": "contracts/Engagr.sol",
  "abi": [
    {
      "anonymous": false,
      "inputs": [
        {
          "indexed": false,
          "internalType": "string",
          "name": "adId",
          "type": "string"
        },
        {
          "indexed": false,
          "internalType": "string",
          "name": "promoterId",
          "type": "string"
        },
        {
          "indexed": false,
          "internalType": "uint256",
          "name": "payoutAmount",
          "type": "uint256"
        }
      ],
      "name": "AdPayout",
      "type": "event"
    },
    {
      "anonymous": false,
      "inputs": [
        {
          "indexed": false,
          "internalType": "string",
          "name": "id",
          "type": "string"
        },
        {
          "indexed": false,
          "internalType": "string",
          "name": "description",
          "type": "string"
        },
        {
          "indexed": false,
          "internalType": "uint256",
          "name": "amountAllocated",
          "type": "uint256"
        },
        {
          "indexed": false,
          "internalType": "address",
          "name": "tokenAddress",
          "type": "address"
        }
      ],
      "name": "AdSubmitted",
      "type": "event"
    },
    {
      "anonymous": false,
      "inputs": [
        {
          "indexed": false,
          "internalType": "address",
          "name": "previousAdmin",
          "type": "address"
        },
        {
          "indexed": false,
          "internalType": "address",
          "name": "newAdmin",
          "type": "address"
        }
      ],
      "name": "AdminChanged",
      "type": "event"
    },
    {
      "anonymous": false,
      "inputs": [
        {
          "indexed": false,
          "internalType": "address",
          "name": "promoterAddress",
          "type": "address"
        },
        {
          "indexed": false,
          "internalType": "address",
          "name": "tokenAddress",
          "type": "address"
        },
        {
          "indexed": false,
          "internalType": "uint256",
          "name": "amount",
          "type": "uint256"
        }
      ],
      "name": "BalanceClaimed",
      "type": "event"
    },
    {
      "anonymous": false,
      "inputs": [
        {
          "indexed": true,
          "internalType": "address",
          "name": "beacon",
          "type": "address"
        }
      ],
      "name": "BeaconUpgraded",
      "type": "event"
    },
    {
      "anonymous": false,
      "inputs": [
        {
          "indexed": false,
          "internalType": "uint8",
          "name": "version",
          "type": "uint8"
        }
      ],
      "name": "Initialized",
      "type": "event"
    },
    {
      "anonymous": false,
      "inputs": [
        {
          "indexed": false,
          "internalType": "string",
          "name": "id",
          "type": "string"
        },
        {
          "indexed": false,
          "internalType": "address",
          "name": "accountAddress",
          "type": "address"
        }
      ],
      "name": "MarketerRegistered",
      "type": "event"
    },
    {
      "anonymous": false,
      "inputs": [
        {
          "indexed": true,
          "internalType": "address",
          "name": "previousOwner",
          "type": "address"
        },
        {
          "indexed": true,
          "internalType": "address",
          "name": "newOwner",
          "type": "address"
        }
      ],
      "name": "OwnershipTransferred",
      "type": "event"
    },
    {
      "anonymous": false,
      "inputs": [
        {
          "indexed": false,
          "internalType": "string",
          "name": "id",
          "type": "string"
        },
        {
          "indexed": false,
          "internalType": "string",
          "name": "twitterUsername",
          "type": "string"
        },
        {
          "indexed": false,
          "internalType": "address",
          "name": "accountAddress",
          "type": "address"
        }
      ],
      "name": "PromoterRegistered",
      "type": "event"
    },
    {
      "anonymous": false,
      "inputs": [
        {
          "indexed": true,
          "internalType": "address",
          "name": "implementation",
          "type": "address"
        }
      ],
      "name": "Upgraded",
      "type": "event"
    },
    {
      "inputs": [
        {
          "internalType": "string",
          "name": "adId",
          "type": "string"
        },
        {
          "internalType": "string",
          "name": "promoterId",
          "type": "string"
        },
        {
          "internalType": "uint256",
          "name": "payoutAmount",
          "type": "uint256"
        },
        {
          "internalType": "bytes",
          "name": "attestationData",
          "type": "bytes"
        }
      ],
      "name": "adPayout",
      "outputs": [],
      "stateMutability": "nonpayable",
      "type": "function"
    },
    {
      "inputs": [
        {
          "internalType": "address",
          "name": "",
          "type": "address"
        }
      ],
      "name": "addressToMarketers",
      "outputs": [
        {
          "internalType": "string",
          "name": "id",
          "type": "string"
        },
        {
          "internalType": "address",
          "name": "accountAddress",
          "type": "address"
        }
      ],
      "stateMutability": "view",
      "type": "function"
    },
    {
      "inputs": [
        {
          "internalType": "address",
          "name": "",
          "type": "address"
        }
      ],
      "name": "addressToPromoters",
      "outputs": [
        {
          "internalType": "string",
          "name": "id",
          "type": "string"
        },
        {
          "internalType": "string",
          "name": "twitterUsername",
          "type": "string"
        },
        {
          "internalType": "address",
          "name": "accountAddress",
          "type": "address"
        },
        {
          "internalType": "uint256",
          "name": "claimableBalanceNative",
          "type": "uint256"
        }
      ],
      "stateMutability": "view",
      "type": "function"
    },
    {
      "inputs": [
        {
          "internalType": "address",
          "name": "tokenAddress",
          "type": "address"
        }
      ],
      "name": "claimBalance",
      "outputs": [],
      "stateMutability": "nonpayable",
      "type": "function"
    },
    {
      "inputs": [
        {
          "internalType": "string",
          "name": "",
          "type": "string"
        }
      ],
      "name": "idToAds",
      "outputs": [
        {
          "internalType": "string",
          "name": "id",
          "type": "string"
        },
        {
          "internalType": "string",
          "name": "description",
          "type": "string"
        },
        {
          "internalType": "uint256",
          "name": "amountAllocated",
          "type": "uint256"
        },
        {
          "internalType": "address",
          "name": "tokenAddress",
          "type": "address"
        },
        {
          "internalType": "uint256",
          "name": "endTimestamp",
          "type": "uint256"
        },
        {
          "internalType": "uint256",
          "name": "requiredFollowers",
          "type": "uint256"
        },
        {
          "internalType": "uint256",
          "name": "lockedAmount",
          "type": "uint256"
        },
        {
          "internalType": "address",
          "name": "marketerAddress",
          "type": "address"
        }
      ],
      "stateMutability": "view",
      "type": "function"
    },
    {
      "inputs": [
        {
          "internalType": "string",
          "name": "",
          "type": "string"
        }
      ],
      "name": "idToMarketers",
      "outputs": [
        {
          "internalType": "string",
          "name": "id",
          "type": "string"
        },
        {
          "internalType": "address",
          "name": "accountAddress",
          "type": "address"
        }
      ],
      "stateMutability": "view",
      "type": "function"
    },
    {
      "inputs": [
        {
          "internalType": "string",
          "name": "",
          "type": "string"
        }
      ],
      "name": "idToPromoters",
      "outputs": [
        {
          "internalType": "string",
          "name": "id",
          "type": "string"
        },
        {
          "internalType": "string",
          "name": "twitterUsername",
          "type": "string"
        },
        {
          "internalType": "address",
          "name": "accountAddress",
          "type": "address"
        },
        {
          "internalType": "uint256",
          "name": "claimableBalanceNative",
          "type": "uint256"
        }
      ],
      "stateMutability": "view",
      "type": "function"
    },
    {
      "inputs": [],
      "name": "initialize",
      "outputs": [],
      "stateMutability": "nonpayable",
      "type": "function"
    },
    {
      "inputs": [],
      "name": "owner",
      "outputs": [
        {
          "internalType": "address",
          "name": "",
          "type": "address"
        }
      ],
      "stateMutability": "view",
      "type": "function"
    },
    {
      "inputs": [],
      "name": "proxiableUUID",
      "outputs": [
        {
          "internalType": "bytes32",
          "name": "",
          "type": "bytes32"
        }
      ],
      "stateMutability": "view",
      "type": "function"
    },
    {
      "inputs": [
        {
          "internalType": "string",
          "name": "id",
          "type": "string"
        },
        {
          "internalType": "address",
          "name": "accountAddress",
          "type": "address"
        },
        {
          "internalType": "string",
          "name": "email",
          "type": "string"
        }
      ],
      "name": "registerMarketer",
      "outputs": [],
      "stateMutability": "nonpayable",
      "type": "function"
    },
    {
      "inputs": [
        {
          "internalType": "string",
          "name": "id",
          "type": "string"
        },
        {
          "internalType": "string",
          "name": "twitterUsername",
          "type": "string"
        },
        {
          "internalType": "address",
          "name": "accountAddress",
          "type": "address"
        }
      ],
      "name": "registerPromoter",
      "outputs": [],
      "stateMutability": "nonpayable",
      "type": "function"
    },
    {
      "inputs": [],
      "name": "renounceOwnership",
      "outputs": [],
      "stateMutability": "nonpayable",
      "type": "function"
    },
    {
      "inputs": [
        {
          "internalType": "string",
          "name": "adId",
          "type": "string"
        },
        {
          "internalType": "string",
          "name": "description",
          "type": "string"
        },
        {
          "internalType": "uint256",
          "name": "amountAllocated",
          "type": "uint256"
        },
        {
          "internalType": "address",
          "name": "tokenAddress",
          "type": "address"
        },
        {
          "internalType": "uint256",
          "name": "endTimestamp",
          "type": "uint256"
        },
        {
          "internalType": "uint256",
          "name": "requiredFollowers",
          "type": "uint256"
        }
      ],
      "name": "submitAd",
      "outputs": [],
      "stateMutability": "payable",
      "type": "function"
    },
    {
      "inputs": [
        {
          "internalType": "address",
          "name": "newOwner",
          "type": "address"
        }
      ],
      "name": "transferOwnership",
      "outputs": [],
      "stateMutability": "nonpayable",
      "type": "function"
    },
    {
      "inputs": [
        {
          "internalType": "address",
          "name": "newImplementation",
          "type": "address"
        }
      ],
      "name": "upgradeTo",
      "outputs": [],
      "stateMutability": "nonpayable",
      "type": "function"
    },
    {
      "inputs": [
        {
          "internalType": "address",
          "name": "newImplementation",
          "type": "address"
        },
        {
          "internalType": "bytes",
          "name": "data",
          "type": "bytes"
        }
      ],
      "name": "upgradeToAndCall",
      "outputs": [],
      "stateMutability": "payable",
      "type": "function"
    },
    {
      "stateMutability": "payable",
      "type": "receive"
    }
  ],
  "bytecode": "0x60a080604052346100315730608052612480908161003782396080518181816114f1015281816115f001526118850152f35b600080fdfe6080604052600436101561001b575b361561001957600080fd5b005b60003560e01c80633659cfe6146118605780634f1ef286146115a257806352d1902d146114de5780635d6d07831461148e57806369ff159514610fcb578063715018a614610f6e5780637554cd8e14610f2b5780637d53fcdb14610e815780638114ffb514610bed5780638129fc1c14610ab757806382fd00d814610a555780638da5cb5b14610a2c578063b633e4cd146107e8578063c123fccc1461077c578063cbce2d08146104a1578063e1e7a31b1461016d5763f2fde38b0361000e5734610168576020366003190112610168576100f4611af0565b6100fc611da9565b6001600160a01b038116156101145761001990611e01565b60405162461bcd60e51b815260206004820152602660248201527f4f776e61626c653a206e6577206f776e657220697320746865207a65726f206160448201526564647265737360d01b6064820152608490fd5b600080fd5b34610168576060366003190112610168576001600160401b036004358181116101685761019e903690600401611cff565b6024356001600160a01b038116810361016857604435848111610168576101c9903690600401611cff565b50506040516101d781611b06565b6101e2368486611b78565b81526001600160a01b038216602082019081526040519091908486823760208186810160cb81520301902090518051908782116104155761022d826102278554611baf565b85612099565b602090601f83116001146104365760019392916000918361042b575b5050600019600383901b1c191690831b1781555b019060018060a01b039051166001600160601b0360a01b82541617905560405161028681611b06565b610291368486611b78565b81526001600160a01b0382166020808301829052600091825260ce90526040902081518051968711610415576102d1876102cb8454611baf565b84612099565b602090601f8811600114610388579680600193927f315c3f177661fc973209a9157c1c5f260966a86be500ea7a07a4d1746a55537e9960009261037d575b5050600019600383901b1c191690831b1781555b0190602060018060a01b03910151166001600160601b0360a01b82541617905561034e60c9546120ed565b60c9556103686040519384936040855260408501916120fc565b6001600160a01b0390911660208301520390a1005b01519050898061030f565b908260005260206000209160005b601f198a1681106103fd5750976001939284927f315c3f177661fc973209a9157c1c5f260966a86be500ea7a07a4d1746a55537e9a83601f198116106103e4575b505050811b018155610323565b015160001960f88460031b161c191690558980806103d7565b91926020600181928685015181550194019201610396565b634e487b7160e01b600052604160045260246000fd5b015190508980610249565b90601f198316918460005260206000209260005b8181106104895750916001959492918387959310610470575b505050811b01815561025d565b015160001960f88460031b161c19169055898080610463565b9293602060018192878601518155019501930161044a565b34610168576060366003190112610168576001600160401b03600435818111610168576104d2903690600401611cff565b602435838111610168576104ea903690600401611cff565b6044356001600160a01b0381811693918490036101685760405196858789378786810160cc81526020998a91030190209080871161041557610530876102cb8454611baf565b866000601f82116001146107165760009161070b575b508760011b906000198960031b1c19161782555b84116104155760019182820161057a866105748354611baf565b83612099565b6000601f871160011461067e577fe70c02aed729b96866839f1b309da67c8cbe805f84cadc4ee54e0947bc528aaa9a9593879593600393610668998594600091610673575b5060001989861b1c191688871b1781555b61061560028401916001600160601b0360a01b978d898554161784558d60005260cf8c5261060286604060002061211d565b8d60005260cf8c5260406000200161211d565b5416938960005260cf88526040600020946002860191825416179055015491015561064160ca546120ed565b60ca5561065b6040519788976060895260608901916120fc565b92868403908701526120fc565b9060408301520390a1005b90508701358f6105bf565b601f19871690826000528b6000209160005b8181106106f657509360039384937fe70c02aed729b96866839f1b309da67c8cbe805f84cadc4ee54e0947bc528aaa9e9997938b6106689c9a98106106de575b50508588811b0181556105d0565b8801356000198a871b60f8161c191690558e806106d0565b88830135845592870192918d01918d01610690565b90508801358a610546565b60008481528b812092508990601f198216905b8d8d838310610764575050501061074a575b5050600187811b01825561055a565b89013560001960038a901b60f8161c19169055898061073b565b8501358655600190950194938401938c935001610729565b34610168576107a2602061078f36611d2c565b8160405193828580945193849201611c8f565b810160cc8152030190206107b581611be9565b6107e46107c460018401611be9565b92600360018060a01b036002830154169101549060405194859485611d6a565b0390f35b346101685760208060031936011261016857610802611af0565b903360005260cf8152604060002060018060a01b033381600284015416036109db578316806108e6575060030180549182156108a25750600090556000808080843382f115610896577fe3e2ca11b8ffe7e2b181fb2301a542f91623298409487d2bf9ada172e124f507915b604080513381526001600160a01b03909216602083015281019190915280606081015b0390a1005b6040513d6000823e3d90fd5b6064906040519062461bcd60e51b82526004820152601b60248201527f4e6f20636c61696d61626c65206e61746976652062616c616e636500000000006044820152fd5b919290600401918060005282845260406000205492831561099657938160009582938752825285604081205560446040518097819363a9059cbb60e01b83523360048401528860248401525af1938415610896577fe3e2ca11b8ffe7e2b181fb2301a542f91623298409487d2bf9ada172e124f50794610968575b505061086e565b8161098792903d1061098f575b61097f8183611b3c565b8101906121f5565b508380610961565b503d610975565b60405162461bcd60e51b815260048101869052601a60248201527f4e6f20636c61696d61626c6520746f6b656e2062616c616e63650000000000006044820152606490fd5b60405162461bcd60e51b815260048101849052602360248201527f43616c6c6572206973206e6f74206120726567697374657265642070726f6d6f6044820152623a32b960e91b6064820152608490fd5b34610168576000366003190112610168576097546040516001600160a01b039091168152602090f35b34610168576020366003190112610168576001600160a01b0380610a77611af0565b1660005260cf60205260406000206107e4610a9182611be9565b916003610aa060018301611be9565b946002830154169101549060405194859485611d6a565b346101685760003660031901126101685760005460ff8160081c161590818092610be0575b8015610bc9575b15610b6d5760ff19811660011760005581610b5b575b50610b1460ff60005460081c16610b0f81612039565b612039565b610b1d33611e01565b610b2357005b61ff0019600054166000557f7f26b83ff96e1f2b6a682f133852f6798a09c465da95921460cefb3847402498602060405160018152a1005b61ffff19166101011760005581610af9565b60405162461bcd60e51b815260206004820152602e60248201527f496e697469616c697a61626c653a20636f6e747261637420697320616c72656160448201526d191e481a5b9a5d1a585b1a5e995960921b6064820152608490fd5b50303b158015610ae35750600160ff821614610ae3565b50600160ff821610610adc565b34610168576080366003190112610168576001600160401b0360043581811161016857610c1e903690600401611cff565b9060243583811161016857610c37903690600401611cff565b936044359060643590811161016857610c54903690600401611cff565b959092604051868682378087810160cd8152602092839103019020976006890190815496868810610e3c57610cf891610cea610cf0928b8d610cb389610ca58e8e8e6040519687958601988961220d565b03601f198101835282611b3c565b5190207f19457468657265756d205369676e6564204d6573736167653a0a333200000000600052601c52603c600020923691611b78565b90612363565b919091612249565b60078a01546001600160a01b039190821690821603610e015760405185858237838187810160cc815203019020918160028401541615610dc957868803978811610db3577fe15eee14f80c8f238b22b5c252d04bef10a3ac6e03c83c74f9071f4796c7dcf99a61089198600392550154168015600014610d9257506003915001610d8384825461223c565b90555b6040519586958661220d565b906004916000520190526040600020610dac84825461223c565b9055610d86565b634e487b7160e01b600052601160045260246000fd5b60405162461bcd60e51b815260048101859052601060248201526f24b73b30b634b210383937b6b7ba32b960811b6044820152606490fd5b60405162461bcd60e51b815260048101849052601360248201527224b73b30b634b21030ba3a32b9ba30ba34b7b760691b6044820152606490fd5b60405162461bcd60e51b815260048101859052601a60248201527f496e73756666696369656e74206c6f636b656420616d6f756e740000000000006044820152606490fd5b3461016857610efa610e97602061078f36611d2c565b810160cd815203019020610eaa81611be9565b90610eb760018201611be9565b60028201549160018060a01b0380600383015416600483015490610f08600585015493600760068701549601541695604051998a99610100808c528b0190611cb2565b9089820360208b0152611cb2565b9560408801526060870152608086015260a085015260c084015260e08301520390f35b3461016857610f3e602061078f36611d2c565b810160cb815203019020610f5181611be9565b906001808060a01b0391015416906107e460405192839283611cd7565b3461016857600036600319011261016857610f87611da9565b609780546001600160a01b031981169091556000906001600160a01b03167f8be0079c531659141344cd1fd0a4f28419497f9722a3daafe3b4186f6b6457e08280a3005b60c0366003190112610168576004356001600160401b03811161016857610ff6903690600401611cff565b906024356001600160401b03811161016857611016903690600401611cff565b909290606435906001600160a01b03821682036101685742608435111561143d576001600160a01b0382166114365760443534145b156113e55760405161010081018181106001600160401b0382111761041557604052611078368587611b78565b8152611085368388611b78565b602082015260443560408083018290526001600160a01b0385166060840152608435608084015260a43560a084015260c08301919091523360e0830152518486823760208186810160cd81520301902081518051906001600160401b0382116104155781906110fe826110f88654611baf565b86612099565b602090601f83116001146113795760009261136e575b50508160011b916000199060031b1c19161781555b60208201518051906001600160401b03821161041557819061115b826111526001870154611baf565b60018701612099565b602090601f83116001146112fc576000926112f1575b50508160011b916000199060031b1c19161760018201555b6040820151600282015560608201516003820180546001600160a01b03199081166001600160a01b03938416179091556080840151600484015560a0840151600584015560c0840151600684015560e09093015160079092018054909316918116919091179091558216611260575b7f4ccc654f5b0ae694b1b5be2208a8678537a665e4e1f3fcdd8caff59f68957c3294611243916112356040519687966080885260808801916120fc565b9185830360208701526120fc565b60443560408401526001600160a01b0390911660608301520390a1005b6040516323b872dd60e01b815233600482015230602482015260448035908201529460208660648160006001600160a01b0388165af1918215610896577f4ccc654f5b0ae694b1b5be2208a8678537a665e4e1f3fcdd8caff59f68957c3296611243936112d2575b50915094506111f8565b6112ea9060203d60201161098f5761097f8183611b3c565b50876112c8565b015190508980611171565b9250600184016000526020600020906000935b601f1984168510611353576001945083601f1981161061133a575b505050811b016001820155611189565b015160001960f88460031b161c1916905589808061132a565b8181015183556020948501946001909301929091019061130f565b015190508980611114565b9250836000526020600020906000935b601f19841685106113ca576001945083601f198116106113b1575b505050811b018155611129565b015160001960f88460031b161c191690558980806113a4565b81810151835560209485019460019093019290910190611389565b60405162461bcd60e51b815260206004820152602360248201527f4d69736d6174636820696e20746f6b656e20616e64206e617469766520616d6f6044820152621d5b9d60ea1b6064820152608490fd5b341561104b565b60405162461bcd60e51b815260206004820152602360248201527f456e642074696d657374616d70206d75737420626520696e207468652066757460448201526275726560e81b6064820152608490fd5b34610168576020366003190112610168576001600160a01b03806114b0611af0565b1660005260ce60205260406000209060016114ca83611be9565b92015416906107e460405192839283611cd7565b34610168576000366003190112610168577f00000000000000000000000000000000000000000000000000000000000000006001600160a01b0316300361153757602060405160008051602061242b8339815191528152f35b60405162461bcd60e51b815260206004820152603860248201527f555550535570677261646561626c653a206d757374206e6f742062652063616c60448201527f6c6564207468726f7567682064656c656761746563616c6c00000000000000006064820152608490fd5b6040366003190112610168576115b6611af0565b6024356001600160401b0381116101685736602382011215610168576115e6903690602481600401359101611b78565b6001600160a01b037f00000000000000000000000000000000000000000000000000000000000000008116919061161f30841415611e4a565b61163c60008051602061242b833981519152938285541614611eab565b611644611da9565b7f4910fdfa16fed3260ed0e7147f7cc6da11a60208b5b9406d12a635614ffd91435460ff161561167a5750505061001990611f0c565b8316604051926352d1902d60e01b84526020938481600481865afa60009181611831575b506116ff5760405162461bcd60e51b815260048101869052602e60248201527f45524331393637557067726164653a206e657720696d706c656d656e7461746960448201526d6f6e206973206e6f74205555505360901b6064820152608490fd5b939293036117da5761171084611f0c565b7fbc7cd75a20ee27fd9adebab32041f755214dbc6bffa90cc0225b39da2e5c2d3b600080a28151158015906117d2575b61174657005b610019926000806040519461175a86611b21565b602786527f416464726573733a206c6f772d6c6576656c2064656c65676174652063616c6c85870152660819985a5b195960ca1b60408701528481519101845af4903d156117c9573d6117ac81611b5d565b906117ba6040519283611b3c565b8152600081943d92013e611f9c565b60609250611f9c565b506001611740565b60405162461bcd60e51b815260048101839052602960248201527f45524331393637557067726164653a20756e737570706f727465642070726f786044820152681a58589b195555525160ba1b6064820152608490fd5b9091508581813d8311611859575b6118498183611b3c565b810103126101685751908761169e565b503d61183f565b34610168576020806003193601126101685761187a611af0565b6001600160a01b03917f000000000000000000000000000000000000000000000000000000000000000083166118b230821415611e4a565b6118cf60008051602061242b833981519152918583541614611eab565b6118d7611da9565b60405190828201948286106001600160401b0387111761041557856040526000835260ff7f4910fdfa16fed3260ed0e7147f7cc6da11a60208b5b9406d12a635614ffd9143541660001461193357505050506100199150611f0c565b8492939416906040516352d1902d60e01b81528581600481865afa60009181611ac1575b506119b85760405162461bcd60e51b815260048101879052602e60248201527f45524331393637557067726164653a206e657720696d706c656d656e7461746960448201526d6f6e206973206e6f74205555505360901b6064820152608490fd5b94939403611a6a576119c982611f0c565b7fbc7cd75a20ee27fd9adebab32041f755214dbc6bffa90cc0225b39da2e5c2d3b600080a2825115801590611a62575b6119ff57005b6000806100199560405195611a1387611b21565b602787527f416464726573733a206c6f772d6c6576656c2064656c65676174652063616c6c86880152660819985a5b195960ca1b60408801525190845af4903d156117c9573d6117ac81611b5d565b5060006119f9565b60405162461bcd60e51b815260048101849052602960248201527f45524331393637557067726164653a20756e737570706f727465642070726f786044820152681a58589b195555525160ba1b6064820152608490fd5b9091508681813d8311611ae9575b611ad98183611b3c565b8101031261016857519088611957565b503d611acf565b600435906001600160a01b038216820361016857565b604081019081106001600160401b0382111761041557604052565b606081019081106001600160401b0382111761041557604052565b90601f801991011681019081106001600160401b0382111761041557604052565b6001600160401b03811161041557601f01601f191660200190565b929192611b8482611b5d565b91611b926040519384611b3c565b829481845281830111610168578281602093846000960137010152565b90600182811c92168015611bdf575b6020831014611bc957565b634e487b7160e01b600052602260045260246000fd5b91607f1691611bbe565b9060405191826000825492611bfd84611baf565b908184526001948581169081600014611c6c5750600114611c29575b5050611c2792500383611b3c565b565b9093915060005260209081600020936000915b818310611c54575050611c2793508201013880611c19565b85548884018501529485019487945091830191611c3c565b915050611c2794506020925060ff191682840152151560051b8201013880611c19565b60005b838110611ca25750506000910152565b8181015183820152602001611c92565b90602091611ccb81518092818552858086019101611c8f565b601f01601f1916010190565b90611cef602091949394604084526040840190611cb2565b6001600160a01b03909416910152565b9181601f84011215610168578235916001600160401b038311610168576020838186019501011161016857565b602060031982011261016857600435906001600160401b038211610168578060238301121561016857816024611d6793600401359101611b78565b90565b90606092611d87611d959297969597608085526080850190611cb2565b908382036020850152611cb2565b6001600160a01b0390951660408201520152565b6097546001600160a01b03163303611dbd57565b606460405162461bcd60e51b815260206004820152602060248201527f4f776e61626c653a2063616c6c6572206973206e6f7420746865206f776e65726044820152fd5b609780546001600160a01b039283166001600160a01b0319821681179092559091167f8be0079c531659141344cd1fd0a4f28419497f9722a3daafe3b4186f6b6457e0600080a3565b15611e5157565b60405162461bcd60e51b815260206004820152602c60248201527f46756e6374696f6e206d7573742062652063616c6c6564207468726f7567682060448201526b19195b1959d85d1958d85b1b60a21b6064820152608490fd5b15611eb257565b60405162461bcd60e51b815260206004820152602c60248201527f46756e6374696f6e206d7573742062652063616c6c6564207468726f7567682060448201526b6163746976652070726f787960a01b6064820152608490fd5b803b15611f415760008051602061242b83398151915280546001600160a01b0319166001600160a01b03909216919091179055565b60405162461bcd60e51b815260206004820152602d60248201527f455243313936373a206e657720696d706c656d656e746174696f6e206973206e60448201526c1bdd08184818dbdb9d1c9858dd609a1b6064820152608490fd5b91929015611ffe5750815115611fb0575090565b3b15611fb95790565b60405162461bcd60e51b815260206004820152601d60248201527f416464726573733a2063616c6c20746f206e6f6e2d636f6e74726163740000006044820152606490fd5b8251909150156120115750805190602001fd5b60405162461bcd60e51b815260206004820152908190612035906024830190611cb2565b0390fd5b1561204057565b60405162461bcd60e51b815260206004820152602b60248201527f496e697469616c697a61626c653a20636f6e7472616374206973206e6f74206960448201526a6e697469616c697a696e6760a81b6064820152608490fd5b90601f81116120a757505050565b600091825260208220906020601f850160051c830194106120e3575b601f0160051c01915b8281106120d857505050565b8181556001016120cc565b90925082906120c3565b6000198114610db35760010190565b908060209392818452848401376000828201840152601f01601f1916010190565b908082146121f15761212f8154611baf565b906001600160401b03821161041557819061214e826110f88654611baf565b600090601f83116001146121855760009261217a575b50508160011b916000199060031b1c1916179055565b015490503880612164565b81526020808220858352818320935090601f1985169083905b8282106121d85750509084600195949392106121bf575b505050811b019055565b015460001960f88460031b161c191690553880806121b5565b849581929585015481556001809101960194019061219e565b5050565b90816020910312610168575180151581036101685790565b959493612229604094926122379460608a5260608a01916120fc565b9187830360208901526120fc565b930152565b91908201809211610db357565b600581101561234d578061225a5750565b600181036122a75760405162461bcd60e51b815260206004820152601860248201527f45434453413a20696e76616c6964207369676e617475726500000000000000006044820152606490fd5b600281036122f45760405162461bcd60e51b815260206004820152601f60248201527f45434453413a20696e76616c6964207369676e6174757265206c656e677468006044820152606490fd5b6003146122fd57565b60405162461bcd60e51b815260206004820152602260248201527f45434453413a20696e76616c6964207369676e6174757265202773272076616c604482015261756560f01b6064820152608490fd5b634e487b7160e01b600052602160045260246000fd5b9060418151146000146123915761238d916020820151906060604084015193015160001a9061239b565b9091565b5050600090600290565b9291907f7fffffffffffffffffffffffffffffff5d576e7357a4501ddfe92f46681b20a0831161241e5791608094939160ff602094604051948552168484015260408301526060820152600093849182805260015afa156124115781516001600160a01b0381161561240b579190565b50600190565b50604051903d90823e3d90fd5b5050505060009060039056fe360894a13ba1a3210667c828492db98dca3e2076cc3735a920a3ca505d382bbca264697066735822122038d08018fb6585172002c956696a2173c533f07b6bbce61f18f4c1194cd7301d64736f6c63430008130033",
  "linkReferences": {},
  "deployedLinkReferences": {}
}